:020000040800F2
:10000000008000205D250008292400082B2400081A
:100010002D2400082F2400083124000800000000CF
:10002000000000000000000000000000E16900087E
:100030003324000800000000816A0008352400080D
:10004000AD250008AD250008AD250008AD25000848
:10005000AD250008AD250008AD250008AD25000838
:10006000AD250008AD250008AD2500084D24000889
:100070005D240008AD250008AD250008AD25000869
:10008000AD25000800000000AD250008AD250008E2
:10009000AD250008AD250008AD250008AD250008F8
:1000A000AD250008AD250008AD250008AD250008E8
:1000B000AD250008AD250008AD250008AD250008D8
:1000C000AD250008AD250008AD250008AD250008C8
:1000D000AD2500086D240008AD2500087D2400082A
:1000E000AD250008AD250008AD250008AD250008A8
:1000F000AD250008AD250008AD2500080000000072
:1001000000000000AD25000800000000AD2500083B
:10011000AD25000800000000AD250008AD25000851
:10012000AD250008AD250008AD250008AD25000867
:10013000AD2500080000000000000000AD2500080B
:10014000AD250008AD2500080000000000000000FB
:10015000000000000000000000000000000000009F
:10016000000000000000000000000000AD250008B5
:10017000AD250008000000000000000000000000A5
:1001800000000000AD250008000000000000000095
:10019000000000000000000000000000000000005F
:1001A0000000000000000000AD250008AD2500089B
:1001B000AD250008AD250008AD25000800000000B1
:1001C00000000000AD250008000000000000000055
:0801D000AD250008AD25000873
:1002000010B5054C237833B9044B13B10448AFF350
:1002100000800123237010BDCC09002000000000E5
:10022000FC10010808B5034B1BB103490348AFF3A9
:10023000008008BD00000000D0090020FC1001086B
:1002400081F0004102E000BF83F0004330B54FEA87
:1002500041044FEA430594EA050F08BF90EA020FF4
:100260001FBF54EA000C55EA020C7FEA645C7FEA87
:10027000655C00F0E2804FEA5454D4EB5555B8BFAA
:100280006D420CDD2C4480EA020281EA030382EA1B
:10029000000083EA010180EA020281EA0303362DAD
:1002A00088BF30BD11F0004F4FEA01314FF4801C80
:1002B0004CEA113102D0404261EB410113F0004F92
:1002C0004FEA03334CEA133302D0524263EB430349
:1002D00094EA050F00F0A780A4F10104D5F1200EE7
:1002E0000DDB02FA0EFC22FA05F2801841F1000142
:1002F00003FA0EF2801843FA05F359410EE0A5F116
:1003000020050EF1200E012A03FA0EFC28BF4CF046
:10031000020C43FA05F3C01851EBE37101F00045FC
:1003200007D54FF0000EDCF1000C7EEB00006EEB09
:100330000101B1F5801F1BD3B1F5001F0CD3490893
:100340005FEA30004FEA3C0C04F101044FEA4452EA
:1003500012F5800F80F09A80BCF1004F08BF5FEA71
:10036000500C50F1000041EB045141EA050130BD51
:100370005FEA4C0C404141EB0101013C28BFB1F563
:10038000801FE9D291F0000F04BF01460020B1FAAE
:1003900081F308BF2033A3F10B03B3F120020CDA81
:1003A0000C3208DD02F1140CC2F10C0201FA0CF05F
:1003B00021FA02F10CE002F11402D8BFC2F1200CC4
:1003C00001FA02F120FA0CFCDCBF41EA0C0190407A
:1003D000E41AA2BF01EB0451294330BD6FEA0404C3
:1003E0001F3C1CDA0C340EDC04F11404C4F12002AE
:1003F00020FA04F001FA02F340EA030021FA04F3C0
:1004000045EA030130BDC4F10C04C4F1200220FA16
:1004100002F001FA04F340EA0300294630BD21FA54
:1004200004F0294630BD94F0000F83F4801306BF1A
:1004300081F480110134013D4EE77FEA645C18BF0E
:100440007FEA655C29D094EA050F08BF90EA020FA5
:1004500005D054EA000C04BF1946104630BD91EA9D
:10046000030F1EBF0021002030BD5FEA545C05D1A0
:100470004000494128BF41F0004130BD14F58004DF
:100480003CBF01F5801130BD01F0004545F0FE4153
:1004900041F470014FF0000030BD7FEA645C1ABF88
:1004A000194610467FEA655C1CBF0B46024650EABF
:1004B000013406BF52EA033591EA030F41F40021EB
:1004C00030BD00BF90F0000F04BF0021704730B571
:1004D0004FF4806404F132044FF000054FF0000146
:1004E00050E700BF90F0000F04BF0021704730B507
:1004F0004FF4806404F1320410F0004548BF4042DC
:100500004FF000013EE700BF42004FEAE2014FEA30
:1005100031014FEA02701FBF12F07F4393F07F4F0B
:1005200081F06051704732F07F4208BF704793F00E
:100530007F4F04BF41F40021704730B54FF4607421
:1005400001F0004521F000411CE700BF50EA010224
:1005500008BF704730B54FF000050AE050EA0102CD
:1005600008BF704730B511F0004502D5404261EB3D
:1005700041014FF4806404F132045FEA915C3FF47E
:10058000D8AE4FF003025FEADC0C18BF03325FEA1B
:10059000DC0C18BF033202EBDC02C2F1200300FACC
:1005A00003FC20FA02F001FA03FE40EA0E0021FAF1
:1005B00002F11444BDE600BF70B54FF0FF0C4CF4DF
:1005C000E06C1CEA11541DBF1CEA135594EA0C0F91
:1005D00095EA0C0F00F0DEF82C4481EA030621EACC
:1005E0004C5123EA4C5350EA013518BF52EA033507
:1005F00041F4801143F4801338D0A0FB02CE4FF0B9
:100600000005E1FB02E506F00042E0FB03E54FF0E8
:100610000006E1FB03569CF0000F18BF4EF0010EE0
:10062000A4F1FF04B6F5007F64F5407404D25FEADC
:100630004E0E6D4146EB060642EAC62141EA55518F
:100640004FEAC52040EA5E504FEACE2EB4F1FD0CD1
:1006500088BFBCF5E06F1ED8BEF1004F08BF5FEA4F
:10066000500E50F1000041EB045170BD06F0004601
:1006700046EA010140EA020081EA0301B4EB5C04AE
:10068000C2BFD4EB0C0541EA045170BD41F48011A6
:100690004FF0000E013C00F3AB8014F1360FDEBFCB
:1006A000002001F0004170BDC4F10004203C35DAA7
:1006B0000C341BDC04F11404C4F1200500FA05F32A
:1006C00020FA04F001FA05F240EA020001F00042CB
:1006D00021F0004110EBD37021FA04F642EB060141
:1006E0005EEA430E08BF20EAD37070BDC4F10C046B
:1006F000C4F1200500FA04F320FA05F001FA04F22F
:1007000040EA020001F0004110EBD37041F100011A
:100710005EEA430E08BF20EAD37070BDC4F1200525
:1007200000FA05F24EEA020E20FA04F301FA05F28D
:1007300043EA020321FA04F001F0004121FA04F235
:1007400020EA020000EBD3705EEA430E08BF20EA05
:10075000D37070BD94F0000F0FD101F0004640003F
:1007600041EB010111F4801F08BF013CF7D041EAC1
:10077000060195F0000F18BF704703F000465200C5
:1007800043EB030313F4801F08BF013DF7D043EA96
:100790000603704794EA0C0F0CEA135518BF95EA4C
:1007A0000C0F0CD050EA410618BF52EA4306D1D1D3
:1007B00081EA030101F000414FF0000070BD50EAF2
:1007C000410606BF1046194652EA430619D094EA7C
:1007D0000C0F02D150EA013613D195EA0C0F05D166
:1007E00052EA03361CBF104619460AD181EA0301BA
:1007F00001F0004141F0FE4141F470014FF0000072
:1008000070BD41F0FE4141F4780170BD70B54FF00C
:10081000FF0C4CF4E06C1CEA11541DBF1CEA13558C
:1008200094EA0C0F95EA0C0F00F0A7F8A4EB05046E
:1008300081EA030E52EA03354FEA013100F0888065
:100840004FEA03334FF0805545EA131343EA12632E
:100850004FEA022245EA111545EA10654FEA0026E3
:100860000EF000419D4208BF964244F1FD0404F59C
:10087000407402D25B084FEA3202B61A65EB0305F8
:100880005B084FEA32024FF480104FF4002CB6EBB5
:10089000020E75EB030E22BFB61A754640EA0C0035
:1008A0005B084FEA3202B6EB020E75EB030E22BF75
:1008B000B61A754640EA5C005B084FEA3202B6EBB6
:1008C000020E75EB030E22BFB61A754640EA9C0075
:1008D0005B084FEA3202B6EB020E75EB030E22BF45
:1008E000B61A754640EADC0055EA060E18D04FEA03
:1008F000051545EA16754FEA06164FEAC30343EAA3
:1009000052734FEAC2025FEA1C1CC0D111F4801F6F
:100910000BD141EA00014FF000004FF0004CB6E768
:1009200011F4801F04BF01430020B4F1FD0C88BF07
:10093000BCF5E06F3FF6AFAEB5EB030C04BFB6EB12
:10094000020C5FEA500C50F1000041EB045170BD05
:100950000EF0004E4EEA113114EB5C04C2BFD4EB32
:100960000C0541EA045170BD41F480114FF0000EB6
:10097000013C90E645EA060E8DE60CEA135594EA32
:100980000C0F08BF95EA0C0F3FF43BAF94EA0C0F35
:100990000AD150EA01347FF434AF95EA0C0F7FF4AA
:1009A00025AF104619462CE795EA0C0F06D152EAFE
:1009B00003353FF4FDAE1046194622E750EA4106E2
:1009C00018BF52EA43067FF4C5AE50EA41047FF4F3
:1009D0000DAF52EA43057FF4EBAE12E74FF0FF3C58
:1009E00006E000BF4FF0010C02E000BF4FF0010C29
:1009F0004DF804CD4FEA410C7FEA6C5C4FEA430CA2
:100A000018BF7FEA6C5C1BD001B050EA410C0CBFF0
:100A100052EA430C91EA030F02BF90EA020F002052
:100A2000704710F1000F91EA030F58BF994208BFB9
:100A300090422CBFD8176FEAE37040F00100704776
:100A40004FEA410C7FEA6C5C02D150EA013C07D1CD
:100A50004FEA430C7FEA6C5CD6D152EA033CD3D018
:100A60005DF8040B704700BF8446104662468C4612
:100A70001946634600E000BF01B5FFF7B7FF002845
:100A800048BF10F1000F01BD4DF808EDFFF7F4FF6E
:100A90000CBF012000205DF808FB00BF4DF808EDF9
:100AA000FFF7EAFF34BF012000205DF808FB00BF1C
:100AB0004DF808EDFFF7E0FF94BF012000205DF83E
:100AC00008FB00BF4DF808EDFFF7CEFF94BF0120F3
:100AD00000205DF808FB00BF4DF808EDFFF7C4FFEC
:100AE00034BF012000205DF808FB00BF4FEA410C35
:100AF0007FEA6C5C02D150EA013C0AD14FEA430C18
:100B00007FEA6C5C02D152EA033C02D14FF0000054
:100B100070474FF0010070474FEA410212F5001292
:100B200015D211D56FF47873B3EB625212D94FEA34
:100B3000C12343F0004343EA505311F0004F23FA1E
:100B400002F018BF404270474FF00000704750EA73
:100B5000013005D111F0004008BF6FF00040704730
:100B60004FF00000704700BF4FEA4102B2F1E0438E
:100B700024BFB3F5001CDCF1FE5C0DD901F0004C84
:100B80004FEAC0024CEA5070B2F1004F40EB8300D4
:100B900008BF20F00100704711F0804F21D113F100
:100BA0003872BCBF01F00040704741F480114FEA39
:100BB0005252C2F11802C2F1200C10FA0CF320FAC2
:100BC00002F018BF40F001004FEAC1234FEAD323DF
:100BD00003FA0CFC40EA0C0023FA02F34FEA430349
:100BE000CCE77FEA625307D150EA01331EBF4FF0D2
:100BF000FE4040F44000704701F0004040F0FE40ED
:100C000040F40000704700BF53B94AB9002908BF3B
:100C100000281CBF4FF0FF314FF0FF3000F074B9D7
:100C2000ADF1080C6DE904CE00F006F8DDF804E043
:100C3000DDE9022304B070472DE9F047089D044622
:100C40008E46002B4DD18A42944669D9B2FA82F27F
:100C500052B101FA02F3C2F1200120FA01F10CFABB
:100C600002FC41EA030E94404FEA1C48210CBEFBF3
:100C7000F8F61FFA8CF708FB16E341EA034306FB7C
:100C800007F199420AD91CEB030306F1FF3080F00B
:100C90001F81994240F21C81023E63445B1AA4B258
:100CA000B3FBF8F008FB103344EA034400FB07F7FA
:100CB000A7420AD91CEB040400F1FF3380F00A813B
:100CC000A74240F207816444023840EA0640E41B30
:100CD00000261DB1D4400023C5E900433146BDE8DC
:100CE000F0878B4209D9002D00F0EF800026C5E97E
:100CF000000130463146BDE8F087B3FA83F6002E96
:100D00004AD18B4202D3824200F2F980841A61EB0D
:100D1000030301209E46002DE0D0C5E9004EDDE72B
:100D200002B9FFDEB2FA82F2002A40F09280A1EB13
:100D30000C014FEA1C471FFA8CFE0126200CB1FB68
:100D4000F7F307FB131140EA01410EFB03F0884261
:100D500008D91CEB010103F1FF3802D2884200F2EE
:100D6000CB804346091AA4B2B1FBF7F007FB101180
:100D700044EA01440EFB00FEA64508D91CEB04041E
:100D800000F1FF3102D2A64500F2BB800846A4EB79
:100D90000E0440EA03409CE7C6F12007B34022FA64
:100DA00007FC4CEA030C20FA07F401FA06F31C4393
:100DB000F9404FEA1C4900FA06F3B1FBF9F8200CA0
:100DC0001FFA8CFE09FB181140EA014108FB0EF0E6
:100DD000884202FA06F20BD91CEB010108F1FF3A36
:100DE00080F08880884240F28580A8F10208614442
:100DF000091AA4B2B1FBF9F009FB101144EA014150
:100E000000FB0EFE8E4508D91CEB010100F1FF34FA
:100E10006CD28E456AD90238614440EA0840A0FB92
:100E20000294A1EB0E01A142C846A64656D353D068
:100E30005DB1B3EB080261EB0E0101FA07F722FA8C
:100E400006F3F1401F43C5E9007100263146BDE8B5
:100E5000F087C2F12003D8400CFA02FC21FA03F318
:100E6000914001434FEA1C471FFA8CFEB3FBF7F099
:100E700007FB10360B0C43EA064300FB0EF69E42BE
:100E800004FA02F408D91CEB030300F1FF382FD257
:100E90009E422DD9023863449B1B89B2B3FBF7F6FF
:100EA00007FB163341EA034106FB0EF38B4208D9D8
:100EB0001CEB010106F1FF3816D28B4214D9023E19
:100EC0006144C91A46EA004638E72E46284605E737
:100ED0000646E3E61846F8E64B45A9D2B9EB020808
:100EE00064EB0C0E0138A3E74646EAE7204694E798
:100EF0004046D1E7D0467BE7023B614432E73046CB
:100F000009E76444023842E7704700BF844641EA7B
:100F1000000313F003036DD1403A41D351F8043B71
:100F200040F8043B51F8043B40F8043B51F8043BC3
:100F300040F8043B51F8043B40F8043B51F8043BB3
:100F400040F8043B51F8043B40F8043B51F8043BA3
:100F500040F8043B51F8043B40F8043B51F8043B93
:100F600040F8043B51F8043B40F8043B51F8043B83
:100F700040F8043B51F8043B40F8043B51F8043B73
:100F800040F8043B51F8043B40F8043B51F8043B63
:100F900040F8043B51F8043B40F8043B403ABDD2D2
:100FA000303211D351F8043B40F8043B51F8043B74
:100FB00040F8043B51F8043B40F8043B51F8043B33
:100FC00040F8043B103AEDD20C3205D351F8043B03
:100FD00040F8043B043AF9D2043208D0D2071CBFCF
:100FE00011F8013B00F8013B01D30B8803806046F8
:100FF000704700BF082A13D38B078DD010F003036E
:101000008AD0C3F10403D21ADB071CBF11F8013BDD
:1010100000F8013B80D331F8023B20F8023B7BE72C
:10102000043AD9D3013A11F8013B00F8013BF9D257
:101030000B7803704B7843708B78837060467047F1
:1010400090F800F06DE9024520F007016FF0000C08
:1010500010F0070491F820F040F049804FF00004B0
:101060006FF00700D1E9002391F840F000F108008B
:1010700082FA4CF2A4FA8CF283FA4CF3A2FA8CF3C3
:101080004BBBD1E9022382FA4CF200F10800A4FA2A
:101090008CF283FA4CF3A2FA8CF3E3B9D1E904237E
:1010A00082FA4CF200F10800A4FA8CF283FA4CF3B5
:1010B000A2FA8CF37BB9D1E9062301F1200182FA6F
:1010C0004CF200F10800A4FA8CF283FA4CF3A2FA75
:1010D0008CF3002BC6D0002A04BF04301A4612BA83
:1010E000B2FA82F2FDE8024500EBD2007047D1E986
:1010F000002304F00305C4F100004FEAC50514F015
:10110000040F91F840F00CFA05F562EA05021CBFE5
:1011100063EA050362464FF00004A9E700000000FF
:1011200001F0FF01102A2BDB10F0070F08D010F898
:10113000013B013A8B422DD010F0070F42B3F6D19C
:10114000F0B441EA012141EA014122F007047FF0B5
:1011500000070023F0E80256083C85EA010586EA0C
:10116000010685FA47F5A3FA87F586FA47F6A5FA48
:1011700087F68EB9EED1F0BC01F0FF0102F0070254
:1011800032B110F8013B013A83EA010313B1F8D1FF
:101190000020704701387047002D06BF35460338E0
:1011A000073815F0010F07D1013015F4807F02BF19
:1011B000013015F4C03F0130F0BC0138704700BF6A
:1011C00008B507F00DFC01221146134802F061FA40
:1011D000124C0021204603F089FF0421204603F031
:1011E00085FF0821204603F081FF236841F2883201
:1011F0005A639A63DA63B2EE080A07F05DF80121D8
:10120000072007F07FF9B3EE040A07F02FFB012057
:1012100005F0D7F9F7E700BF00040048000D0020F3
:1012200010B584B001220C490C4805F0DFF84FF0EE
:10123000FF320B4B196801A805F0F3FA019B102B44
:10124000F5D1029C211D074807F0E4FF2146064B1B
:10125000186805F08CFAEAE79C4F0020C00E0020C9
:10126000F80900207C110108F409002008B507F0F6
:1012700081FD4FF4FA7005F0A4F99FED0F0A0F48B5
:1012800007F00CFDB1EE040A0D4807F007FD0D480C
:1012900007F09CFF0C4B93ED000A084807F0FEFC9A
:1012A0000A4B93ED000A064807F0F8FC4FF49670DD
:1012B00005F087F9EEE700BF00007042584E0020AD
:1012C000804E00208C11010800000020E809002059
:1012D00080B5DFF8F89000222C49484607F0E6FD7B
:1012E000DFF8EC8000222A49404607F0DFFD294F55
:1012F00000222949384607F0D9FD284E0022284906
:10130000304607F0D3FD274D00222749284607F035
:10131000CDFD264C00222649204607F0C7FD254A70
:101320000021484607F0DAFD234A0021404607F035
:10133000D5FD224A0021384607F0D0FD204A002181
:10134000304607F0CBFD1F4A0021284607F0C6FDB6
:101350001D4A0021204607F0C1FD484607F0CAFE9D
:10136000404607F0C7FE384607F0C4FE304607F097
:10137000C1FE284607F0BEFE204607F0BBFE07F080
:10138000CBFE052005F01DF9F9E700BF35910008F7
:1013900049910008F84E00205D910008204F002080
:1013A00071910008484F002085910008704F00207F
:1013B00099910008A9910008B1910008B99100081D
:1013C000BB910008C3910008CB910008A84E0020F3
:1013D000D04E002070B58AB000240594069407947E
:1013E000089409942B4BDA6C42F02002DA64DA6C30
:1013F00002F020020192019ADA6C42F00402DA64EF
:10140000DA6C02F004020292029ADA6C42F00102F3
:10141000DA64DA6C02F001020392039ADA6C42F0A9
:101420000202DA64DB6C03F002030493049B22469D
:1014300058214FF0904002F02CF9174E2246072118
:10144000304602F026F958230593012506950794A6
:10145000089405A94FF0904002F02AF82023059344
:101460000694079505A90D4802F022F80723059375
:1014700006950794089405A9304602F019F84FF430
:10148000784305930694079505A9304602F010F8B5
:101490000AB070BD00100240000400480008004877
:1014A00000B583B0124B9A6C42F004029A649A6CB5
:1014B00002F004020092009A9A6C42F001029A64CF
:1014C0009B6C03F001030193019B002205210B207B
:1014D00001F0FAFC0B2001F02FFD002205210C2069
:1014E00001F0F2FC0C2001F027FD03B05DF804FBD5
:1014F0000010024000B595B0274807F08BFE274D3D
:101500000FACAE46BEE80F000FC4DEF8003023601B
:101510000AAC05F1140EBEE80F000FC4DEF800306F
:1015200023600DF1140E05F128040FCCAEE80F0076
:101530002368CEF80030EE4605F13C0CBCE80F0005
:10154000AEE80F00DCF80030CEF8003005F05AFAB3
:1015500000210FA805F01BF8114B186000210AA804
:1015600005F015F80F4B1860002105A805F00FF8DD
:101570000D4B18600021684605F009F80B4B186008
:1015800005F062FA08214FF0904002F087F84FF41E
:10159000FA7005F016F8F5E7D411010818110108E2
:1015A000EC090020000A0020F0090020FC090020BE
:1015B000264B834200D0704770B5254B1B6853B152
:1015C000012B1BD0234B1B680122234919441F48C0
:1015D00004F00CFF70BD1F4B1B681F4AD25C7B2AB6
:1015E00006D101331B4A1360194B01221A60E9E747
:1015F00080220021184808F019F9E3E7154B1A6812
:10160000154B9B5C7D2B03D00132124B1A60D9E73E
:10161000501C114EC2F180020021304408F006F93E
:1016200000250C4B1D600A4B1D600C4B186805F023
:1016300067F80446802231460430FFF767FC2A46EB
:101640002146074B186805F0B9F8BBE7C00E00202B
:10165000580F0020540F00209C4F0020F409002058
:10166000F809002072B6FEE710B58CB0002409948A
:101670000A940B942022214601A808F0D7F81E48AE
:101680004FF0A04303604FF4403343608460C46074
:101690000461446104238361047744770123036276
:1016A00080F82440C462046380F83840C46380F842
:1016B000404000F0DBFFC8B90023099309A90E4898
:1016C00001F066FBA0B90D4B0193062302930023A2
:1016D00003937F2204920422059206930DEB0201EC
:1016E000054801F0E3F828B90CB010BDFFF7BAFFC8
:1016F000FFF7B8FFFFF7B6FF080A0020020030042A
:1017000000B589B020220021684608F08FF81A48F9
:101710001A4B03604FF44033436000238360C3607F
:1017200003614361042282610377437701220262ED
:1017300080F82430C362036380F83830C36380F8D4
:10174000403000F093FF90B90D4B009306230193B6
:10175000002302937F220392042204920593694698
:10176000054801F0A3F820B909B05DF804FBFFF7C4
:1017700079FFFFF777FF00BF740A002000010050D7
:101780008000501D08B50F480F4B036000234360D5
:101790008360C36003744374837410224261012226
:1017A00082610221C161016242628262C26202639D
:1017B00043638363C36301F091FD00B908BDFFF784
:1017C00051FF00BFA00B00200064004008B5134883
:1017D000134B0360A3F17663A3F57B23A3F61423D5
:1017E0004360002383600122C2600361436183611F
:1017F000C361036202F0DCF850B90021074802F02F
:101800000DFA38B90021054802F036FA20B908BDB2
:10181000FFF728FFFFF726FFFFF724FF040C002047
:101820000058004008B51048104B03604FF4827315
:101830004360002383604FF4E062C26002220261D1
:1018400043614FF4007282611022C26103624362FD
:1018500083620722C2620363436303F043F800B963
:1018600008BDFFF7FFFE00BF9C0C002000300140C8
:1018700010B598B000241594169417940E940F94F4
:10188000109411941294139414943422214601A8B4
:1018900007F0CCFF2E482F4B036006234360202324
:1018A000836042F21073C36004614461846103F099
:1018B00061FA002840D1002315931693179315A9B8
:1018C000234803F0BFFC002838D160230E93002288
:1018D0000F92109211921292139214920EA91C4818
:1018E00003F057FB00282BD104220EA9184803F05F
:1018F00050FB38BB08220EA9154803F04AFB18BB61
:101900000023019302930393049305934FF4005231
:1019100006920793089309934FF000720A920B9373
:101920000C930D9301A90A4803F0D6FC70B908483E
:1019300000F04EFC18B010BDFFF794FEFFF792FECA
:10194000FFF790FEFFF78EFEFFF78CFEFFF78AFE93
:10195000000D0020002C014000B58BB00023079340
:1019600008930993009301930293039304930593BF
:10197000069323484FF08042026004224260836055
:101980004FF47A72C2600361836103F0F3F950BBD4
:101990001B4803F0BFF940BB00230793099307A935
:1019A000174803F04FFC10BB602300930022019204
:1019B000029204926946124803F0EBFAC8B9042275
:1019C00069460F4803F0E5FAA8B9002300930822FE
:1019D00069460B4803F0A0FA78B9094800F0F8FB13
:1019E0000BB05DF804FBFFF73DFEFFF73BFEFFF792
:1019F00039FEFFF737FEFFF735FEFFF733FE00BF76
:101A00004C0D002008B51548154B03604FF4E13329
:101A1000436000238360C36003610C2242618361E1
:101A2000C36103624362836204F008FC70B9002161
:101A30000A4804F051FD58B90021084804F071FD2E
:101A400040B9064804F029FD30B908BDFFF70AFE89
:101A5000FFF708FEFFF706FEFFF704FE300E00203A
:101A60000038014000B58DB02422002103A807F002
:101A7000DDFE00230093019302931048104A026098
:101A8000436083604FF6FF72C2600361836101238C
:101A900003930593099303A903F09CF950B900231C
:101AA000009302936946054803F0CCFB20B90DB0C2
:101AB0005DF804FBFFF7D6FDFFF7D4FD980D00207D
:101AC0000004004008B51348134B0360A3F176638C
:101AD000A3F57D23A3F61423436000238360012232
:101AE000C260036143618361C361036201F060FF0F
:101AF00050B90021074802F091F838B90021054893
:101B000002F0BAF820B908BDFFF7ACFDFFF7AAFD57
:101B1000FFF7A8FD500C00200078004010B598B0E9
:101B200000241594169417940E940F941094119405
:101B30001294139414943422214601A807F076FEDF
:101B400029482A4B0360A0234360846042F210734B
:101B5000C36004614461846103F00CF9002839D149
:101B6000002315931693179315A91F4803F06AFBDA
:101B7000002831D160230E9300220F92109211920F
:101B80001292139214920EA9174803F002FA28BB7E
:101B900004220EA9144803F0FCF908BB00230193AA
:101BA00002930393049305934FF400520692079314
:101BB000089309934FF000720A920B930C930D93C4
:101BC00001A9094803F088FB60B9074800F000FB51
:101BD00018B010BDFFF746FDFFF744FDFFF742FDCB
:101BE000FFF740FDFFF73EFDE40D0020003401400B
:101BF00008B51548154B03604FF4E13343600023EB
:101C00008360C36003610C2242618361C36103622C
:101C10004362836204F012FB70B900210A4804F0A9
:101C20005BFC58B90021084804F07BFC40B9064829
:101C300004F033FC30B908BDFFF714FDFFF712FDC7
:101C4000FFF710FDFFF70EFDC00E0020004800401A
:101C500000B595B03822002106A807F0E7FD002066
:101C60000190029003900490059002F031F8022355
:101C700006934FF48072099240220A920D930E93BC
:101C80000F932822109211931293139306A802F037
:101C9000D9F880B90F230193032302930023039300
:101CA0000493059304210DEB010002F083FB20B99E
:101CB00015B05DF804FBFFF7D5FCFFF7D3FC00007F
:101CC00000B587B000F09CFCFFF7C2FFFFF782FB76
:101CD000FFF7E6FBFFF7C8FCFFF712FDFFF752FD29
:101CE000FFF774FDFFF79EFDFFF7C2FDFFF734FE1F
:101CF000FFF788FEFFF7B6FEFFF7E4FEFFF70EFFE3
:101D0000FFF776FF104804F063FC104B1860104892
:101D100004F0C0FC0F4B186000210F4804F047FD91
:101D20000E4B18600DF1040C0D4C0FCCACE80F00FD
:101D30002368CCF80030002101A804F028FC094BEE
:101D4000186004F01FFCFEE7EC110108500F0020A2
:101D5000F0110108F4090020E4110108F80900203D
:101D600068110108040A002000B583B00E4B1A6EFA
:101D700042F001021A661A6E02F001020092009A05
:101D80009A6D42F080529A659B6D03F080530193E7
:101D9000019B00220F216FF0010001F095F802F085
:101DA0001DF803B05DF804FB0010024010B59AB0B6
:101DB000044600211591169117911891199144220A
:101DC00004A807F033FD2368B3F1A04F04D0364ACE
:101DD000934235D01AB010BD4FF4004304934FF036
:101DE0000053139304A802F00BFCD8B92F4A1368D0
:101DF00001331360012B18D02D4BDA6C42F0010235
:101E0000DA64DB6C03F001030193019B0723159354
:101E1000032316930023179315A94FF0904001F068
:101E200047FBD7E7FFF71EFCE0E7214BDA6C42F4F3
:101E30000052DA64DB6C03F400530093009BDBE791
:101E40004FF4004304934FF00053139304A802F09F
:101E5000D7FBD0B9154A136801331360012B17D093
:101E6000134BDA6C42F00402DA64DB6C03F0040317
:101E70000393039B0E2315930323169300231793B9
:101E800015A90C4801F014FBA4E7FFF7EBFBE1E711
:101E9000074BDA6C42F40052DA64DB6C03F4005353
:101EA0000293029BDCE700BF000100505C0F0020A2
:101EB000001002400008004810B598B00446002108
:101EC00013911491159116911791442202A807F0CD
:101ED000ADFC22681A4B9A4201D018B010BD4FF4E5
:101EE000805302934FF000730E9302A802F088FB18
:101EF00010BB144B9A6D42F000729A659A6D02F015
:101F000000720092009ADA6C42F00102DA64DB6C33
:101F100003F001030193019B4FF4C0531393022379
:101F200014930023159316930923179313A94FF0C5
:101F3000904001F0BDFAD0E7FFF794FBD9E700BF6E
:101F40000064004000100240F0B59DB0044600213E
:101F50001791189119911A911B91442206A807F024
:101F600065FC2368394A934204D0394A934241D0F0
:101F70001DB0F0BD8023069306A802F041FB0028A7
:101F800035D1344CE36C43F00403E364E36C03F0B9
:101F900004030193019BE36C43F00103E364E36CEE
:101FA00003F001030293029B102317931227189743
:101FB000002519951A9504261B9617A9264801F0A5
:101FC00077FA4FF480731793189719951A951B9603
:101FD00017A94FF0904001F06BFAA36D43F4800312
:101FE000A365A36D03F480030393039BC0E7FFF78E
:101FF00039FBC6E74FF48073069306A802F000FB96
:1020000008BB144CE36C43F00403E364E36C03F09B
:1020100004030493049B4FF4407317931223189303
:10202000002319931A9308231B9317A90A4801F058
:102030003FFAA36D43F08043A365A36D03F0804393
:102040000593059B94E7FFF70DFBDAE70058004086
:1020500000780040001002400008004810B588B029
:102060000023039304930593069307930268204B80
:102070009A4201D008B010BD044603F560431A6EC1
:1020800042F480521A661A6E02F480520192019A4A
:10209000DA6C42F00102DA64DB6C03F001030293B4
:1020A000029BA0230393022304930122059206932B
:1020B0000523079303A94FF0904001F0F9F90D486B
:1020C0000D4B03600B234360102383600023C36028
:1020D0008022026143618361C361036200F086FF75
:1020E00018B9044B63659C62C4E7FFF7BBFAF8E7D5
:1020F00000300140E00A00200800024084B003687C
:10210000164A934207D0B3F1804F0FD0144A93423E
:1021100018D004B07047134B1A6E42F400621A666E
:102120001B6E03F400630193019BF2E703F5043394
:102130009A6D42F001029A659B6D03F001030293D0
:10214000029BE6E7074B1A6E42F400521A661B6EBA
:1021500003F400530393039BDBE700BF002C014013
:10216000003401400010024000B589B00023039301
:1021700004930593069307930268134B9A4202D087
:1021800009B05DF804FB03F503339A6D42F00202D7
:102190009A659A6D02F002020192019ADA6C42F09D
:1021A0000202DA64DB6C03F002030293029B302329
:1021B00003930223049301220592079303A9034882
:1021C00001F076F9DCE700BF00040040000400489D
:1021D00030B58BB0002305930693079308930993BA
:1021E00003683C4A934207D0B3F1804F2FD03A4A5C
:1021F000934259D00BB030BD384BDA6C42F0040238
:10220000DA64DA6C02F004020092009ADA6C42F0AE
:102210000102DA64DB6C03F001030193019B0123EB
:10222000059302240694099405A92D4801F040F96C
:102230004FF4C06305930694002307930893062385
:10224000099305A94FF0904001F032F9D2E703F568
:102250000433DA6C42F00202DA64DA6C02F0020251
:102260000292029ADA6C42F00102DA64DB6C03F04B
:1022700001030393039B4FF48163059302250695A5
:102280000124099405A9174801F012F94FF40043FD
:1022900005930695002307930893099405A94FF029
:1022A000904001F005F9A5E70C4BDA6C42F004020E
:1022B000DA64DB6C03F004030493049BC0230593EE
:1022C000022306930423099305A9054801F0F0F8B9
:1022D00090E700BF002C0140003401400010024094
:1022E000000800480004004830B59BB004460021B7
:1022F00015911691179118911991442204A807F08D
:1023000095FA2368414A934204D0414A934233D01C
:102310001BB030BD0123049304A802F071F940BB47
:102320003C4B1A6E42F480421A661A6E02F48042E6
:102330000092009ADA6C42F00202DA64DB6C03F07D
:1023400002030193019BC0231593022316930024DB
:10235000179418940723199315A92F4801F0A8F88A
:1023600022460621252000F0AFFD252000F0E4FDE7
:10237000CEE7FFF777F9D3E70423049304A802F02C
:102380003FF900283CD1234B9A6D42F480229A6594
:102390009A6D02F480220292029ADA6C42F00402F0
:1023A000DA64DB6C03F004030393039B4FF4406394
:1023B0001593022316930025179518950723199353
:1023C00015A9164801F074F81548164B03601C2334
:1023D00043608560C5608023036145618561C56197
:1023E000056200F003FE70B90D4BE3679C620022AA
:1023F0000621272000F068FD272000F09DFD87E7DB
:10240000FFF730F9BFE7FFF72DF9EDE7003801409E
:102410000048004000100240000400480008004846
:10242000400B00201C000240FEE7FEE7FEE7FEE74F
:10243000FEE7704708B500F0F3F805F003FE012849
:1024400000D108BD04F04EFBFBE7000008B50248D0
:1024500000F0ADFE08BD00BFE00A002008B502484C
:1024600000F0A5FE08BD00BF400B002008B50248E3
:1024700002F0DAFF08BD00BF300E002008B50248A8
:1024800002F0D2FF08BD00BFC00E0020012070473F
:1024900008B506F0F1FE162303604FF0FF3008BDCB
:1024A00008B54FF0FF31FFF7F3FFFEE770B50C46BC
:1024B0001646002506E0AFF30080214601F8010B27
:1024C00001350C46B542F6DB304670BD70B50C46A2
:1024D0001646002504E014F8010BAFF30080013527
:1024E000B542F8DB304670BD4FF0FF3070474FF417
:1024F00000534B6000207047012070470020704758
:1025000010B503460C4A0D490D48006840B10C480F
:1025100000680344521A934206D8094A136010BD5A
:102520000748084C0460F2E706F0A6FE0C2303609F
:102530004FF0FF30F3E700BF0080002000040000F0
:10254000600F002068500020034AD2F8883043F41E
:102550007003C2F88830704700ED00E00D488546F2
:102560000D480E490E4A002302E0D458C4500433EB
:10257000C4188C42F9D30B4A0B4C002301E01360C2
:102580000432A242FBD3FFF7DFFF06F07BFEFFF72A
:1025900097FBFEE70080002000000020CC0900200F
:1025A00014190108CC09002064500020FEE7000047
:1025B000104B1B680BB90120704710B504464FF44F
:1025C0007A70B0FBF3F30C4A1068B0FBF3F000F044
:1025D000C1FC68B90F2C01D901200AE00022214674
:1025E0004FF0FF3000F070FC044B1C60002000E056
:1025F000012010BD08000020040000200C00002075
:1026000010B5032000F04EFC0F20FFF7D1FF10B1F2
:102610000124204610BD0446FFF7A6FBF9E70000A1
:10262000034A1368034909680B441360704700BFED
:10263000640F002008000020014B1868704700BF9D
:10264000640F002038B50446FFF7F6FF0546B4F1E5
:10265000FF3F02D0044B1B681C44FFF7EDFF401BFB
:10266000A042FAD338BD00BF0800002030B583B0C7
:1026700000230193002800F00D810446C36D13B3BD
:1026800023689A6812F0005F05D09A6822F0204211
:1026900022F03F029A602268936813F0805F1FD196
:1026A000936823F0104323F03F0343F0805393607B
:1026B000794B1B689B09794AA2FB03239B090133D1
:1026C0005B00019309E0FFF771FB0023236684F8A8
:1026D0005830D5E7019B013B0193019B002BF9D1B9
:1026E0002268936813F0805F40F09C80E36D43F0B4
:1026F0001003E365236E43F0010323660120936812
:1027000013F0040300D00123E16D11F0100F40F02D
:10271000BA80002B40F0B780E36D23F4817343F05F
:102720000203E365936813F0010F15D14FF0A04346
:102730009B6813F0010300D00123594A926812F0FC
:10274000010200D00122134306D1636855498A680B
:1027500022F47C1213438B60627FE36B43EA4233C3
:10276000E2681343A268134394F8242043EA024327
:10277000012A59D0E26A22B102F47872216B0A432D
:1027800013432168CD68484A2A401343CB6022682E
:10279000136923F04063616B0B43136121688B68FD
:1027A00013F0040300D001238A6812F0080200D05D
:1027B000012243BB3ABB227F94F838305B0043EAE6
:1027C0008232CB6823F4804323F002031343CB60AF
:1027D000236973B32268136943F480331361226859
:1027E000D2F8C03023F47F5323F03F0321690B4319
:1027F000C2F8C03094F84030012B29D02268136908
:1028000023F0010313616369012B33D02268136B3A
:1028100023F00F031363E36D23F0030343F001037D
:10282000E36535E000206AE7A26A013A43EA4243E1
:10283000A0E72268136923F4803313612268D2F879
:10284000C03023F47F5323F03F03C2F8C030D1E7F8
:1028500021680B6923F4FF6323F00403626CA56C09
:102860002A43E56C2A43256D2A43134343F00103B1
:102870000B61C8E721680B6B23F00F03226A013A52
:1028800013430B63C7E7E36D43F01003E3650120D7
:1028900003B030BD0120FBE704000020632D3E059E
:1028A00000010050000300500740F0FFF0B583B076
:1028B0000022019290F85820012A00F05E8203461F
:1028C000012280F858200568A86810F0040F09D08C
:1028D000DA6D42F02002DA650120002283F85820E8
:1028E00003B0F0BD4C683035220A920002F00C02B1
:1028F000A85804F01F0E1F2404FA0EF420EA040066
:102900000C68C4F3846C0CFA0EFC40EA0C00A8506E
:102910001868826812F0040200D00122846814F062
:10292000080400D00124002A4FD1002C4DD18D681D
:10293000B5F1004F7CD00F6814307A0E920002F08F
:1029400004028658C7F3045E4FF0070C0CFA0EFC25
:1029500026EA0C0C05FA0EF54CEA050585501868B8
:10296000426922F0004242614D691868C268C2F3B0
:10297000C102520005FA02F20E69042E70D06030D6
:1029800050F82670A94D3D400F6807F0F8473A43CC
:10299000154345F0004540F826501A680E698869CD
:1029A000603252F8265025F08075284342F8260000
:1029B0001A680D69087F01284FD0603252F825004F
:1029C00020F00070044342F825401A68906810F027
:1029D000010F12D10868CD68954CA54200F0A78080
:1029E000D2F8B040C0F3120024EA0000C2F8B000F0
:1029F000C8688F4A904200F0A2800A688D490A4256
:102A000000F0B3818C49896801F0E0708B4CA242E0
:102A100000F062818A4CA24200F05E81894CA242A1
:102A200000F08081884CA24200F08E81002054E7A3
:102A30000D6814306A0E920002F004028658C5F345
:102A40000455072707FA05F526EA05058550186895
:102A5000426942F00042426186E74FF00074ACE701
:102A6000026E046EC4F384640A68C2F312057DBB6F
:102A7000C2F38462944233D01C68626E606EC0F30D
:102A800084600A68C2F312057DBBC2F3846290427F
:102A900033D01C68A26EA06EC0F384600A68C2F3D3
:102AA00012057DBBC2F38462904233D01C68E26E93
:102AB000E06EC0F384600A68C2F312057DBBC2F306
:102AC0008462904281D1E26E22F00042E2667CE7AD
:102AD00092FAA2F212B1B2FA82F2CBE72022C9E74F
:102AE000026E22F000420266C6E792FAA2F212B12A
:102AF000B2FA82F2CBE72022C9E7626E22F00042EE
:102B00006266C6E792FAA2F212B1B2FA82F2CBE79B
:102B10002022C9E7A26E22F00042A266C6E792FA1E
:102B2000A2F212B1B2FA82F2CBE72022C9E7D2F8C0
:102B3000B040C0F312002043C2F8B00058E71C6850
:102B40000A68C2F31205002D38D1900E013000F052
:102B50001F0009288CBF00200120002876D0002DFE
:102B60003BD1900E0130800600F0F840002D40D19E
:102B7000960E013606F01F070126BE403043002D99
:102B800045D1920E013202F01F0202EB4202120501
:102B90000243886804F11406550EAD0005F00405E3
:102BA0007459C2F304524FF0070C0CFA02FC24EAE9
:102BB0000C0C90404CEA000070511EE792FAA2F013
:102BC00048B1B0FA80F0013000F01F0009288CBF36
:102BD00000200120C1E72020F5E792FAA2F030B1F1
:102BE000B0FA80F00130800600F0F840BEE7202007
:102BF000F8E792FAA2F646B1B6FA86F6013606F082
:102C00001F06012707FA06F6B8E72026F6E792FA2C
:102C1000A2F242B1B2FA82F2013202F01F0202EBDA
:102C200042021205B4E72022F6E700BF00F0FF03DE
:102C300000007F400000088000030050000021C316
:102C40001000C090000052C7000084CBCDB9900E98
:102C50000130800600F0F840FDB9960E013606F00E
:102C60001F070126BE4030432DBB920E013202F0F9
:102C70001F0202EB42021E3A120542F000720243AA
:102C800087E792FAA2F030B1B0FA80F00130800606
:102C900000F0F840E0E72020F8E792FAA2F646B10B
:102CA000B6FA86F6013606F01F06012707FA06F681
:102CB000D9E72026F6E792FAA2F25AB1B2FA82F2E6
:102CC000013202F01F0202EB42021E3A120542F0EC
:102CD0000072D4E72022F3E711F4000F7FF49EAED8
:102CE0001A68B2F1A04F01D00020F6E540F40000D0
:102CF00023498A6822F0E07210438860214A1268F2
:102D000092092149A1FB02129209013202EB42020F
:102D100092000192019A1AB1019A013A0192F9E7DF
:102D20000020DAE511F0807F7FF47CAE1968174A45
:102D300091421CD040F0807011498A6822F0E07204
:102D4000104388600020C8E511F4800F11D1196884
:102D50000E4A91420FD040F480020948816821F068
:102D6000E0710A4382600020B7E50020B5E500204D
:102D7000B3E50020B1E50020AFE50220B0E500BFDB
:102D80000003005004000020632D3E0500010050A8
:102D900090F85820012A7FD010B49DB0034601223C
:102DA00080F858200022189219920068B0F1A04FC4
:102DB00039D000220192019A002A37D0926812F08D
:102DC000040200D00122806810F0040F54D1002AC0
:102DD00052D10A68002A32D0304CA26822F46042F4
:102DE000486893F838C040EA4C300243A2604FF084
:102DF000A042926812F0010200D0012228488068A7
:102E000010F0010000D00120024341D1234CA26800
:102E100022F4716222F00F020868896801430A43B4
:102E2000A26000202DE01E4A0192C4E7DA6D42F054
:102E30002002DA65002283F85820012024E0174997
:102E40008A6822F460428A604FF0A042926812F0D1
:102E5000010200D001221249896811F0010100D05D
:102E600001210A4316D10D498A6822F4716222F0C9
:102E70000F028A60002004E0DA6D42F02002DA6579
:102E80000120002283F858201DB05DF8044B7047E4
:102E90000020F6E70020F4E702207047000300500E
:102EA00000010050074AD36823F4E0631B041B0CA5
:102EB000000200F4E060034343F0BF6343F40033D7
:102EC000D360704700ED00E000B5194BDB68C3F339
:102ED0000223C3F1070CBCF1040F28BF4FF0040C10
:102EE00003F1040EBEF1060F18D9033B4FF0FF3E6D
:102EF0000EFA0CFC21EA0C0199400EFA03F322EAC7
:102F00000303194300280BDB0901C9B200F160403B
:102F100000F5614080F800135DF804FB0023E5E74D
:102F200000F00F000901C9B2024B1954F4E700BFC9
:102F300000ED00E014ED00E0002807DB00F01F02C8
:102F4000400901239340024A42F82030704700BFF5
:102F500000E100E00138B0F1807F0BD24FF0E023B8
:102F60005861054AF02182F8231000209861072259
:102F70001A6170470120704700ED00E003680C4AB9
:102F8000934213D80B49DBB2083B0B4AA2FB032345
:102F9000426C22F003020A448264084AC264C3F30A
:102FA0000413012202FA03F3036570470449EAE7B8
:102FB0000704024000080240CDCCCCCC800802407F
:102FC000200802400379074A1A4492004265064AE3
:102FD0008265013B03F01F03012202FA03F3C3657C
:102FE000704700BF3F8200104009024000285BD0BC
:102FF00010B5044601682D4B99423DD82C4B0B442B
:103000002C4AA2FB03231B099B0043642A4B036445
:10301000022384F825300A6822F4FF4222F070026D
:10302000A368E06803432069034360690343A06920
:103030000343E0690343206A034313430B602046C4
:10304000FFF79CFFA368B3F5804F20D0A36C2279D3
:103050001A60E36C226D5A606368013B032B19D937
:1030600000236365A365E3650020E063012384F822
:10307000253084F8240010BD104B0B440D4AA2FBF0
:1030800003231B099B0043640D4B0364C0E700232B
:103090006360DBE72046FFF795FF636D00221A604F
:1030A000A36DE26D5A60DFE701207047070402401C
:1030B000F8FFFDBFCDCCCCCC00000240F8FBFDBF3B
:1030C00000040240034690F82520D2B2022A09D01B
:1030D0000422C2630120012283F82520002283F804
:1030E0002420704701680A6822F00E020A60816C91
:1030F0000A6822F480720A6001680A6822F00102FC
:103100000A60426C02F01F01006C01228A4042609A
:10311000DA6C196D51605A6D42B1116821F48071F9
:1031200011609A6DD96D51600020D4E70020D2E77C
:1031300008B590F82530DBB2022B09D00423C36315
:10314000012380F82530002280F82420184608BD8D
:103150000268136823F00E0313600268136823F0FB
:1031600001031360826C136823F480731360436C53
:1031700003F01F02016C012393404B60C36C026D8E
:103180005A60436D33B11A6822F480721A60836DFD
:10319000C26D5A60012380F82530002380F8243066
:1031A000836B13B198470020D1E70020CFE738B5F3
:1031B000036C196804682568436C03F01F0304223C
:1031C0009A400A4215D015F0040F12D0236813F06C
:1031D000200F03D1236823F004032360436C03F022
:1031E0001F02016C042393404B60036B03B19847AB
:1031F00038BD02229A400A421CD015F0020F19D0A5
:10320000236813F0200F06D1236823F00A032360FC
:10321000012380F82530436C03F01F02016C022368
:1032200093404B60002380F82430C36A002BDFD02A
:103230009847DDE7082202FA03F30B42D8D015F0D5
:10324000080FD5D0236823F00E032360436C03F0EE
:103250001F03016C012202FA03F34B60C26380F882
:103260002520002380F82430436B002BC0D09847E2
:10327000BEE7000010B4154B03640168D1F880204C
:1032800022F4F812446B42EA0442C1F88020104A4A
:1032900042640168D1F8802022F07062846B42EAB7
:1032A0000462C1F880200B4A8264D832C264D832EA
:1032B00002651832426502E0002243F8042B064AF8
:1032C0009342F9D95DF8044B704700BF00A4004059
:1032D00070A40040B0A400404FA70040002800F0B8
:1032E000E38038B5044690F85C30D3B12268936926
:1032F00023F010039361FFF79FF9054623689A694D
:1033000012F0080F12D0FFF797F9401B0A28F5D9E1
:10331000236E43F001032366032384F85C3001200D
:1033200038BD80F85D30FEF7C7FDDFE79A6942F0EF
:1033300001029A61FFF780F9054623689A6912F045
:10334000010F0DD1FFF778F9401B0A28F5D9236E3C
:1033500043F001032366032384F85C300120DFE798
:103360009A6942F002029A612268504B9A4242D016
:10337000237C012B45D02268936943F0400393617D
:10338000637C012B43D02268936923F480439361CB
:10339000A37C012B41D02268936943F4805393614D
:1033A0002268936923F44073A1680B4393612268F8
:1033B000936923F0A40393612268136923F0100337
:1033C0001361E368012B2ED0002B31D0022B54D097
:1033D0002268936943F0800393612268136943F084
:1033E00010031361E368032B22D12268936943F031
:1033F000200393611CE06268A3F58063C3F8002595
:10340000B6E72268936923F040039361B8E7226826
:10341000936943F480439361BAE72268936923F484
:1034200080539361BCE72268936943F0040393617E
:10343000A3695A1EE369013B1B0243EA4263226A05
:10344000013A13436269013A216843EA0243CB61BE
:10345000A368B3F5407F16D02268D2F8C030E16B84
:103460000B43C2F8C0302046FFF704FF0020A065E0
:103470002066012384F85C3052E72268936943F0A8
:1034800020039361D4E7A36A013BE26A013A43EA6D
:103490000223226B013A43EA0213626A013A21686D
:1034A00043EA0243CB60D7E7012070470064004045
:1034B000F0B583B0002362E085685E000324B44069
:1034C00025EA0405CC68B4402C438460446824EAAF
:1034D0000C0C4C68C4F300149C4044EA0C04446097
:1034E0005EE0DD08083550F8256003F007044FEA78
:1034F000840C0F2404FA0CF426EA040E0C6904FA76
:103500000CF444EA0E0440F8254060E0052400E095
:10351000002404FA0EF42C430CF1020C554D45F82E
:103520002C40554CA568D44325EA02064F6817F491
:10353000801F01D042EA05064F4DAE60ED6804EAF7
:1035400005064F6817F4001F01D042EA05064A4DF0
:10355000EE606D6804EA05064F6817F4003F01D07D
:1035600042EA0506444D6E602D682C404E6816F404
:10357000803F01D042EA05043F4A146001330A68E3
:1035800032FA03F474D04FF0010C0CFA03FC1CEA7D
:103590000202F3D04C6804F00304013C012C8BD9E7
:1035A0004C6804F00304032C0CD0C4685D004FF099
:1035B000030C0CFA05FC24EA0C0C8C68AC4044EAC1
:1035C0000C04C4604C6804F00304022C89D0046825
:1035D0004FEA430E4FF0030C0CFA0EFC24EA0C0CDD
:1035E0004C6804F0030404FA0EF444EA0C0404608A
:1035F0004C6814F4403FC1D0204C256E45F00105C5
:103600002566246E04F001040194019C4FEA930C9A
:103610000CF10205174C54F8255003F003044FEA4F
:10362000840E0F2404FA0EF425EA0405B0F1904F3D
:103630003FF46EAF124CA04212D004F58064A04259
:1036400010D004F58064A0420ED004F58064A0423E
:103650000CD004F58064A0423FF458AF062458E72C
:10366000012456E7022454E7032452E7042450E7D8
:1036700003B0F0BD00000140000401400010024012
:10368000000400480369194201D00120704700205E
:1036900070470AB18161704781627047436901EAEE
:1036A000030221EA030141EA024181617047036894
:1036B0009A6912F0020F01D000229A6203689A6997
:1036C00012F0010F03D19A6942F001029A6170472A
:1036D00010B4019CC1F3090141EA0241194321439D
:1036E00021F0004102685368640D04F4806444F0E2
:1036F0007F7444F4583444F47F7444F0030423EAA0
:103700000404214351605DF8044B70472DE9F041FA
:10371000044603689F6917F010074CD00E46904688
:103720001022DA6100252368986910F0200F3BD140
:10373000002D39D1B6F1FF3FF5D0FEF77DFFA0EBAC
:103740000800B04201D8002EEDD121684B6803F487
:10375000804394F84220D2B2886910F4004F02D01E
:103760000BB9202A18D123689B6913F0200FDAD1F6
:10377000FEF762FFA0EB08001928F4D9636C43F050
:1037800020036364202384F84130002384F842300E
:1037900084F840300125E6E74B6843F480434B60F2
:1037A000FEF74AFF8046DEE7002D40D12022DA6195
:1037B0000427012500E000252268936913F4807F27
:1037C00005D047F001074FF48071D161012513F452
:1037D000806F06D047F0080722684FF48061D161FE
:1037E000012513F4007F24D047F0020723684FF42B
:1037F0000072DA6101252046FFF759FF22685368FD
:1038000023F0FF7323F48B3323F4FF7323F00103BE
:103810005360636C1F436764202384F841300023A6
:1038200084F8423084F840302846BDE8F08104270F
:10383000C2E7002DF8D0DEE770B504460D46164607
:1038400023689B6913F0020F1DD13246294620469A
:10385000FFF75CFFC8B9B5F1FF3FF1D0FEF7ECFE12
:10386000801BA84201D8002DEAD1636C43F02003ED
:103870006364202384F84130002384F8423084F8C4
:103880004030012000E0002070BD0120FCE72DE960
:10389000F0410646884617461D463468A46938EA52
:1038A00004030CBF4FF0010C4FF0000CBC4518D1C5
:1038B000B5F1FF3FF1D0FEF7BFFE069BC01AA8424C
:1038C00001D8002DE9D1736C43F0200373642023E9
:1038D00086F84130002386F8423086F840300120D7
:1038E00000E00020BDE8F0812DE9F04182B00446FF
:1038F00090461D46089E099F184B00930023EAB28C
:10390000FFF7E6FE3A4631462046FFF795FFF8B945
:10391000012D0ED123685FFA88F29A620097334630
:10392000002240212046FFF7B2FFA8B902B0BDE84F
:10393000F08123684FEA18229A623A4631462046BF
:10394000FFF77AFF30B923685FFA88F29A62E5E7F9
:103950000120EBE70120E9E70120E7E700200080F4
:1039600070B505460C4616462B689B6913F0200F70
:103970001AD1324621462846FFF7C8FEB0B9FEF7F5
:103980005BFE801BA04201D8002CEDD16B6C43F094
:1039900020036B64202385F84130002385F84230F2
:1039A00085F84030012070BD0020FCE70120FAE7D7
:1039B000002859D010B5044690F84130002B43D070
:1039C000242384F841302268136823F00103136034
:1039D0006368226823F0706313612268936823F49C
:1039E00000439360E368012B33D0A368226843F45B
:1039F00004439360E368022B31D02268536843F09C
:103A0000007343F4004353602268D36823F40043F7
:103A1000D360236962691343A169226843EA0123E1
:103A2000D360E369216A22680B431360226813683C
:103A300043F00103136000206064202384F84130C8
:103A4000206384F8420010BD80F84030FEF77CFA15
:103A5000B6E7A368226843F400439360CAE723688B
:103A60004FF400625A60C8E7012070472DE9F04F1B
:103A700083B00E46BDF834A00E9D90F84110C9B237
:103A8000202940F0BC800446904699460C9BCBB15F
:103A9000BAF1000F16D090F84030012B00F0B3803F
:103AA0004FF0010B80F840B0FEF7C6FD07460090CE
:103AB00019235A464FF400412046FFF7E8FE30B183
:103AC00001209DE04FF400736364012098E02223FD
:103AD00084F84130402384F84230002363640C9A18
:103AE0006262A4F82AA06363019700954B464246A0
:103AF00031462046FFF7F8FE70B9638D9BB2FF2B6D
:103B00000FD9FF222285444B00934FF0807331463A
:103B10002046FFF7DDFD21E0002384F840305846C1
:103B20006EE0628D92B222853B4B00934FF00073A2
:103B3000D2B231462046FFF7CBFD0FE0628D92B244
:103B40002285002300934FF00073D2B23146204605
:103B5000FFF7BEFD638D9BB2002B34D000972B4640
:103B6000002204212046FFF792FE00284DD1236851
:103B70005A6A636A1A70636A01336362228D013A7A
:103B800092B22285638D9BB2013B9BB26385638DAC
:103B90009BB2002BDED0002ADCD100972B4680217F
:103BA0002046FFF774FE90BB638D9BB2FF2BC5D9F7
:103BB000FF222285002300934FF080733146204678
:103BC000FFF786FDC6E73A4629462046FFF7C8FEBE
:103BD000F8B923682022DA6121684B6823F0FF736B
:103BE00023F48B3323F4FF7323F001034B6084F839
:103BF0004120002384F8423084F8403000E0022065
:103C000003B0BDE8F08F0220FAE70120F8E70120B9
:103C1000F6E70120F4E700BF0024008090F841306F
:103C2000DBB2202B24D190F84030012B22D001238D
:103C300080F84030242380F841300268136823F074
:103C4000010313600268136823F480531360026851
:103C50001368194311600268136843F0010313608D
:103C6000202380F84130002380F840301846704708
:103C7000022070470220704790F84130DBB2202BC1
:103C800022D190F84030012B20D0012380F8403021
:103C9000242380F841300268136823F00103136085
:103CA0000268136823F4706343EA0121116002681B
:103CB000136843F001031360202380F84130002390
:103CC00080F8403018467047022070470220704745
:103CD000002836D13E4B1B6803F4C063B3F5806FF8
:103CE00008D03B4AD2F8803023F48073C2F8803089
:103CF00000207047364AD2F8803023F48073C2F82F
:103D00008030136823F4C06343F400731360314BB5
:103D10001B68322202FB03F32F4AA2FB03239B0CF6
:103D2000013300E0013B2A4A526912F4806F01D04E
:103D3000002BF7D1264B5B6913F4806F44D1002030
:103D40007047B0F5007F08D0214A136823F4C063A0
:103D500043F480631360002070471D4B1B6803F41D
:103D6000C063B3F5806F08D0194AD2F8803043F4AD
:103D70008073C2F8803000207047154AD2F8803036
:103D800043F48073C2F88030136823F4C06343F4B3
:103D9000007313600F4B1B68322202FB03F30E4AC1
:103DA000A2FB03239B0C013300E0013B084A52694C
:103DB00012F4806F01D0002BF7D1054B5B6913F42F
:103DC000806F03D1002070470320704703207047A5
:103DD000007000400400002083DE1B43024A936809
:103DE00043F480439360704700700040124BDA68E0
:103DF00002F00302D868C0F30310431C032A11D059
:103E00000E48B0FBF3F00C4BDB68C3F3062303FB57
:103E100000F0094BDB68C3F3416301335B00B0FB87
:103E2000F3F070470648B0FBF3F0034BDB68C3F3D5
:103E3000062303FB00F0ECE7001002400024F4002E
:103E400000127A00002800F0548270B582B0044657
:103E5000036813F0010F37D0A44A936803F00C03F2
:103E6000D26802F003020C2B23D0082B23D0636806
:103E7000B3F5803F4ED0B3F5A02F51D09B4B1A68BD
:103E800022F480321A601A6822F480221A60636871
:103E9000002B52D0FEF7D0FB0546944B1B6813F461
:103EA000003F11D1FEF7C8FB401B6428F5D9032061
:103EB00028E2032AD9D18D4B1B6813F4003F03D0AD
:103EC0006368002B00F01782236813F0020F5DD0A7
:103ED000864A936803F00C03D26802F003020C2BAD
:103EE0003AD0042B3AD0E368002B75D07F4A136890
:103EF00043F480731360FEF79FFB05467B4B1B6802
:103F000013F4806F5FD1FEF797FB401B0228F5D9B1
:103F10000320F7E1754A136843F480331360B6E772
:103F200003F18043A3F53C331A6842F480221A60FF
:103F30001A6842F480321A60A9E7FEF77DFB054655
:103F40006A4B1B6813F4003FBED0FEF775FB401BA5
:103F50006428F5D90320D5E1022AC2D1634B1B683E
:103F600013F4806F03D0E368002B00F0C6815F4A32
:103F7000536823F0FE43216943EA016353605C4BBD
:103F80001868FEF715FB002840F0B981236813F08C
:103F9000080F4CD063699BB3544AD2F8943043F075
:103FA0000103C2F89430FEF747FB05464F4BD3F8A8
:103FB000943013F0020F3AD1FEF73EFB401B02286B
:103FC000F4D903209EE1494A536823F0FE43216956
:103FD00043EA01635360D9E7444A136823F48073CA
:103FE0001360FEF729FB0546404B1B6813F4806FF6
:103FF000CCD0FEF721FB401B0228F5D9032081E13C
:104000003A4AD2F8943023F00103C2F89430FEF714
:1040100013FB0546354BD3F8943013F0020F06D04E
:10402000FEF70AFB401B0228F4D903206AE123684B
:1040300013F0040F00F081802C4B9B6D13F0805F18
:1040400036D12A4B9A6D42F080529A659B6D03F0EF
:1040500080530193019B0125264B1B6813F4807F3D
:1040600028D0A368012B39D0052B45D01F4BD3F89E
:10407000902022F00102C3F89020D3F8902022F083
:104080000402C3F89020A368002B43D0FEF7D4FAB3
:104090000646164BD3F8903013F0020F4CD1FEF7C2
:1040A000CBFA801B41F288339842F2D9032029E1F0
:1040B0000025D1E70F4A136843F480731360FEF7BD
:1040C000BBFA06460B4B1B6813F4807FC9D1FEF781
:1040D000B3FA801B0228F5D9032013E1034AD2F872
:1040E000903043F00103C2F89030CCE7001002405A
:1040F0000C000020007000408A4BD3F8902042F062
:104100000402C3F89020D3F8902042F00102C3F8D3
:104110009020B8E7FEF790FA0646824BD3F890302D
:1041200013F0020F08D0FEF787FA801B41F28833A4
:104130009842F2D90320E5E0E5B9236813F0200F97
:1041400035D0A369E3B1774AD2F8983043F0010340
:10415000C2F89830FEF770FA0546724BD3F89830E3
:1041600013F0020F23D1FEF767FA401B0228F4D99F
:104170000320C7E06B4A936D23F080539365DCE71F
:10418000684AD2F8983023F00103C2F89830FEF75D
:1041900053FA0546634BD3F8983013F0020F06D05C
:1041A000FEF74AFA401B0228F4D90320AAE0E3698B
:1041B000002B00F0A6805B4A926802F00C020C2AE9
:1041C00069D0022B1DD0574B1A6822F080721A60FA
:1041D000DA6822F00302DA60DA6822F0887222F4E8
:1041E0008032DA60FEF728FA04464E4B1B6813F063
:1041F000007F4ED0FEF720FA001B0228F5D90320DD
:1042000080E0484A136823F080731360FEF714FAC5
:104210000546444B1B6813F0007F06D0FEF70CFAEE
:10422000401B0228F5D903206CE03E4AD3683E4982
:104230001940236A606A013843EA0013A06A43EA1E
:104240000023206B4008013843EA4053606B40086C
:10425000013843EA4063E06A43EAC0630B43D3603A
:10426000136843F080731360D36843F08073D360A6
:10427000FEF7E2F904462B4B1B6813F0007F06D1D2
:10428000FEF7DAF9001B0228F5D903203AE00020F6
:1042900038E0002036E0012B36D0224BDB6803F0FB
:1042A0000301226A914231D103F0F002616A0139BF
:1042B000B2EB011F2CD103F4FE42A16AB2EB012F35
:1042C00028D103F07842E16AB2EBC16F24D103F444
:1042D000C001226B5208013AB1EB425F1ED103F0DC
:1042E000C063626B5208013AB3EB426F18D10020F1
:1042F00008E001207047012004E0012002E00120D5
:1043000000E0002002B070BD0120FBE70120F9E7CA
:104310000120F7E70120F5E70120F3E70120F1E7AD
:104320000120EFE7001002400C809F011E4B9B68AC
:1043300003F00C03042B33D01B4B9B6803F00C03DE
:10434000082B2FD0184B9B6803F00C030C2B01D0CB
:1043500000207047144BDA6802F00302D868C0F3FB
:104360000310431C032A11D01048B0FBF3F00E4B8E
:10437000DB68C3F3062303FB00F00B4BDB68C3F3DE
:10438000416301335B00B0FBF3F070470848B0FBBA
:10439000F3F0054BDB68C3F3062303FB00F0ECE707
:1043A0000248704702487047001002400024F400A1
:1043B00000127A00002800F0E680F8B50C460546A9
:1043C000744B1B6803F00F038B420BD2714A1368C6
:1043D00023F00F030B431360136803F00F038B42AA
:1043E00040F0D3802E6816F001065FD06B68032B77
:1043F0002FD0022B4DD0684B1B6813F4806F00F058
:10440000C680FFF793FF654B98424DD9624A936887
:1044100023F0F00343F08003936080265E4A9368A4
:1044200023F0030369680B439360FEF705F9074621
:10443000594B9B6803F00C036A68B3EB820F35D0CD
:10444000FEF7FAF8C01B41F288339842F0D90320F6
:1044500078E0514B1B6813F0007F01D1012071E01F
:10446000FFF7C4FC4D4B98421AD94B4B9B6813F095
:10447000F00F05D02E6816F00206CFD0AB688BB9CE
:10448000454A936823F0F00343F08003936080264D
:10449000C4E7414B1B6813F4003FB2D1012051E047
:1044A0000026BBE70026B9E70026B7E72B6813F024
:1044B000020F48D013F0040F04D0374A936843F436
:1044C000E06393602B6813F0080F06D0324A9368BC
:1044D00023F47C5343F4E06393602F4A936823F002
:1044E000F003A9680B4393602A4B1B6803F00F038A
:1044F000A34230D82B6813F0040F06D0264A9368E5
:1045000023F4E063E9680B4393602B6813F0080F12
:1045100007D0214A936823F46053296943EAC10311
:104520009360FFF703FF1C4B9B68C3F303131C4A04
:10453000D35C03F01F03D8401A4B18601A4B18685D
:10454000FEF736F8F8BD802ECED1134A936823F0DB
:10455000F0039360C8E70F4A136823F00F03234367
:104560001360FEF769F806460A4B1B6803F00F0359
:10457000A342BFD0FEF760F8801B41F28833984217
:10458000F2D90320DEE7012070470120DAE701209D
:10459000D8E700BF002002400010024000B4C4046D
:1045A000FC110108040000200C000020014B1868D9
:1045B000704700BF0400002008B5FFF7F7FF054B68
:1045C0009B68C3F30223044AD35C03F01F03D84063
:1045D00008BD00BF001002400C12010808B5FFF72B
:1045E000E5FF054B9B68C3F3C223044AD35C03F089
:1045F0001F03D84008BD00BF001002400C12010884
:10460000F0B583B00446036813F4002F69D0AE4BB5
:104610009B6D13F0805F1ED1AB4B9A6D42F08052C0
:104620009A659B6D03F080530193019B0126A74A75
:10463000136843F480731360FDF7FEFF0546A34B38
:104640001B6813F4807F08D1FDF7F6FF401B02289A
:10465000F5D9032502E00026E9E7002545BB9A4B82
:10466000D3F8903013F4407315D0226C9A4212D0D4
:10467000954AD2F8903023F44073D2F8901041F468
:104680008031C2F89010D2F8901021F48031C2F835
:104690009010C2F8903013F0010F10D145B98A4A3A
:1046A000D2F8903023F44073216C0B43C2F8903061
:1046B000C6B1854A936D23F08053936512E0FDF7F0
:1046C000BBFF0746804BD3F8903013F0020FE5D1C3
:1046D000FDF7B2FFC01B41F288339842F2D903259F
:1046E000DCE70025236813F0010F08D0764AD2F8E2
:1046F000883023F0030361680B43C2F888302368D5
:1047000013F0020F08D0704AD2F8883023F00C035F
:10471000A1680B43C2F88830236813F0040F08D057
:10472000694AD2F8883023F03003E1680B43C2F8BD
:104730008830236813F0080F08D0634AD2F8883015
:1047400023F0C00321690B43C2F88830236813F0BB
:10475000200F08D05C4AD2F8883023F440636169A6
:104760000B43C2F88830236813F0400F08D0564A34
:10477000D2F8883023F44053A1690B43C2F8883043
:10478000236813F0800F08D04F4AD2F8883023F402
:104790004043E1690B43C2F88830236813F4807FFB
:1047A00008D0494AD2F8883023F44033216A0B43B9
:1047B000C2F88830236813F4007F08D0424AD2F848
:1047C000883023F44023616A0B43C2F888302368A1
:1047D00013F4806F0CD03C4AD2F8883023F4401395
:1047E000A16A0B43C2F88830A36AB3F5801F57D083
:1047F000236813F4006F0CD0334AD2F8883023F4C6
:104800004003E16A0B43C2F88830E36AB3F5800FD6
:104810004BD0236813F4805F0CD02B4AD2F8883039
:1048200023F04073216B0B43C2F88830236BB3F144
:10483000807F3FD0236813F4005F0CD0224AD2F867
:10484000883023F04063616B0B43C2F88830636BA0
:10485000B3F1006F33D0236813F4804F0CD01A4AA1
:10486000D2F8883023F04063A16B0B43C2F8883044
:10487000A36BB3F1006F2BD0236813F4004F0CD05F
:10488000114AD2F8883023F04053E16B0B43C2F851
:104890008830E36BB3F1805F1FD0284603B0F0BDD2
:1048A000D36843F48013D360A2E7D36843F4801342
:1048B000D360AEE7D36843F48013D360BAE7D3681C
:1048C00043F48013D360C6E700100240007000403C
:1048D000D36843F48013D360CEE7D36843F48033C6
:1048E000D360DAE700286FD010B50446436A33B9C5
:1048F0004368B3F5827F05D00023C36102E0002343
:10490000036143610023A36294F85D30002B52D011
:10491000022384F85D302268136823F0400313609B
:10492000E368B3F5E06F4CD90022B3F5706F04D0A3
:10493000B3F5E06F01D00023A362636803F48273D0
:10494000A16801F404410B43216901F002010B430A
:10495000616901F001010B43A16901F400710B438E
:10496000E16901F038010B43216A01F080010B433A
:10497000A16A01F4005120680B430360638B03F0CC
:104980000403616A01F010010B43616B01F008013F
:104990000B43E16801F470610B43216813434B60E2
:1049A0002268D36923F40063D361002020660123C9
:1049B00084F85D3010BD84F85C302046FDF74EFB76
:1049C000A6E74FF48052B0E70120704730B4036A85
:1049D00023F001030362036A4568826922F480328E
:1049E00022F073020C68224323F002038C682343F5
:1049F0001D4CA0420FD004F50064A0420BD004F57A
:104A00004064A04207D004F58064A04203D004F5BE
:104A10008064A04205D123F00803CC68234323F02F
:104A20000403114CA0420FD004F50064A0420BD047
:104A300004F54064A04207D004F58064A04203D08E
:104A400004F58064A04207D125F4407C4C6944EA17
:104A50000C0C8D6945EA0C05456082614A68426329
:104A6000036230BC704700BF002C014030B4036AC1
:104A700023F480730362036A4468C26922F48032BB
:104A800022F073020D682A4323F400738D6843EA11
:104A90000523184DA84203D005F50065A84206D1AC
:104AA00023F40063CD6843EA052323F48063114DAA
:104AB000A8420FD005F50065A8420BD005F540656A
:104AC000A84207D005F58065A84203D005F58065AA
:104AD000A84207D124F4405C4C694CEA041C8C6960
:104AE0004CEA04144460C2614A68C263036230BC89
:104AF000704700BF002C014030B4036A23F4805398
:104B00000362036A4468C26922F0807222F4E642BA
:104B10000D6842EA052223F400538D6843EA053309
:104B2000174DA84203D005F50065A84206D123F42D
:104B30000043CD6843EA053323F48043104DA84277
:104B40000FD005F50065A8420BD005F54065A842D9
:104B500007D005F58065A84203D005F58065A84219
:104B600007D124F4404C4C694CEA841C8C694CEA13
:104B700084144460C2614A680264036230BC7047B6
:104B8000002C014030B4036A23F480330362036ACB
:104B90004468026D22F4803222F070020D682A43CC
:104BA00023F400338D6843EA05430F4DA8420FD02C
:104BB00005F50065A8420BD005F54065A84207D071
:104BC00005F58065A84203D005F58065A84204D1AB
:104BD00024F480344D6944EA0524446002654A683F
:104BE0008264036230BC7047002C014030B4036A19
:104BF00023F480130362036A4468026D22F080721A
:104C000022F4E0420D6842EA052223F400138D6885
:104C100043EA05530F4DA8420FD005F50065A842A1
:104C20000BD005F54065A84207D005F58065A84280
:104C300003D005F58065A84204D124F480244D6991
:104C400044EA8524446002654A68C264036230BC59
:104C5000704700BF002C01407047000003682C4AD9
:104C600090420ED0B0F1804F0BD0A2F5943290421A
:104C700007D002F58062904203D002F5963290424E
:104C800003D123F070034A681343214A90421AD09B
:104C9000B0F1804F17D0A2F59432904213D002F5B4
:104CA000806290420FD002F5963290420BD002F50E
:104CB0004062904207D002F58062904203D002F534
:104CC0008062904203D123F44073CA68134323F0F7
:104CD00080034A69134303608B68C3620B68836275
:104CE0000B4B98420FD003F5006398420BD003F5AD
:104CF0004063984207D003F58063984203D003F5E0
:104D00008063984201D10B690363012343617047BB
:104D1000002C014060B310B5044690F83D3013B349
:104D2000022384F83D30214651F8040BFFF796FF2B
:104D3000012384F8483084F83E3084F83F3084F80A
:104D4000403084F8413084F8423084F8433084F8AD
:104D5000443084F8453084F8463084F8473084F88D
:104D60003D30002010BD80F83C30FFF775FFD7E7DD
:104D70000120704760B310B5044690F83D3013B37E
:104D8000022384F83D30214651F8040BFFF766FFFB
:104D9000012384F8483084F83E3084F83F3084F8AA
:104DA000403084F8413084F8423084F8433084F84D
:104DB000443084F8453084F8463084F8473084F82D
:104DC0003D30002010BD80F83C30FDF797F9D7E763
:104DD00001207047002856D0F8B50D46044690F8DB
:104DE0003D30002B4AD0022384F83D30226893687E
:104DF00023F4A03323F007039360214651F8040BFA
:104E0000FFF72CFF21688A688B690E6A28681043B7
:104E100023F4407C2CF0030CAA68AB6942EA03231C
:104E200043EA0C0323F47C4323F0FC03EA69EF68B4
:104E300047EA022C4CEA030C2A6A13032A6943EA64
:104E4000021343EA0C0326F0AA066A686D6942EA77
:104E500005123243886021688B6123681A6201233E
:104E600084F8483084F83E3084F83F3084F8443089
:104E700084F8453084F83D300020F8BD80F83C309F
:104E8000FDF772F9AFE701207047000030B4036A04
:104E900023F010030362036A4468826922F080727F
:104EA00022F4E6420D6842EA052223F020038D68D1
:104EB00043EA0513174DA84203D005F50065A84243
:104EC00006D123F08003CD6843EA051323F04003A5
:104ED000104DA8420FD005F50065A8420BD005F58E
:104EE0004065A84207D005F58065A84203D005F5C6
:104EF0008065A84207D124F4406C4C694CEA840CCC
:104F00008C694CEA8404446082614A68826303626B
:104F100030BC7047002C014090F83C30012B36D05B
:104F200010B50446012380F83C30142A2AD8DFE863
:104F300002F00B29292910292929152929291A299B
:104F400029291F29292924000068FFF73FFD002097
:104F500019E00068FFF79AFF002014E00068FFF7EF
:104F600085FD00200FE00068FFF7C6FD00200AE085
:104F70000068FFF707FE002005E00068FFF736FE37
:104F8000002000E00120002384F83C3010BD022006
:104F9000704738B590F83C30012B00F095800446FE
:104FA0000D46012380F83C30142A00F28880DFE8A7
:104FB00002F00B8686861F8686863486868648861D
:104FC00086865D86868671000068FFF7FFFC226892
:104FD000936943F0080393612268936923F0040303
:104FE00093612268936929690B439361002067E00C
:104FF0000068FFF74BFF2268936943F400639361F5
:105000002268936923F48063936122689369296914
:1050100043EA01239361002052E00068FFF726FD78
:105020002268D36943F00803D3612268D36923F06F
:105030000403D3612268D36929690B43D36100203B
:105040003EE00068FFF758FD2268D36943F400632F
:10505000D3612268D36923F48063D3612268D36962
:10506000296943EA0123D361002029E00068FFF7A2
:1050700089FD2268136D43F0080313652268136DE0
:1050800023F0040313652268136D29690B4313652C
:10509000002015E00068FFF7A9FD2268136D43F4B6
:1050A000006313652268136D23F48063136522681F
:1050B000136D296943EA01231365002000E00120F4
:1050C000002384F83C3038BD0220FCE701F01F01CA
:1050D000012303FA01FC036A23EA0C030362036A57
:1050E00002FA01F10B4303627047000010B5044659
:1050F0000846002947D194F83E30DBB2013B18BF87
:105100000123002B40F09480002867D1022384F80B
:105110003E30012201462068FFF7D8FF2368474A46
:1051200093420FD002F5006293420BD002F5406229
:10513000934207D002F58062934203D002F5806269
:10514000934203D15A6C42F400425A6423683B4AAA
:1051500093425FD0B3F1804F5CD0A2F5943293427A
:1051600058D002F58062934254D002F596329342B1
:1051700050D002F5406293424CD01A6842F00102CE
:105180001A60002055E004290CD0082911D00C2900
:1051900016D010291BD094F84330DBB2013B18BF66
:1051A0000123AEE794F83F30DBB2013B18BF012387
:1051B000A7E794F84030DBB2013B18BF0123A0E71A
:1051C00094F84130DBB2013B18BF012399E794F812
:1051D0004230DBB2013B18BF012392E7042809D01B
:1051E00008280BD00C280DD010280FD0022384F8EB
:1051F00043308EE7022384F83F308AE7022384F8A5
:10520000403086E7022384F8413082E7022384F8A5
:1052100042307EE799680A4A0A40062A0AD0B2F567
:10522000803F09D01A6842F001021A60002000E0B5
:10523000012010BD0020FCE70020FAE7002C01400F
:105240000700010090F83C30012B40D030B401231E
:1052500080F83C30022380F83D300268536894683F
:105260001C4DAA4203D005F50065AA4203D123F4E0
:1052700070034D682B4323F0007323F070030D6817
:105280002B4353600368134A934212D0B3F1804F0B
:105290000FD0A2F5943293420BD002F58062934274
:1052A00007D002F59632934203D002F54062934252
:1052B00004D124F080048A6814439C60012380F8A0
:1052C0003D30002380F83C30184630BC7047022047
:1052D000704700BF002C014090F83C30012B55D0A6
:1052E00010B4012380F83C30CB6823F440738A6803
:1052F000134323F480634A68134323F400630A686A
:10530000134323F480530A69134323F400534A6977
:10531000134323F480430A6B134323F470238A69F5
:1053200043EA024302681A4CA24203D004F5006427
:10533000A24203D123F08053CC692343144CA242F0
:105340000BD004F50064A24207D05364002380F818
:105350003C3018465DF8044B704723F470038C6AA8
:1053600043EA045323F080730C6A234323F0007351
:105370004C6A2343064CA24203D004F50064A242C7
:10538000E3D123F00053C96A0B43DEE702207047E4
:10539000002C0140026852E8003F23F4907342E879
:1053A00000310029F6D1026802F1080353E8003FFA
:1053B00023F0805323F00103083242E80031002932
:1053C000F1D1C36E012B06D02023C0F88830002312
:1053D000C36603677047026852E8003F23F010037A
:1053E00042E800310029F6D1EEE7704708B50268BF
:1053F00052E8003F23F0400342E800310029F6D193
:105400002023C0F8843000234367FFF7EEFF08BD78
:10541000704708B5806A0023A0F85E30A0F85630C7
:10542000FFF7F6FF08BD704770B504460168CB6909
:1054300008688D6840F60F021A4008D113F0200F5B
:1054400005D010F0200F34D115F0805F31D12AB192
:10545000954A2A4033D1954E304230D1E26E012A2E
:1054600000F0C38013F4801F03D015F4800F40F0C8
:105470005B8113F0800F07D010F0800F40F05B814C
:1054800015F4000F40F0578113F0400F03D010F0D7
:10549000400F40F0578113F4000F03D010F0804FFD
:1054A00040F0548113F0807F02D00028C0F2528176
:1054B00070BD236F002BFBD020469847F8E713F010
:1054C000010F09D010F4807F06D001260E62D4F8B7
:1054D0008C103143C4F88C1013F0020F0BD015F070
:1054E000010F08D0216802260E62D4F88C1041F01A
:1054F0000401C4F88C1013F0040F0BD015F0010F49
:1055000008D0216804260E62D4F88C1041F0020104
:10551000C4F88C1013F0080F0BD010F0200F00D13E
:105520003AB1226808211162D4F88C200A43C4F8E9
:105530008C2013F4006F0CD010F0806F09D022681B
:105540004FF400611162D4F88C2042F02002C4F8BC
:105550008C20D4F88C20002AAAD013F0200F09D078
:1055600010F0200F02D115F0805F03D0236F0BB134
:1055700020469847D4F88C2023689B6813F0400F8E
:1055800002D112F0280F29D02046FFF703FF23682D
:105590009B6813F0400F1DD0226802F1080353E806
:1055A000003F23F04003083242E800310029F3D1E4
:1055B000E36F5BB13E4A9A63E06FFDF7B9FD0028E7
:1055C0003FF476AFE06F836B984771E72046FFF7B3
:1055D0001FFF6DE72046FFF71BFF69E72046FFF737
:1055E00017FF0023C4F88C3062E713F0100F3FF46C
:1055F00039AF10F0100F3FF435AF10230B62236862
:105600009B6813F0400F55D0E26F13685B689BB244
:10561000002B3FF44DAFB4F85C1099427FF648AFD1
:10562000A4F85E3013681B6813F0200F31D1226894
:1056300052E8003F23F4807342E800310029F6D19C
:10564000226802F1080353E8003F23F00103083207
:1056500042E800310029F3D1226802F1080353E83F
:10566000003F23F04003083242E800310029F3D123
:105670002023C4F888300023E366226852E8003F04
:1056800023F0100342E800310029F6D1E06FFDF766
:1056900019FDB4F85C10B4F85E309BB2C91A89B237
:1056A0002046FFF7C0FE03E70100001020010004C0
:1056B00013540008B4F85C10B4F85E309BB2C91AF9
:1056C00089B2B4F85E309BB2002B3FF4F1AE0029F2
:1056D0003FF4EEAE226852E8003F23F4907342E8B4
:1056E00000300028F6D1226802F1080353E8003F99
:1056F00023F0805323F00103083242E800300028F1
:10570000F1D12023C4F888300023E36623672268A0
:1057100052E8003F23F0100342E800300028F6D1A1
:105720002046FFF780FEC3E64FF480130B6220464D
:1057300000F0B0FEBCE6636F002B3FF4B9AE20462C
:105740009847B5E62046FFF751FEB1E6204600F047
:10575000A3FEADE6204600F09EFEA9E608B5B0F82F
:105760006030D0F88820222A05D00268936943F07F
:105770000803936108BD0268516ADBB2826D0B4079
:105780001370836D01338365B0F85E309BB2013BCB
:105790009BB2A0F85E30B0F85E309BB2002BE9D12E
:1057A000026852E8003F23F4907342E80031002978
:1057B000F6D1026802F1080353E8003F23F0010329
:1057C000083242E800310029F3D12023C0F88830A4
:1057D00000230367C36E012B16D10023C366026842
:1057E00052E8003F23F0100342E800310029F6D1CF
:1057F0000368DA6912F0100F01D010221A62B0F8B3
:105800005C10FFF710FEB5E7FBF7D2FEB2E708B574
:10581000B0F86020D0F88830222B05D00268936958
:1058200043F00803936108BD03685B6A816D134010
:105830000B80836D02338365B0F85E309BB2013B11
:105840009BB2A0F85E30B0F85E309BB2002BEAD17C
:10585000026852E8003F23F4907342E800310029C7
:10586000F6D1026802F1080353E8003F23F0010378
:10587000083242E800310029F3D12023C0F88830F3
:1058800000230367C36E012B16D10023C366026891
:1058900052E8003F23F0100342E800310029F6D11E
:1058A0000368DA6912F0100F01D010221A62B0F802
:1058B0005C10FFF7B8FDB6E7FBF77AFEB3E7000030
:1058C0002DE9F843B0F860600368DD69D3F8009013
:1058D000D3F80880D0F88820222A05D09A6942F0AF
:1058E00008029A61BDE8F8830446B0F8687008E0E1
:1058F000D4F88C30002B4CD1B4F85E309BB2002B26
:105900004ED0002F00F0878015F0200F00F083802C
:105910002368596AF3B2A26D0B401370A36D013373
:10592000A365B4F85E309BB2013B9BB2A4F85E3035
:105930002368DD6915F0070FDED015F0010F09D0DF
:1059400019F4807F06D001221A62D4F88C301343F8
:10595000C4F88C3015F0020F0BD018F0010F08D0EE
:10596000236802221A62D4F88C3043F00403C4F88E
:105970008C3015F0040FBBD018F0010FB8D023689D
:1059800004221A62D4F88C3043F00203C4F88C303D
:10599000AEE72046FFF73CFD0023C4F88C30ABE7B0
:1059A000226852E8003F23F4807342E80031002966
:1059B000F6D1226802F1080353E8003F23F0805338
:1059C00023F00103083242E800310029F1D12023FD
:1059D000C4F8883000232367E36E012B03D02046F0
:1059E000FBF7E6FD8DE70023E366226852E8003FFF
:1059F00023F0100342E800310029F6D12368DA6968
:105A000012F0100F01D010221A62B4F85C10204678
:105A1000FFF709FD75E7B4F85E309BB2002B3FF449
:105A200061AFB4F868209A427FF65CAF226802F159
:105A3000080353E8003F23F08053083242E8003166
:105A40000029F3D1054B2367226852E8003F43F059
:105A5000200342E800310029F6D143E75D570008F2
:105A60002DE9F843B0F860600368DD69D3F8009071
:105A7000D3F80880D0F88820222A05D09A6942F00D
:105A800008029A61BDE8F8830446B0F8687008E03F
:105A9000D4F88C30002B4BD1B4F85E309BB2002B85
:105AA0004DD0002F00F0868015F0200F00F082808E
:105AB00023685B6AA26D33401380A36D0233A36534
:105AC000B4F85E309BB2013B9BB2A4F85E30236811
:105AD000DD6915F0070FDFD015F0010F09D019F4BB
:105AE000807F06D001221A62D4F88C301343C4F8A8
:105AF0008C3015F0020F0BD018F0010F08D023687E
