:020000040800F2
:10000000008000209D2A0008592900085B2900086B
:100010005D2900085F290008612900080000000030
:1000200000000000000000000000000061730008F4
:100030006329000800000000017400086529000819
:10004000ED2A0008ED2A0008ED2A0008ED2A000834
:10005000ED2A0008ED2A0008ED2A0008ED2A000824
:10006000ED2A0008ED2A0008ED2A00087D29000885
:100070008D290008ED2A00089D290008ED2A0008B6
:10008000ED2A000800000000ED2A0008ED2A000813
:10009000ED2A0008ED2A0008ED2A0008ED2A0008E4
:1000A000ED2A0008ED2A0008ED2A0008ED2A0008D4
:1000B000ED2A0008ED2A0008ED2A0008ED2A0008C4
:1000C000ED2A0008ED2A0008ED2A0008ED2A0008B4
:1000D000ED2A0008AD290008ED2A0008BD29000816
:1000E000ED2A0008ED2A0008ED2A0008ED2A000894
:1000F000ED2A0008ED2A0008ED2A000800000000A3
:1001000000000000ED2A000800000000ED2A0008B1
:10011000ED2A000800000000ED2A0008ED2A000882
:10012000ED2A0008ED2A0008ED2A0008ED2A000853
:10013000ED2A00080000000000000000ED2A000881
:10014000ED2A0008ED2A0008000000000000000071
:10015000000000000000000000000000000000009F
:10016000000000000000000000000000ED2A000870
:10017000ED2A000800000000000000000000000060
:1001800000000000ED2A0008000000000000000050
:10019000000000000000000000000000000000005F
:1001A0000000000000000000ED2A0008ED2A000811
:1001B000ED2A0008ED2A0008ED2A000800000000E2
:1001C00000000000ED2A0008000000000000000010
:0801D000ED2A0008ED2A0008E9
:1002000010B5054C237833B9044B13B10448AFF350
:1002100000800123237010BD000B002000000000AF
:10022000DC71010808B5034B1BB103490348AFF368
:10023000008008BD00000000040B0020DC710108F4
:1002400081F0004102E000BF83F0004330B54FEA87
:1002500041044FEA430594EA050F08BF90EA020FF4
:100260001FBF54EA000C55EA020C7FEA645C7FEA87
:10027000655C00F0E2804FEA5454D4EB5555B8BFAA
:100280006D420CDD2C4480EA020281EA030382EA1B
:10029000000083EA010180EA020281EA0303362DAD
:1002A00088BF30BD11F0004F4FEA01314FF4801C80
:1002B0004CEA113102D0404261EB410113F0004F92
:1002C0004FEA03334CEA133302D0524263EB430349
:1002D00094EA050F00F0A780A4F10104D5F1200EE7
:1002E0000DDB02FA0EFC22FA05F2801841F1000142
:1002F00003FA0EF2801843FA05F359410EE0A5F116
:1003000020050EF1200E012A03FA0EFC28BF4CF046
:10031000020C43FA05F3C01851EBE37101F00045FC
:1003200007D54FF0000EDCF1000C7EEB00006EEB09
:100330000101B1F5801F1BD3B1F5001F0CD3490893
:100340005FEA30004FEA3C0C04F101044FEA4452EA
:1003500012F5800F80F09A80BCF1004F08BF5FEA71
:10036000500C50F1000041EB045141EA050130BD51
:100370005FEA4C0C404141EB0101013C28BFB1F563
:10038000801FE9D291F0000F04BF01460020B1FAAE
:1003900081F308BF2033A3F10B03B3F120020CDA81
:1003A0000C3208DD02F1140CC2F10C0201FA0CF05F
:1003B00021FA02F10CE002F11402D8BFC2F1200CC4
:1003C00001FA02F120FA0CFCDCBF41EA0C0190407A
:1003D000E41AA2BF01EB0451294330BD6FEA0404C3
:1003E0001F3C1CDA0C340EDC04F11404C4F12002AE
:1003F00020FA04F001FA02F340EA030021FA04F3C0
:1004000045EA030130BDC4F10C04C4F1200220FA16
:1004100002F001FA04F340EA0300294630BD21FA54
:1004200004F0294630BD94F0000F83F4801306BF1A
:1004300081F480110134013D4EE77FEA645C18BF0E
:100440007FEA655C29D094EA050F08BF90EA020FA5
:1004500005D054EA000C04BF1946104630BD91EA9D
:10046000030F1EBF0021002030BD5FEA545C05D1A0
:100470004000494128BF41F0004130BD14F58004DF
:100480003CBF01F5801130BD01F0004545F0FE4153
:1004900041F470014FF0000030BD7FEA645C1ABF88
:1004A000194610467FEA655C1CBF0B46024650EABF
:1004B000013406BF52EA033591EA030F41F40021EB
:1004C00030BD00BF90F0000F04BF0021704730B571
:1004D0004FF4806404F132044FF000054FF0000146
:1004E00050E700BF90F0000F04BF0021704730B507
:1004F0004FF4806404F1320410F0004548BF4042DC
:100500004FF000013EE700BF42004FEAE2014FEA30
:1005100031014FEA02701FBF12F07F4393F07F4F0B
:1005200081F06051704732F07F4208BF704793F00E
:100530007F4F04BF41F40021704730B54FF4607421
:1005400001F0004521F000411CE700BF50EA010224
:1005500008BF704730B54FF000050AE050EA0102CD
:1005600008BF704730B511F0004502D5404261EB3D
:1005700041014FF4806404F132045FEA915C3FF47E
:10058000D8AE4FF003025FEADC0C18BF03325FEA1B
:10059000DC0C18BF033202EBDC02C2F1200300FACC
:1005A00003FC20FA02F001FA03FE40EA0E0021FAF1
:1005B00002F11444BDE600BF70B54FF0FF0C4CF4DF
:1005C000E06C1CEA11541DBF1CEA135594EA0C0F91
:1005D00095EA0C0F00F0DEF82C4481EA030621EACC
:1005E0004C5123EA4C5350EA013518BF52EA033507
:1005F00041F4801143F4801338D0A0FB02CE4FF0B9
:100600000005E1FB02E506F00042E0FB03E54FF0E8
:100610000006E1FB03569CF0000F18BF4EF0010EE0
:10062000A4F1FF04B6F5007F64F5407404D25FEADC
:100630004E0E6D4146EB060642EAC62141EA55518F
:100640004FEAC52040EA5E504FEACE2EB4F1FD0CD1
:1006500088BFBCF5E06F1ED8BEF1004F08BF5FEA4F
:10066000500E50F1000041EB045170BD06F0004601
:1006700046EA010140EA020081EA0301B4EB5C04AE
:10068000C2BFD4EB0C0541EA045170BD41F48011A6
:100690004FF0000E013C00F3AB8014F1360FDEBFCB
:1006A000002001F0004170BDC4F10004203C35DAA7
:1006B0000C341BDC04F11404C4F1200500FA05F32A
:1006C00020FA04F001FA05F240EA020001F00042CB
:1006D00021F0004110EBD37021FA04F642EB060141
:1006E0005EEA430E08BF20EAD37070BDC4F10C046B
:1006F000C4F1200500FA04F320FA05F001FA04F22F
:1007000040EA020001F0004110EBD37041F100011A
:100710005EEA430E08BF20EAD37070BDC4F1200525
:1007200000FA05F24EEA020E20FA04F301FA05F28D
:1007300043EA020321FA04F001F0004121FA04F235
:1007400020EA020000EBD3705EEA430E08BF20EA05
:10075000D37070BD94F0000F0FD101F0004640003F
:1007600041EB010111F4801F08BF013CF7D041EAC1
:10077000060195F0000F18BF704703F000465200C5
:1007800043EB030313F4801F08BF013DF7D043EA96
:100790000603704794EA0C0F0CEA135518BF95EA4C
:1007A0000C0F0CD050EA410618BF52EA4306D1D1D3
:1007B00081EA030101F000414FF0000070BD50EAF2
:1007C000410606BF1046194652EA430619D094EA7C
:1007D0000C0F02D150EA013613D195EA0C0F05D166
:1007E00052EA03361CBF104619460AD181EA0301BA
:1007F00001F0004141F0FE4141F470014FF0000072
:1008000070BD41F0FE4141F4780170BD70B54FF00C
:10081000FF0C4CF4E06C1CEA11541DBF1CEA13558C
:1008200094EA0C0F95EA0C0F00F0A7F8A4EB05046E
:1008300081EA030E52EA03354FEA013100F0888065
:100840004FEA03334FF0805545EA131343EA12632E
:100850004FEA022245EA111545EA10654FEA0026E3
:100860000EF000419D4208BF964244F1FD0404F59C
:10087000407402D25B084FEA3202B61A65EB0305F8
:100880005B084FEA32024FF480104FF4002CB6EBB5
:10089000020E75EB030E22BFB61A754640EA0C0035
:1008A0005B084FEA3202B6EB020E75EB030E22BF75
:1008B000B61A754640EA5C005B084FEA3202B6EBB6
:1008C000020E75EB030E22BFB61A754640EA9C0075
:1008D0005B084FEA3202B6EB020E75EB030E22BF45
:1008E000B61A754640EADC0055EA060E18D04FEA03
:1008F000051545EA16754FEA06164FEAC30343EAA3
:1009000052734FEAC2025FEA1C1CC0D111F4801F6F
:100910000BD141EA00014FF000004FF0004CB6E768
:1009200011F4801F04BF01430020B4F1FD0C88BF07
:10093000BCF5E06F3FF6AFAEB5EB030C04BFB6EB12
:10094000020C5FEA500C50F1000041EB045170BD05
:100950000EF0004E4EEA113114EB5C04C2BFD4EB32
:100960000C0541EA045170BD41F480114FF0000EB6
:10097000013C90E645EA060E8DE60CEA135594EA32
:100980000C0F08BF95EA0C0F3FF43BAF94EA0C0F35
:100990000AD150EA01347FF434AF95EA0C0F7FF4AA
:1009A00025AF104619462CE795EA0C0F06D152EAFE
:1009B00003353FF4FDAE1046194622E750EA4106E2
:1009C00018BF52EA43067FF4C5AE50EA41047FF4F3
:1009D0000DAF52EA43057FF4EBAE12E74FF0FF3C58
:1009E00006E000BF4FF0010C02E000BF4FF0010C29
:1009F0004DF804CD4FEA410C7FEA6C5C4FEA430CA2
:100A000018BF7FEA6C5C1BD001B050EA410C0CBFF0
:100A100052EA430C91EA030F02BF90EA020F002052
:100A2000704710F1000F91EA030F58BF994208BFB9
:100A300090422CBFD8176FEAE37040F00100704776
:100A40004FEA410C7FEA6C5C02D150EA013C07D1CD
:100A50004FEA430C7FEA6C5CD6D152EA033CD3D018
:100A60005DF8040B704700BF8446104662468C4612
:100A70001946634600E000BF01B5FFF7B7FF002845
:100A800048BF10F1000F01BD4DF808EDFFF7F4FF6E
:100A90000CBF012000205DF808FB00BF4DF808EDF9
:100AA000FFF7EAFF34BF012000205DF808FB00BF1C
:100AB0004DF808EDFFF7E0FF94BF012000205DF83E
:100AC00008FB00BF4DF808EDFFF7CEFF94BF0120F3
:100AD00000205DF808FB00BF4DF808EDFFF7C4FFEC
:100AE00034BF012000205DF808FB00BF4FEA410C35
:100AF0007FEA6C5C02D150EA013C0AD14FEA430C18
:100B00007FEA6C5C02D152EA033C02D14FF0000054
:100B100070474FF0010070474FEA410212F5001292
:100B200015D211D56FF47873B3EB625212D94FEA34
:100B3000C12343F0004343EA505311F0004F23FA1E
:100B400002F018BF404270474FF00000704750EA73
:100B5000013005D111F0004008BF6FF00040704730
:100B60004FF00000704700BF4FEA4102B2F1E0438E
:100B700024BFB3F5001CDCF1FE5C0DD901F0004C84
:100B80004FEAC0024CEA5070B2F1004F40EB8300D4
:100B900008BF20F00100704711F0804F21D113F100
:100BA0003872BCBF01F00040704741F480114FEA39
:100BB0005252C2F11802C2F1200C10FA0CF320FAC2
:100BC00002F018BF40F001004FEAC1234FEAD323DF
:100BD00003FA0CFC40EA0C0023FA02F34FEA430349
:100BE000CCE77FEA625307D150EA01331EBF4FF0D2
:100BF000FE4040F44000704701F0004040F0FE40ED
:100C000040F40000704700BF53B94AB9002908BF3B
:100C100000281CBF4FF0FF314FF0FF3000F074B9D7
:100C2000ADF1080C6DE904CE00F006F8DDF804E043
:100C3000DDE9022304B070472DE9F047089D044622
:100C40008E46002B4DD18A42944669D9B2FA82F27F
:100C500052B101FA02F3C2F1200120FA01F10CFABB
:100C600002FC41EA030E94404FEA1C48210CBEFBF3
:100C7000F8F61FFA8CF708FB16E341EA034306FB7C
:100C800007F199420AD91CEB030306F1FF3080F00B
:100C90001F81994240F21C81023E63445B1AA4B258
:100CA000B3FBF8F008FB103344EA034400FB07F7FA
:100CB000A7420AD91CEB040400F1FF3380F00A813B
:100CC000A74240F207816444023840EA0640E41B30
:100CD00000261DB1D4400023C5E900433146BDE8DC
:100CE000F0878B4209D9002D00F0EF800026C5E97E
:100CF000000130463146BDE8F087B3FA83F6002E96
:100D00004AD18B4202D3824200F2F980841A61EB0D
:100D1000030301209E46002DE0D0C5E9004EDDE72B
:100D200002B9FFDEB2FA82F2002A40F09280A1EB13
:100D30000C014FEA1C471FFA8CFE0126200CB1FB68
:100D4000F7F307FB131140EA01410EFB03F0884261
:100D500008D91CEB010103F1FF3802D2884200F2EE
:100D6000CB804346091AA4B2B1FBF7F007FB101180
:100D700044EA01440EFB00FEA64508D91CEB04041E
:100D800000F1FF3102D2A64500F2BB800846A4EB79
:100D90000E0440EA03409CE7C6F12007B34022FA64
:100DA00007FC4CEA030C20FA07F401FA06F31C4393
:100DB000F9404FEA1C4900FA06F3B1FBF9F8200CA0
:100DC0001FFA8CFE09FB181140EA014108FB0EF0E6
:100DD000884202FA06F20BD91CEB010108F1FF3A36
:100DE00080F08880884240F28580A8F10208614442
:100DF000091AA4B2B1FBF9F009FB101144EA014150
:100E000000FB0EFE8E4508D91CEB010100F1FF34FA
:100E10006CD28E456AD90238614440EA0840A0FB92
:100E20000294A1EB0E01A142C846A64656D353D068
:100E30005DB1B3EB080261EB0E0101FA07F722FA8C
:100E400006F3F1401F43C5E9007100263146BDE8B5
:100E5000F087C2F12003D8400CFA02FC21FA03F318
:100E6000914001434FEA1C471FFA8CFEB3FBF7F099
:100E700007FB10360B0C43EA064300FB0EF69E42BE
:100E800004FA02F408D91CEB030300F1FF382FD257
:100E90009E422DD9023863449B1B89B2B3FBF7F6FF
:100EA00007FB163341EA034106FB0EF38B4208D9D8
:100EB0001CEB010106F1FF3816D28B4214D9023E19
:100EC0006144C91A46EA004638E72E46284605E737
:100ED0000646E3E61846F8E64B45A9D2B9EB020808
:100EE00064EB0C0E0138A3E74646EAE7204694E798
:100EF0004046D1E7D0467BE7023B614432E73046CB
:100F000009E76444023842E7704700BF844641EA7B
:100F1000000313F003036DD1403A41D351F8043B71
:100F200040F8043B51F8043B40F8043B51F8043BC3
:100F300040F8043B51F8043B40F8043B51F8043BB3
:100F400040F8043B51F8043B40F8043B51F8043BA3
:100F500040F8043B51F8043B40F8043B51F8043B93
:100F600040F8043B51F8043B40F8043B51F8043B83
:100F700040F8043B51F8043B40F8043B51F8043B73
:100F800040F8043B51F8043B40F8043B51F8043B63
:100F900040F8043B51F8043B40F8043B403ABDD2D2
:100FA000303211D351F8043B40F8043B51F8043B74
:100FB00040F8043B51F8043B40F8043B51F8043B33
:100FC00040F8043B103AEDD20C3205D351F8043B03
:100FD00040F8043B043AF9D2043208D0D2071CBFCF
:100FE00011F8013B00F8013B01D30B8803806046F8
:100FF000704700BF082A13D38B078DD010F003036E
:101000008AD0C3F10403D21ADB071CBF11F8013BDD
:1010100000F8013B80D331F8023B20F8023B7BE72C
:10102000043AD9D3013A11F8013B00F8013BF9D257
:101030000B7803704B7843708B78837060467047F1
:10104000A2EB0300704700BF02780B78012A28BF8B
:101050009A42F5D16DE9044540EA0104CDE9026701
:101060006FF0000C4FEA447212B380EA010414F0EE
:10107000070F6AD100F0070420F0070004F0030511
:1010800021F007014FEAC505F0E8042314F0040F2E
:10109000F1E804670CFA05F462EA040266EA040661
:1010A0000AD063EA0403624667EA0407664603E07F
:1010B000F0E80423F1E8046782FA4CF582EA0604BA
:1010C000A4FA8CF46CBB83FA4CF583EA0705A5FA05
:1010D0008CF595B950E9022351E9026782FA4CF583
:1010E00082EA0604A4FA8CF483FA4CF583EA070535
:1010F000A5FA8CF52543DBD09CB92DBAB5FA85F459
:1011000024F0070427FA04F1DDE9026723FA04F367
:1011100003F0FF0001F0FF01FDE80445A0EB010032
:10112000704724BAB4FA84F424F0070426FA04F1D0
:10113000DDE9026722FA04F202F0FF0001F0FF018C
:10114000FDE80445A0EB0100704714F0030F3CD10B
:1011500010F0030428D150F8082B51F8083B82FA0C
:101160004CF582EA0305A5FA8CF55DB950F8042C1C
:1011700051F8043C82FA4CF582EA0305A5FA8CF595
:10118000002DE8D02DBAB5FA85F424F0070423FA2F
:1011900004F122FA04F202F0FF0001F0FF01FDE881
:1011A0000445A0EB010070474FEAC40420F003009F
:1011B00050F8082B21F0030151F8083B0CFA04F415
:1011C00062EA040263EA0403C9E710F003041AD0D8
:1011D000A1EB040120F00300E40750F8042B06D033
:1011E0000FD28B785FFAA2F4E41A06D12BB1CB7838
:1011F0005FFAB2F4E41A00D11BB920465DF8104B37
:10120000704701F1040150F8042BCC0721F00301D1
:1012100051F8043B48D824D222F07F4482FA4CF59E
:1012200094EA1325A5FA8CF50AD165B951F8043B67
:1012300084EA0204B4EB036F0ED150F8042BEBE701
:101240004FEA132355E035F07F454DD10878FDE88E
:101250000445C0F1000070474FEA126203F0FF033B
:1012600047E002EA1C4482FA4CF594EA1345A5FAD9
:101270008CF50AD165B951F8043B84EA0204B4EB59
:10128000034F0CD150F8042BEBE74FEA134330E047
:1012900015EA1C4528D10B884FEA124229E04FEA93
:1012A000124203EA1C4324E002F0FF0482FA4CF5E8
:1012B00094EA1365A5FA8CF50AD165B951F8043B97
:1012C00084EA0204B4EB032F09D150F8042BEBE7B6
:1012D0004FEA13630DE015F0FF0F05D10B684FEADD
:1012E000122223F07F4304E04FF00000FDE80445A4
:1012F000704712BA1BBA82FA4CF482EA0304A4FAC9
:101300008CF5B5FA85F402FA04F203FA04F34FEA15
:101310001260FDE80445A0EB136070470000000078
:1013200000000000000000000000000000000000BD
:1013300000000000000000000000000000000000AD
:1013400090F800F06DE9024520F007016FF0000C05
:1013500010F0070491F820F040F049804FF00004AD
:101360006FF00700D1E9002391F840F000F1080088
:1013700082FA4CF2A4FA8CF283FA4CF3A2FA8CF3C0
:101380004BBBD1E9022382FA4CF200F10800A4FA27
:101390008CF283FA4CF3A2FA8CF3E3B9D1E904237B
:1013A00082FA4CF200F10800A4FA8CF283FA4CF3B2
:1013B000A2FA8CF37BB9D1E9062301F1200182FA6C
:1013C0004CF200F10800A4FA8CF283FA4CF3A2FA72
:1013D0008CF3002BC6D0002A04BF04301A4612BA80
:1013E000B2FA82F2FDE8024500EBD2007047D1E983
:1013F000002304F00305C4F100004FEAC50514F012
:10140000040F91F840F00CFA05F562EA05021CBFE2
:1014100063EA050362464FF00004A9E700000000FC
:1014200001F0FF01102A2BDB10F0070F08D010F895
:10143000013B013A8B422DD010F0070F42B3F6D199
:10144000F0B441EA012141EA014122F007047FF0B2
:1014500000070023F0E80256083C85EA010586EA09
:10146000010685FA47F5A3FA87F586FA47F6A5FA45
:1014700087F68EB9EED1F0BC01F0FF0102F0070251
:1014800032B110F8013B013A83EA010313B1F8D1FC
:101490000020704701387047002D06BF35460338DD
:1014A000073815F0010F07D1013015F4807F02BF16
:1014B000013015F4C03F0130F0BC0138704700BF67
:1014C0004A0011D212F5001211D20DD56FF47873C3
:1014D000B3EB62520ED44FEAC12343F0004343EA18
:1014E000505323FA02F070474FF00000704750EA63
:1014F000013002D14FF0FF3070474FF000007047CD
:1015000038B50022002304460D46FFF7C7FA28B974
:1015100020462946BDE8384000F00AB8204605F1CB
:10152000004100F005F8404261EB410138BD00BFC9
:10153000D0B50C4B002206460F46FFF73DF8FFF7EB
:10154000BFFF0446FEF7BEFF074B0022FFF734F84B
:1015500002460B4630463946FEF776FEFFF7B0FFEF
:101560002146D0BD0000F03D0000F04108B507F075
:101570008BFF012211460E4802F0B7FD9FED0D0AC8
:1015800007F048FB4FF0FF3207210B4807F068FCDB
:10159000094C0A4B93ED000A204607F011FED4F8DF
:1015A000883004F10C009847032005F0C6FCEFE7F3
:1015B00000040048CDCC444124000020200B002032
:1015C00008B507F061FF9FED0F0A07F023FB01222A
:1015D00002210D4802F089FD012207210B4807F086
:1015E0003FFC0A4C0A4B93ED000A204607F0E8FD49
:1015F000D4F8883004F10C009847032005F09DFCD6
:10160000EFE700BFCDCC444100040048B00000200B
:10161000240B002080B58AB008F08EF99FED1F0AD8
:101620001F4808F01DF9B1EE040A1E4808F018F929
:101630004FF4FA7005F081FC1B4B1E695F691B4A71
:10164000D2F80C80D2F81090D2F814A0D868FEF727
:101650005BFF04460D465046FEF756FFCDE90801F4
:101660004846FEF751FFCDE906014046FEF74CFF24
:10167000CDE904013846FEF747FFCDE902013046C7
:10168000FEF742FFCDE9000122462B4608480AF04A
:101690006FF8322005F051FCCEE700BF0000704229
:1016A000145100203C51002024000020B0000020F4
:1016B0007072010830B585B001220E490E4805F060
:1016C00051FB4FF0FF320D4B196801A805F065FD85
:1016D000019B102BF5D1029C251D294608480AF0D4
:1016E00047F8284609F0A8FD2146064B186805F082
:1016F000FAFCE6E76052002060100020380B002062
:1017000084720108340B002080B5DFF8F8900022C5
:101710002C49484609F072FEDFF8EC8000222A4985
:10172000404609F06BFE294F00222949384609F04E
:1017300065FE284E00222849304609F05FFE274DFD
:1017400000222749284609F059FE264C0022264946
:10175000204609F053FE254A0021484609F066FE5E
:10176000234A0021404609F061FE224A0021384602
:1017700009F05CFE204A0021304609F057FE1F4A5E
:101780000021284609F052FE1D4A0021204609F09A
:101790004DFE484609F056FF404609F053FF3846D3
:1017A00009F050FF304609F04DFF284609F04AFF86
:1017B000204609F047FF09F057FF052005F0BDFB63
:1017C000F9E700BF85B6000899B60008BC510020B3
:1017D000ADB60008E4510020C1B600080C5200204C
:1017E000D5B6000834520020E9B60008F9B6000862
:1017F00001B7000809B7000811B7000819B70008B9
:1018000021B700086C5100209451002070B58AB0B7
:101810000024059406940794089409942B4BDA6CE1
:1018200042F02002DA64DA6C02F020020192019A9E
:10183000DA6C42F00402DA64DA6C02F0040202921A
:10184000029ADA6C42F00102DA64DA6C02F0010208
:101850000392039ADA6C42F00202DA64DB6C03F062
:1018600002030493049B224658214FF0904002F05B
:101870003CFC174E22460721304602F036FC582326
:101880000593012506950794089405A94FF090400B
:1018900002F03AFB202305930694079505A90D480D
:1018A00002F032FB0723059306950794089405A9D7
:1018B000304602F029FB4FF47843059306940795D0
:1018C00005A9304602F020FB0AB070BD00100240AE
:1018D000000400480008004800B583B0164B9A6C1D
:1018E00042F004029A649A6C02F004020092009A98
:1018F0009A6C42F001029A649B6C03F0010301931D
:10190000019B002205210B2002F00AF80B2002F0B7
:101910003FF8002205210C2002F002F80C2002F012
:1019200037F8002205210E2001F0FAFF0E2002F008
:101930002FF803B05DF804FB0010024000B59BB027
:10194000314809F015FF314D15ACAE46BEE80F0029
:101950000FC4DEF80030236010AC05F1140EBEE8B1
:101960000F000FC4DEF8003023600BAC05F1280E29
:10197000BEE80F000FC4DEF8003023600DF1180E32
:1019800005F13C040FCCAEE80F002368CEF8003020
:101990000DF1040E05F1500CBCE80F00AEE80F008D
:1019A000DCF80030CEF8003005F0ECFC002115A882
:1019B00005F0A9FA164B1860002110A805F0A3FA4B
:1019C000144B186000210BA805F09DFA124B18600B
:1019D000002106A805F097FA104B1860002101A815
:1019E00005F091FA0E4B186005F0EEFC08214FF05F
:1019F000904002F07FFB4FF47A7005F09EFA094A9E
:101A0000936801339360F1E704730108F8710108EA
:101A1000280B0020400B00202C0B0020300B002056
:101A20003C0B002004000020264B834200D070476E
:101A300070B5254B1B6853B1012B1BD0234B1B6882
:101A40000122234919441F4805F08CF970BD1F4B32
:101A50001B681F4AD25C7B2A06D101331B4A1360E4
:101A6000194B01221A60E9E78022002118480AF088
:101A70009BF9E3E7154B1A68154B9B5C7D2B03D054
:101A80000132124B1A60D9E7501C114EC2F180028C
:101A9000002130440AF088F900250C4B1D600A4BE8
:101AA0001D600C4B186805F0E7FA044680223146A9
:101AB0000430FFF72BFA2A462146074B186805F039
:101AC00039FBBBE760100020F8100020F410002064
:101AD00060520020340B0020380B002072B6FEE765
:101AE00010B58CB0002409940A940B94202221464E
:101AF00001A80AF059F92A484FF0A04303604FF4B7
:101B0000A01343608460C460046101234361042323
:101B10008361047744770323036280F82440C4621E
:101B2000046380F83840C46380F8404001F03EF818
:101B300000282BD10023099309A9194801F054FE6C
:101B400030BB184B019306230293022303937F2398
:101B50000493042305930023069301A9104801F080
:101B6000D1F9B8B9104B01930C23029301A90C4889
:101B700001F0C8F980B90D4B01931223029301A91A
:101B8000074801F0BFF948B90CB010BDFFF7A6FF38
:101B9000FFF7A4FFFFF7A2FFFFF7A0FFFFF79EFFED
:101BA000480B002002003004040060080800900C7C
:101BB00000B589B02022002168460AF0F5F82648D1
:101BC000264B03604FF4A013436000238360C3607F
:101BD0000361012242610422826103774377032279
:101BE000026280F82430C362036380F83830C36334
:101BF00080F8403000F0DAFF28BB194B0093062331
:101C00000193012302937F2303930423049300236E
:101C100005936946104801F075F9B0B9114B00936E
:101C20000C23019369460C4801F06CF978B90E4B0E
:101C30000093122301936946074801F063F940B904
:101C400009B05DF804FBFFF749FFFFF747FFFFF717
:101C500045FFFFF743FF00BFB40B00200001005019
:101C60008000501D000180210002B02508B50F48FA
:101C70000F4B0360002343608360C36003744374AD
:101C8000837410224261012282610221C1610162DA
:101C900042628262C262026343638363C36302F08F
:101CA00049F800B908BDFFF719FF00BF400D00203B
:101CB0000064004008B51148114B0360114B4360AC
:101CC000002383600122C260036143618361C361B9
:101CD000036202F099FB50B90021084802F0CAFCE7
:101CE00038B90021054802F0F3FC20B908BDFFF720
:101CF000F5FEFFF7F3FEFFF7F1FE00BFA40D002095
:101D000000580040FF7BF00008B51048104B0360FE
:101D10004FF482734360002383604FF4E062C2603B
:101D20000222026143614FF4007282611022C2619B
:101D30000362436283620722C2620363436303F068
:101D4000FDFA00B908BDFFF7C9FE00BF3C0E002038
:101D50000030014010B598B00024159416941794E3
:101D60000E940F941094119412941394149434229A
:101D7000214601A80AF018F82E482F4B03600423CF
:101D80004360202383604FF47A73C360046144612D
:101D9000846103F0E9FC002840D1002315931693D9
:101DA000179315A9234803F009FF002838D16023B1
:101DB0000E9300220F92109211921292139214928B
:101DC0000EA91C4803F0A2FD00282BD104220EA965
:101DD000184803F09BFD38BB08220EA9154803F0F4
:101DE00095FD18BB0023019302930393049305937D
:101DF0004FF4005206920793089309934FF0007234
:101E00000A920B930C930D9301A90A4803F020FF4B
:101E100070B9084800F074FC18B010BDFFF75EFE02
:101E2000FFF75CFEFFF75AFEFFF758FEFFF756FE7E
:101E3000FFF754FEA00E0020002C014000B58BB02F
:101E4000002307930893099300930193029303934C
:101E50000493059306931F484FF0804202600422CA
:101E60004260202282604FF47A72C2600361836113
:101E700003F07AFC20BB00230793099307A91548B8
:101E800003F09CFEF0B960230093002201920292BD
:101E9000049269460F4803F039FDA8B90422694647
:101EA0000C4803F033FD88B908226946094803F05D
:101EB0002DFD68B9074800F023FC0BB05DF804FB6A
:101EC000FFF70CFEFFF70AFEFFF708FEFFF706FE1E
:101ED000FFF704FEEC0E002008B51548154B036013
:101EE0004FF4E133436000238360C36003610C223D
:101EF00042618361C36103624362836204F05AFEFC
:101F000070B900210A4804F0A3FF58B9002108481D
:101F100004F0C3FF40B9064804F07BFF30B908BDA8
:101F2000FFF7DCFDFFF7DAFDFFF7D8FDFFF7D6FD81
:101F3000D00F00200038014000B58DB024220021D0
:101F400003A809F031FF0023009301930293104886
:101F5000104A0260436083604FF6FF72C260036103
:101F60008361012303930593099303A903F02CFCD8
:101F700050B90023009302936946054803F01EFE02
:101F800020B90DB05DF804FBFFF7A8FDFFF7A6FD33
:101F9000380F00200004004008B51148114B0360C1
:101FA000114B4360002383600122C26003614361DF
:101FB0008361C361036202F027FA50B90021084827
:101FC00002F058FB38B90021054802F081FB20B926
:101FD00008BDFFF783FDFFF781FDFFF77FFD00BF21
:101FE000F00D002000780040FF7BF00010B598B0A5
:101FF00000241594169417940E940F941094119431
:102000001294139414943422214601A809F0CCFEB2
:1020100029482A4B0360A0234360846042F2107376
:10202000C36004614461846103F09EFB002839D1E0
:10203000002315931693179315A91F4803F0BEFDAF
:10204000002831D160230E9300220F92109211923A
:102050001292139214920EA9174803F057FC28BB52
:1020600004220EA9144803F051FC08BB002301937D
:1020700002930393049305934FF40052069207933F
:10208000089309934FF000720A920B930C930D93EF
:1020900001A9094803F0DCFD60B9074800F030FBF6
:1020A00018B010BDFFF71AFDFFF718FDFFF716FD7A
:1020B000FFF714FDFFF712FD840F002000340140EC
:1020C00008B51548154B03604FF4E1334360002316
:1020D0008360C36003610C2242618361C361036258
:1020E0004362836204F066FD70B900210A4804F07F
:1020F000AFFE58B90021084804F0CFFE40B90648A9
:1021000004F087FE30B908BDFFF7E8FCFFF7E6FCF6
:10211000FFF7E4FCFFF7E2FC6010002000480040FD
:1021200000B595B03822002106A809F03DFE002038
:102130000190029003900490059002F0F5FA0223BA
:1021400006934FF48072099240220A920D930E93E7
:102150000F932822109211931293139306A802F062
:102160009DFB80B90F230193032302930023039364
:102170000493059304210DEB010002F047FE20B902
:1021800015B05DF804FBFFF7A9FCFFF7A7FC000002
:1021900000B587B000F0D4FCFFF7C2FFFFF736FBB5
:1021A000FFF79AFBFFF79CFCFFF702FDFFF75EFDD0
:1021B000FFF780FDFFF7A8FDFFF7CCFDFFF73EFE20
:1021C000FFF78AFEFFF7B8FEFFF7E6FEFFF70EFF08
:1021D000FFF776FF104804F0B7FE104B1860104868
:1021E00004F014FF0F4B186000210F4804F09BFF10
:1021F0000E4B18600DF1040C0D4C0FCCACE80F0029
:102200002368CCF80030002101A804F07CFE094BC3
:10221000186004F073FEFEE71C730108F010002044
:1022200020730108340B002014730108380B0020C0
:102230005C720108440B002000B583B00E4B1A6E8F
:1022400042F001021A661A6E02F001020092009A30
:102250009A6D42F080529A659B6D03F08053019312
:10226000019B00220F216FF0010001F059FB02F0E9
:10227000E1FA03B05DF804FB0010024070B59CB0B9
:10228000044600211791189119911A911B9144222B
:1022900006A809F089FD2368B3F1A04F04D04C4A89
:1022A000934235D01CB070BD4FF4004306934FF0FD
:1022B0000053159306A802F0CFFED8B9454A13681B
:1022C00001331360012B18D0434BDA6C42F001024A
:1022D000DA64DB6C03F001030293029B072317937C
:1022E000032318930023199317A94FF0904001F08E
:1022F0000BFED7E7FFF7F2FBE0E7374BDA6C42F46F
:102300000052DA64DB6C03F400530193019BDBE7BA
:102310004FF4004306934FF00053159306A802F0C4
:102320009BFE002842D12B4A136801331360012B16
:102330003FD0294BDA6C42F00402DA64DA6C02F026
:1023400004020492049ADA6C42F00102DA64DB6C53
:1023500003F001030593059B0E231793032618969C
:102360000025199517A91D4801F0CEFD179618965E
:10237000199517A94FF0904001F0C6FD1848194B68
:102380000360242343608560C560802303614FF4AC
:10239000807343614FF480638361C561056201F01E
:1023A00051FB88B90E4B63659C627BE7FFF796FB98
:1023B000B9E7094BDA6C42F40052DA64DB6C03F4DF
:1023C00000530393039BB4E7FFF788FBEAE700BFE2
:1023D00000010050FC1000200010024000080048DE
:1023E000200C00204400024010B598B004460021A3
:1023F00013911491159116911791442202A809F096
:10240000D3FC22681A4B9A4201D018B010BD4FF489
:10241000805302934FF000730E9302A802F01CFE4B
:1024200010BB144B9A6D42F000729A659A6D02F0DF
:1024300000720092009ADA6C42F00102DA64DB6CFE
:1024400003F001030193019B4FF4C0531393022344
:1024500014930023159316930923179313A94FF090
:10246000904001F051FDD0E7FFF738FBD9E700BFFE
:102470000064004000100240F0B59DB00446002109
:102480001791189119911A911B91442206A809F0ED
:102490008BFC2368394A934204D0394A934241D095
:1024A0001DB0F0BD8023069306A802F0D5FD0028DC
:1024B00035D1344CE36C43F00403E364E36C03F084
:1024C00004030193019BE36C43F00103E364E36CB9
:1024D00003F001030293029B10231793122718970E
:1024E000002519951A9504261B9617A9264801F070
:1024F0000BFD4FF480731793189719951A951B9637
:1025000017A94FF0904001F0FFFCA36D43F4800346
:10251000A365A36D03F480030393039BC0E7FFF758
:10252000DDFAC6E74FF48073069306A802F094FD27
:1025300008BB144CE36C43F00403E364E36C03F066
:1025400004030493049B4FF44073179312231893CE
:10255000002319931A9308231B9317A90A4801F023
:10256000D3FCA36D43F08043A365A36D03F08043C8
:102570000593059B94E7FFF7B1FADAE700580040AE
:1025800000780040001002400008004810B588B0F4
:102590000023039304930593069307930268204B4B
:1025A0009A4201D008B010BD044603F560431A6E8C
:1025B00042F480521A661A6E02F480520192019A15
:1025C000DA6C42F00102DA64DB6C03F0010302937F
:1025D000029BA023039302230493012205920693F6
:1025E0000523079303A94FF0904001F08DFC0D489F
:1025F0000D4B03600B234360102383600023C360F3
:102600008022026143618361C361036201F01AFAAF
:1026100018B9044B63659C62C4E7FFF75FFAF8E7FB
:1026200000300140800C00200800024084B00368A4
:10263000164A934207D0B3F1804F0FD0144A934209
:1026400018D004B07047134B1A6E42F400621A6639
:102650001B6E03F400630193019BF2E703F504335F
:102660009A6D42F001029A659B6D03F0010302939B
:10267000029BE6E7074B1A6E42F400521A661B6E85
:1026800003F400530393039BDBE700BF002C0140DE
:10269000003401400010024000B589B000230393CC
:1026A00004930593069307930268134B9A4202D052
:1026B00009B05DF804FB03F503339A6D42F00202A2
:1026C0009A659A6D02F002020192019ADA6C42F068
:1026D0000202DA64DB6C03F002030293029B3023F4
:1026E00003930223049301220592079303A903484D
:1026F00001F00AFCDCE700BF0004004000040048D1
:1027000030B58BB000230593069307930893099384
:1027100003683C4A934207D0B3F1804F2FD03A4A26
:10272000934259D00BB030BD384BDA6C42F0040202
:10273000DA64DA6C02F004020092009ADA6C42F079
:102740000102DA64DB6C03F001030193019B0123B6
:10275000059302240694099405A92D4801F0D4FBA1
:102760004FF4C06305930694002307930893062350
:10277000099305A94FF0904001F0C6FBD2E703F59D
:102780000433DA6C42F00202DA64DA6C02F002021C
:102790000292029ADA6C42F00102DA64DB6C03F016
:1027A00001030393039B4FF4816305930225069570
:1027B0000124099405A9174801F0A6FB4FF4004332
:1027C00005930695002307930893099405A94FF0F4
:1027D000904001F099FBA5E70C4BDA6C42F0040243
:1027E000DA64DB6C03F004030493049BC0230593B9
:1027F000022306930423099305A9054801F084FBED
:1028000090E700BF002C014000340140001002405E
:10281000000800480004004830B59BB00446002181
:1028200015911691179118911991442204A809F055
:10283000BBFA2368414A934204D0414A934233D0C1
:102840001BB030BD0123049304A802F005FC40BB7B
:102850003C4B1A6E42F480421A661A6E02F48042B1
:102860000092009ADA6C42F00202DA64DB6C03F048
:1028700002030193019BC0231593022316930024A6
:10288000179418940723199315A92F4801F03CFBBE
:1028900022460621252001F043F8252001F078F892
:1028A000CEE7FFF71BF9D3E70423049304A802F053
:1028B000D3FB00283CD1234B9A6D42F480229A65C9
:1028C0009A6D02F480220292029ADA6C42F00402BB
:1028D000DA64DB6C03F004030393039B4FF440635F
:1028E000159302231693002517951895072319931E
:1028F00015A9164801F008FB1548164B03601C2368
:1029000043608560C5608023036145618561C56161
:10291000056201F097F870B90D4BE3679C620022E5
:102920000621272000F0FCFF272001F031F887E77F
:10293000FFF7D4F8BFE7FFF7D1F8EDE70038014023
:102940000048004000100240000400480008004811
:10295000E00C00201C000240FEE7FEE7FEE7FEE779
:10296000FEE7704708B500F0FBF806F02BF80128E9
:1029700000D108BD04F076FDFBE7000008B5024871
:1029800001F041F908BD00BF800C002008B50248E5
:1029900001F039F908BD00BFE00C002008B502487D
:1029A00001F031F908BD00BF200C002008B5024835
:1029B00003F0F6F908BD00BFD00F002008B50248AB
:1029C00003F0EEF908BD00BF601000200120704741
:1029D00008B508F0FFFE162303604FF0FF3008BD76
:1029E00008B54FF0FF31FFF7F3FFFEE770B50C4677
:1029F0001646002506E0AFF30080214601F8010BE2
:102A000001350C46B542F6DB304670BD70B50C465C
:102A10001646002504E014F8010BAFF300800135E1
:102A2000B542F8DB304670BD4FF0FF3070474FF4D1
:102A300000534B6000207047012070470020704712
:102A400010B503460C4A0D490D48006840B10C48CA
:102A500000680344521A934206D8094A136010BD15
:102A60000748084C0460F2E708F0B4FE0C2303604A
:102A70004FF0FF30F3E700BF0080002000040000AB
:102A80000011002028530020034AD2F8883043F474
:102A90007003C2F88830704700ED00E00D488546AD
:102AA0000D480E490E4A002302E0D458C4500433A6
:102AB000C4188C42F9D30B4A0B4C002301E013607D
:102AC0000432A242FBD3FFF7DFFF08F089FEFFF7D5
:102AD0005FFBFEE70080002000000020000B0020CC
:102AE000AC7D0108000B002028530020FEE7000009
:102AF000104B1B680BB90120704710B504464FF40A
:102B00007A70B0FBF3F30C4A1068B0FBF3F000F0FE
:102B10004DFF68B90F2C01D901200AE0002221469F
:102B20004FF0FF3000F0FCFE044B1C60002000E082
:102B3000012010BD18000020140000201C000020FF
:102B400010B5032000F0DAFE0F20FFF7D1FF10B11F
:102B50000124204610BD0446FFF76EFBF9E7000094
:102B6000034A1368034909680B441360704700BFA8
:102B70000411002018000020014B1868704700BFA6
:102B80000411002038B50446FFF7F6FF0546B4F1FE
:102B9000FF3F02D0044B1B681C44FFF7EDFF401BB6
:102BA000A042FAD338BD00BF1800002030B583B072
:102BB00000230193002800F00D810446C36D13B378
:102BC00023689A6812F0005F05D09A6822F02042CC
:102BD00022F03F029A602268936813F0805F1FD151
:102BE000936823F0104323F03F0343F08053936036
:102BF000794B1B689B09794AA2FB03239B0901338C
:102C00005B00019309E0FFF739FB0023236684F89A
:102C10005830D5E7019B013B0193019B002BF9D173
:102C20002268936813F0805F40F09C80E36D43F06E
:102C30001003E365236E43F00103236601209368CC
:102C400013F0040300D00123E16D11F0100F40F0E8
:102C5000BA80002B40F0B780E36D23F4817343F01A
:102C60000203E365936813F0010F15D14FF0A04301
:102C70009B6813F0010300D00123594A926812F0B7
:102C8000010200D00122134306D1636855498A68C6
:102C900022F47C1213438B60627FE36B43EA42337E
:102CA000E2681343A268134394F8242043EA0243E2
:102CB000012A59D0E26A22B102F47872216B0A43E8
:102CC00013432168CD68484A2A401343CB602268E9
:102CD000136923F04063616B0B43136121688B68B8
:102CE00013F0040300D001238A6812F0080200D018
:102CF000012243BB3ABB227F94F838305B0043EAA1
:102D00008232CB6823F4804323F002031343CB6069
:102D1000236973B32268136943F480331361226813
:102D2000D2F8C03023F47F5323F03F0321690B43D3
:102D3000C2F8C03094F84030012B29D022681369C2
:102D400023F0010313616369012B33D02268136BF5
:102D500023F00F031363E36D23F0030343F0010338
:102D6000E36535E000206AE7A26A013A43EA42439C
:102D7000A0E72268136923F4803313612268D2F834
:102D8000C03023F47F5323F03F03C2F8C030D1E7B3
:102D900021680B6923F4FF6323F00403626CA56CC4
:102DA0002A43E56C2A43256D2A43134343F001036C
:102DB0000B61C8E721680B6B23F00F03226A013A0D
:102DC00013430B63C7E7E36D43F01003E365012092
:102DD00003B030BD0120FBE714000020632D3E0549
:102DE00000010050000300500740F0FF2DE9F041C2
:102DF00004460E463F4B9F6807F01F078569082D64
:102E000011D057B1052F08D0092F06D0394B9B6838
:102E100013F4604F2CD1042505E02368DB6813F020
:102E2000010F1FD10425FFF7A7FE804623681A680B
:102E30002A4223D1B6F1FF3FF8D0FFF79DFEA0EB69
:102E40000800B04201D8002EF0D123681B682B4245
:102E5000ECD1E36D43F00403E365002384F85830BC
:102E6000032042E0E36D43F02003E36501203CE0F2
:102E7000C36D43F02003C365012036E0E26D42F4E8
:102E80000072E265DA6812F4406F11D1627F7AB99C
:102E90001A6812F0080F0BD0E26D22F48072E2651E
:102EA000E26D12F4805F03D1E26D42F00102E2654F
:102EB000114A934209D01A46934209D047B1052FCF
:102EC00006D0092F04D0D26803E04FF0A042F3E708
:102ED000DA68082D06D012F4804F08D10C221A604F
:102EE000002002E008221A600020BDE8F0810020E6
:102EF000FBE700BF00030050000100500368186C9E
:102F000070470000F0B583B00022019290F858207D
:102F1000012A00F05E820346012280F858200568ED
:102F2000A86810F0040F09D0DA6D42F02002DA65CB
:102F30000120002283F8582003B0F0BD4C683035E2
:102F4000220A920002F00C02A85804F01F0E1F245F
:102F500004FA0EF420EA04000C68C4F3846C0CFA42
:102F60000EFC40EA0C00A8501868826812F00402B7
:102F700000D00122846814F0080400D00124002A43
:102F80004FD1002C4DD18D68B5F1004F7CD00F682A
:102F900014307A0E920002F004028658C7F3045EE1
:102FA0004FF0070C0CFA0EFC26EA0C0C05FA0EF595
:102FB0004CEA050585501868426922F000424261DA
:102FC0004D691868C268C2F3C102520005FA02F2E4
:102FD0000E69042E70D0603050F82670A94D3D4027
:102FE0000F6807F0F8473A43154345F0004540F8AD
:102FF00026501A680E698869603252F8265025F00A
:103000008075284342F826001A680D69087F012858
:103010004FD0603252F8250020F00070044342F88F
:1030200025401A68906810F0010F12D10868CD6829
:10303000954CA54200F0A780D2F8B040C0F3120032
:1030400024EA0000C2F8B000C8688F4A904200F03D
:10305000A2800A688D490A4200F0B3818C498968D0
:1030600001F0E0708B4CA24200F062818A4CA242D7
:1030700000F05E81894CA24200F08081884CA2421F
:1030800000F08E81002054E70D6814306A0E920023
:1030900002F004028658C5F30455072707FA05F520
:1030A00026EA050585501868426942F000424261EF
:1030B00086E74FF00074ACE7026E046EC4F38464DC
:1030C0000A68C2F312057DBBC2F38462944233D016
:1030D0001C68626E606EC0F384600A68C2F31205F9
:1030E0007DBBC2F38462904233D01C68A26EA06E96
:1030F000C0F384600A68C2F312057DBBC2F3846228
:10310000904233D01C68E26EE06EC0F384600A68BF
:10311000C2F312057DBBC2F38462904281D1E26E9C
:1031200022F00042E2667CE792FAA2F212B1B2FA11
:1031300082F2CBE72022C9E7026E22F0004202664B
:10314000C6E792FAA2F212B1B2FA82F2CBE72022DB
:10315000C9E7626E22F000426266C6E792FAA2F206
:1031600012B1B2FA82F2CBE72022C9E7A26E22F0B6
:103170000042A266C6E792FAA2F212B1B2FA82F255
:10318000CBE72022C9E7D2F8B040C0F312002043B9
:10319000C2F8B00058E71C680A68C2F31205002D97
:1031A00038D1900E013000F01F0009288CBF00209C
:1031B0000120002876D0002D3BD1900E01308006F2
:1031C00000F0F840002D40D1960E013606F01F07A2
:1031D0000126BE403043002D45D1920E013202F04F
:1031E0001F0202EB420212050243886804F1140632
:1031F000550EAD0005F004057459C2F304524FF0AA
:10320000070C0CFA02FC24EA0C0C90404CEA00007B
:1032100070511EE792FAA2F048B1B0FA80F0013086
:1032200000F01F0009288CBF00200120C1E72020EA
:10323000F5E792FAA2F030B1B0FA80F001308006E2
:1032400000F0F840BEE72020F8E792FAA2F646B177
:10325000B6FA86F6013606F01F06012707FA06F6CB
:10326000B8E72026F6E792FAA2F242B1B2FA82F269
:10327000013202F01F0202EB42021205B4E72022E3
:10328000F6E700BF00F0FF0300007F400000088069
:1032900000030050000021C31000C090000052C77E
:1032A000000084CBCDB9900E0130800600F0F840CC
:1032B000FDB9960E013606F01F070126BE403043C9
:1032C0002DBB920E013202F01F0202EB42021E3AA7
:1032D000120542F00072024387E792FAA2F030B181
:1032E000B0FA80F00130800600F0F840E0E72020DE
:1032F000F8E792FAA2F646B1B6FA86F6013606F07B
:103300001F06012707FA06F6D9E72026F6E792FA04
:10331000A2F25AB1B2FA82F2013202F01F0202EBBB
:1033200042021E3A120542F00072D4E72022F3E76F
:1033300011F4000F7FF49EAE1A68B2F1A04F01D0D5
:103340000020F6E540F4000023498A6822F0E0728C
:1033500010438860214A126892092149A1FB021298
:103360009209013202EB420292000192019A1AB1D3
:10337000019A013A0192F9E70020DAE511F0807F25
:103380007FF47CAE1968174A91421CD040F08070DF
:1033900011498A6822F0E072104388600020C8E575
:1033A00011F4800F11D119680E4A91420FD040F4E8
:1033B00080020948816821F0E0710A4382600020A0
:1033C000B7E50020B5E50020B3E50020B1E5002019
:1033D000AFE50220B0E500BF00030050140000205C
:1033E000632D3E050001005070B5044603689A68DD
:1033F00012F0040200D00122986810F0080000D0FA
:1034000001200AB900286BD0DA6812F0007F04D0DE
:10341000A08B40F2011290424ED0022910D02368B6
:103420009A6812F0040F0BD09A6812F0020F07D1BD
:103430009A6822F0004222F03F0242F010029A60A5
:10344000012910D023689A6812F0080F0BD09A68EF
:1034500012F0020F07D19A6822F0004222F03F02D8
:1034600042F020029A60022934D0032934D10C257D
:10347000FFF782FB064623689B682B422ED0FFF79E
:103480007BFB801B0528F6D923689B682B42F2D072
:10349000E36D43F01003E365236E43F001032366FD
:1034A00001201CE0E36D43F01003E365236E43F05D
:1034B00001032366012012E00022196811F0400F79
:1034C00004D108498A42EDD80132F6E740221A6059
:1034D0000121A4E70825CBE70425C9E7002070BD3A
:1034E0000020FCE7FFFF3FA338B503689A6812F09D
:1034F000010F40D104469968204A114209D0C36D9A
:1035000043F01003C365036E43F00103036601201B
:1035100032E09A6822F0004222F03F0242F00102BB
:103520009A60FFF729FB054623681A6812F0010F1D
:103530001FD19A6812F0010F07D19A6822F0004259
:1035400022F03F0242F001029A60FFF715FB431B95
:10355000022BE9D923681B6813F0010FE4D1E36D56
:1035600043F01003E365236E43F00103236601205B
:1035700002E0002000E0002038BD00BF3F000080D6
:1035800038B53A4B9D6803689B6813F0040F69D106
:10359000044605F01F0590F85830012B64D0012334
:1035A00080F85830FFF7A0FF002857D1E36D23F4CF
:1035B000706323F0010343F48073E36523682C4AAE
:1035C00093422FD01A46934200D01DB9E26D22F4E7
:1035D0008012E265E26D12F4805F26D0226E22F046
:1035E000060222661C221A60002384F858302268E2
:1035F0001F4B9A421CD013469A421CD0DDB1052DB8
:1036000019D0092D17D0E26D42F48012E265DB6813
:1036100013F0007F27D0E36D23F4405343F480532D
:10362000E36520E04FF0A042CDE700222266D9E713
:103630004FF0A043E0E7D36813F0007F05D0E36DBF
:1036400023F4405343F48053E365936823F000432D
:1036500023F03F0343F00403936004E0002384F865
:10366000583000E0022038BD0220FCE70003005083
:103670000001005038B504460268936813F0020355
:1036800000D00123916811F0010F39D0002B39D1FE
:10369000936803F00D03012B09D0E36D43F0100391
:1036A000E365236E43F001032366012029E093685C
:1036B00023F0004323F03F0343F0020393602368A9
:1036C00003221A60FFF758FA054623689B6813F037
:1036D000010F13D0FFF750FA401B0228F5D92368D9
:1036E0009B6813F0010FF0D0E36D43F01003E36526
:1036F000236E43F001032366012002E0002000E076
:10370000002038BD0020FCE790F85830012B1AD07B
:1037100010B50446012380F858300321FFF764FEFA
:1037200018B1002384F8583010BD2046FFF7A2FFDF
:103730000028F6D1E36D23F4885323F0010343F00E
:103740000103E365EDE702207047000030B583B068
:103750000023019390F85830012B41D004460D46C8
:10376000012380F85830FFF785FF80BBE36D23F419
:10377000885323F0020343F00203E3652268936851
:1037800023F0404323F03F0305F080452B4343F0F3
:103790000043936023689B68002B06DBE36D23F0F6
:1037A000030343F00103E36515E0019B013301933B
:1037B000019A0C4B9A42EDD9E36D23F0120343F0CA
:1037C0001003E365002384F85830012006E0E36D20
:1037D00043F01003E365002384F8583003B030BD94
:1037E0000220FBE701DE040090F85820012A7FD078
:1037F00010B49DB00346012280F858200022189290
:1038000019920068B0F1A04F39D000220192019ABC
:10381000002A37D0926812F0040200D0012280689A
:1038200010F0040F54D1002A52D10A68002A32D075
:10383000304CA26822F46042486893F838C040EAED
:103840004C300243A2604FF0A042926812F0010295
:1038500000D001222848806810F0010000D001202B
:10386000024341D1234CA26822F4716222F00F027C
:103870000868896801430A43A26000202DE01E4ABF
:103880000192C4E7DA6D42F02002DA65002283F883
:103890005820012024E017498A6822F460428A6097
:1038A0004FF0A042926812F0010200D001221249AA
:1038B000896811F0010100D001210A4316D10D4998
:1038C0008A6822F4716222F00F028A60002004E00C
:1038D000DA6D42F02002DA650120002283F85820D8
:1038E0001DB05DF8044B70470020F6E70020F4E7B8
:1038F000022070470003005000010050074AD368BF
:1039000023F4E0631B041B0C000200F4E06003439B
:1039100043F0BF6343F40033D360704700ED00E031
:1039200000B5194BDB68C3F30223C3F1070CBCF1EC
:10393000040F28BF4FF0040C03F1040EBEF1060F74
:1039400018D9033B4FF0FF3E0EFA0CFC21EA0C01A4
:1039500099400EFA03F322EA0303194300280BDB14
:103960000901C9B200F1604000F5614080F8001320
:103970005DF804FB0023E5E700F00F000901C9B280
:10398000024B1954F4E700BF00ED00E014ED00E035
:10399000002807DB00F01F02400901239340024A80
:1039A00042F82030704700BF00E100E00138B0F17C
:1039B000807F0BD24FF0E0235861054AF02182F856
:1039C00023100020986107221A6170470120704778
:1039D00000ED00E003680C4A934213D80B49DBB2B8
:1039E000083B0B4AA2FB0323426C22F003020A4469
:1039F0008264084AC264C3F30413012202FA03F387
:103A0000036570470449EAE70704024000080240E2
:103A1000CDCCCCCC80080240200802400379074A74
:103A20001A4492004265064A8265013B03F01F0377
:103A3000012202FA03F3C365704700BF3F82001002
:103A40004009024000285BD010B5044601682D4BA8
:103A500099423DD82C4B0B442C4AA2FB03231B0953
:103A60009B0043642A4B0364022384F825300A68D0
:103A700022F4FF4222F07002A368E0680343206949
:103A8000034360690343A0690343E0690343206A79
:103A9000034313430B602046FFF79CFFA368B3F575
:103AA000804F20D0A36C22791A60E36C226D5A609B
:103AB0006368013B032B19D900236365A365E365A4
:103AC0000020E063012384F8253084F8240010BD31
:103AD000104B0B440D4AA2FB03231B099B004364BC
:103AE0000D4B0364C0E700236360DBE72046FFF76C
:103AF00095FF636D00221A60A36DE26D5A60DFE7E7
:103B00000120704707040240F8FFFDBFCDCCCCCCAC
:103B100000000240F8FBFDBF00040240034690F89D
:103B20002520D2B2022A09D00422C2630120012238
:103B300083F82520002283F82420704701680A6852
:103B400022F00E020A60816C0A6822F480720A6018
:103B500001680A6822F001020A60426C02F01F014B
:103B6000006C01228A404260DA6C196D51605A6D16
:103B700042B1116821F4807111609A6DD96D516064
:103B80000020D4E70020D2E708B590F82530DBB25A
:103B9000022B09D00423C363012380F825300022BF
:103BA00080F82420184608BD0268136823F00E032D
:103BB00013600268136823F001031360826C1368BA
:103BC00023F480731360436C03F01F02016C012324
:103BD00093404B60C36C026D5A60436D33B11A68F9
:103BE00022F480721A60836DC26D5A60012380F8DE
:103BF0002530002380F82430836B13B198470020D0
:103C0000D1E70020CFE738B5036C19680468256850
:103C1000436C03F01F0304229A400A4215D015F0AA
:103C2000040F12D0236813F0200F03D1236823F070
:103C300004032360436C03F01F02016C04239340D0
:103C40004B60036B03B1984738BD02229A400A4289
:103C50001CD015F0020F19D0236813F0200F06D1E5
:103C6000236823F00A032360012380F82530436C86
:103C700003F01F02016C022393404B60002380F885
:103C80002430C36A002BDFD09847DDE7082202FA10
:103C900003F30B42D8D015F0080FD5D0236823F0DA
:103CA0000E032360436C03F01F03016C012202FA30
:103CB00003F34B60C26380F82520002380F8243092
:103CC000436B002BC0D09847BEE7000010B4154BE3
:103CD00003640168D1F8802022F4F812446B42EAB0
:103CE0000442C1F88020104A42640168D1F8802063
:103CF00022F07062846B42EA0462C1F880200B4AB1
:103D00008264D832C264D83202651832426502E059
:103D1000002243F8042B064A9342F9D95DF8044B7C
:103D2000704700BF00A4004070A40040B0A4004051
:103D30004FA70040002800F0E38038B5044690F813
:103D40005C30D3B12268936923F010039361FEF7CE
:103D500013FF054623689A6912F0080F12D0FEF788
:103D60000BFF401B0A28F5D9236E43F0010323669D
:103D7000032384F85C30012038BD80F85D30FEF705
:103D800033FBDFE79A6942F001029A61FEF7F4FE25
:103D9000054623689A6912F0010F0DD1FEF7ECFE7B
:103DA000401B0A28F5D9236E43F001032366032341
:103DB00084F85C300120DFE79A6942F002029A61E0
:103DC0002268504B9A4242D0237C012B45D0226876
:103DD000936943F040039361637C012B43D02268D5
:103DE000936923F480439361A37C012B41D0226823
:103DF000936943F4805393612268936923F4407379
:103E0000A1680B4393612268936923F0A403936133
:103E10002268136923F010031361E368012B2ED08D
:103E2000002B31D0022B54D02268936943F08003D9
:103E300093612268136943F010031361E368032B55
:103E400022D12268936943F0200393611CE06268E9
:103E5000A3F58063C3F80025B6E72268936923F0D1
:103E600040039361B8E72268936943F48043936108
:103E7000BAE72268936923F480539361BCE7226810
:103E8000936943F004039361A3695A1EE369013BFC
:103E90001B0243EA4263226A013A13436269013A10
:103EA000216843EA0243CB61A368B3F5407F16D093
:103EB0002268D2F8C030E16B0B43C2F8C030204614
:103EC000FFF704FF0020A0652066012384F85C3022
:103ED00052E72268936943F020039361D4E7A36A11
:103EE000013BE26A013A43EA0223226B013A43EAC8
:103EF0000213626A013A216843EA0243CB60D7E7C2
:103F00000120704700640040F0B583B0002362E0F8
:103F100085685E000324B44025EA0405CC68B440FB
:103F20002C438460446824EA0C0C4C68C4F30014ED
:103F30009C4044EA0C0444605EE0DD08083550F81B
:103F4000256003F007044FEA840C0F2404FA0CF4F4
:103F500026EA040E0C6904FA0CF444EA0E0440F854
:103F6000254060E0052400E0002404FA0EF42C4310
:103F70000CF1020C554D45F82C40554CA568D44326
:103F800025EA02064F6817F4801F01D042EA0506B1
:103F90004F4DAE60ED6804EA05064F6817F4001F48
:103FA00001D042EA05064A4DEE606D6804EA050656
:103FB0004F6817F4003F01D042EA0506444D6E6099
:103FC0002D682C404E6816F4803F01D042EA05046B
:103FD0003F4A146001330A6832FA03F474D04FF098
:103FE000010C0CFA03FC1CEA0202F3D04C6804F04A
:103FF0000304013C012C8BD94C6804F00304032C0E
:104000000CD0C4685D004FF0030C0CFA05FC24EAE8
:104010000C0C8C68AC4044EA0C04C4604C6804F09E
:104020000304022C89D004684FEA430E4FF0030CBE
:104030000CFA0EFC24EA0C0C4C6804F0030404FA9D
:104040000EF444EA0C0404604C6814F4403FC1D000
:10405000204C256E45F001052566246E04F0010410
:104060000194019C4FEA930C0CF10205174C54F893
:10407000255003F003044FEA840E0F2404FA0EF4D3
:1040800025EA0405B0F1904F3FF46EAF124CA04208
:1040900012D004F58064A04210D004F58064A042E0
:1040A0000ED004F58064A0420CD004F58064A042D8
:1040B0003FF458AF062458E7012456E7022454E79A
:1040C000032452E7042450E703B0F0BD0000014090
:1040D0000004014000100240000400480369194236
:1040E00001D001207047002070470AB181617047FC
:1040F00081627047436901EA030221EA030141EA50
:1041000002418161704703689A6912F0020F01D081
:1041100000229A6203689A6912F0010F03D19A692A
:1041200042F001029A61704710B4019CC1F3090189
:1041300041EA02411943214321F0004102685368DA
:10414000640D04F4806444F07F7444F4583444F4FF
:104150007F7444F0030423EA0404214351605DF8B2
:10416000044B70472DE9F041044603689F6917F03E
:1041700010074CD00E4690461022DA6100252368C5
:10418000986910F0200F3BD1002D39D1B6F1FF3FD7
:10419000F5D0FEF7F1FCA0EB0800B04201D8002EEC
:1041A000EDD121684B6803F4804394F84220D2B2E9
:1041B000886910F4004F02D00BB9202A18D1236867
:1041C0009B6913F0200FDAD1FEF7D6FCA0EB0800B4
:1041D0001928F4D9636C43F020036364202384F826
:1041E0004130002384F8423084F840300125E6E76E
:1041F0004B6843F480434B60FEF7BEFC8046DEE72D
:10420000002D40D12022DA610427012500E000259D
:104210002268936913F4807F05D047F001074FF4BB
:104220008071D161012513F4806F06D047F0080733
:1042300022684FF48061D161012513F4007F24D0FE
:1042400047F0020723684FF40072DA610125204627
:10425000FFF759FF2268536823F0FF7323F48B3371
:1042600023F4FF7323F001035360636C1F436764FF
:10427000202384F84130002384F8423084F8403011
:104280002846BDE8F0810427C2E7002DF8D0DEE71C
:1042900070B504460D46164623689B6913F0020F5D
:1042A0001DD1324629462046FFF75CFFC8B9B5F15B
:1042B000FF3FF1D0FEF760FC801BA84201D8002D23
:1042C000EAD1636C43F020036364202384F8413017
:1042D000002384F8423084F84030012000E00020C0
:1042E00070BD0120FCE72DE9F041064688461746DF
:1042F0001D463468A46938EA04030CBF4FF0010C72
:104300004FF0000CBC4518D1B5F1FF3FF1D0FEF7DE
:1043100033FC069BC01AA84201D8002DE9D1736C6A
:1043200043F020037364202386F84130002386F88D
:10433000423086F84030012000E00020BDE8F081E6
:104340002DE9F04182B0044690461D46089E099F23
:10435000184B00930023EAB2FFF7E6FE3A463146D7
:104360002046FFF795FFF8B9012D0ED123685FFABB
:1043700088F29A6200973346002240212046FFF7D8
:10438000B2FFA8B902B0BDE8F08123684FEA182255
:104390009A623A4631462046FFF77AFF30B92368E1
:1043A0005FFA88F29A62E5E70120EBE70120E9E78E
:1043B0000120E7E70020008070B505460C46164650
:1043C0002B689B6913F0200F1AD1324621462846EC
:1043D000FFF7C8FEB0B9FEF7CFFB801BA04201D8A3
:1043E000002CEDD16B6C43F020036B64202385F827
:1043F0004130002385F8423085F84030012070BDFF
:104400000020FCE70120FAE7002859D010B5044647
:1044100090F84130002B43D0242384F841302268A7
:10442000136823F0010313606368226823F070634C
:1044300013612268936823F400439360E368012BBF
:1044400033D0A368226843F404439360E368022BEB
:1044500031D02268536843F0007343F40043536043
:104460002268D36823F40043D3602369626913434D
:10447000A169226843EA0123D360E369216A2268C3
:104480000B4313602268136843F00103136000209C
:104490006064202384F84130206384F8420010BD1A
:1044A00080F84030FDF7E8FFB6E7A368226843F4E0
:1044B00000439360CAE723684FF400625A60C8E77C
:1044C000012070472DE9F04F83B00E46BDF834A0AF
:1044D0000E9D90F84110C9B2202940F0BC800446DE
:1044E000904699460C9BCBB1BAF1000F16D090F8CC
:1044F0004030012B00F0B3804FF0010B80F840B04A
:10450000FEF73AFB0746009019235A464FF4004144
:104510002046FFF7E8FE30B101209DE04FF4007324
:104520006364012098E0222384F84130402384F81A
:104530004230002363640C9A6262A4F82AA0636389
:10454000019700954B46424631462046FFF7F8FE5C
:1045500070B9638D9BB2FF2B0FD9FF222285444B8C
:1045600000934FF0807331462046FFF7DDFD21E0D8
:10457000002384F8403058466EE0628D92B2228566
:104580003B4B00934FF00073D2B231462046FFF709
:10459000CBFD0FE0628D92B22285002300934FF095
:1045A0000073D2B231462046FFF7BEFD638D9BB249
:1045B000002B34D000972B46002204212046FFF721
:1045C00092FE00284DD123685A6A636A1A70636AA2
:1045D00001336362228D013A92B22285638D9BB2D0
:1045E000013B9BB26385638D9BB2002BDED0002A1A
:1045F000DCD100972B4680212046FFF774FE90BB4C
:10460000638D9BB2FF2BC5D9FF2222850023009327
:104610004FF0807331462046FFF786FDC6E73A46E5
:1046200029462046FFF7C8FEF8B923682022DA6140
:1046300021684B6823F0FF7323F48B3323F4FF735B
:1046400023F001034B6084F84120002384F84230BA
:1046500084F8403000E0022003B0BDE8F08F022073
:10466000FAE70120F8E70120F6E70120F4E700BFB0
:104670000024008090F84130DBB2202B24D190F848
:104680004030012B22D0012380F84030242380F8D1
:1046900041300268136823F0010313600268136855
:1046A00023F4805313600268136819431160026891
:1046B000136843F001031360202380F84130002386
:1046C00080F840301846704702207047022070473B
:1046D00090F84130DBB2202B22D190F84030012BF2
:1046E00020D0012380F84030242380F84130026834
:1046F000136823F0010313600268136823F47063E6
:1047000043EA012111600268136843F0010313605A
:10471000202380F84130002380F84030184670474D
:104720000220704702207047002836D13E4B1B689C
:1047300003F4C063B3F5806F08D03B4AD2F88030F1
:1047400023F48073C2F8803000207047364AD2F8D4
:10475000803023F48073C2F88030136823F4C06380
:1047600043F400731360314B1B68322202FB03F3E6
:104770002F4AA2FB03239B0C013300E0013B2A4A92
:10478000526912F4806F01D0002BF7D1264B5B6980
:1047900013F4806F44D100207047B0F5007F08D03B
:1047A000214A136823F4C06343F48063136000203C
:1047B00070471D4B1B6803F4C063B3F5806F08D0CE
:1047C000194AD2F8803043F48073C2F88030002058
:1047D0007047154AD2F8803043F48073C2F88030B5
:1047E000136823F4C06343F4007313600F4B1B681A
:1047F000322202FB03F30E4AA2FB03239B0C01337C
:1048000000E0013B084A526912F4806F01D0002B8E
:10481000F7D1054B5B6913F4806F03D1002070471B
:1048200003207047032070470070004014000020F0
:1048300083DE1B43024A936843F4804393607047CE
:1048400000700040124BDA6802F00302D868C0F32F
:104850000310431C032A11D00E48B0FBF3F00C4B9D
:10486000DB68C3F3062303FB00F0094BDB68C3F3EB
:10487000416301335B00B0FBF3F070470648B0FBC7
:10488000F3F0034BDB68C3F3062303FB00F0ECE714
:10489000001002400024F40000127A00002800F00A
:1048A000548270B582B00446036813F0010F37D00C
:1048B000A44A936803F00C03D26802F003020C2BA5
:1048C00023D0082B23D06368B3F5803F4ED0B3F5D7
:1048D000A02F51D09B4B1A6822F480321A601A68BC
:1048E00022F480221A606368002B52D0FEF744F94C
:1048F0000546944B1B6813F4003F11D1FEF73CF9B9
:10490000401B6428F5D9032028E2032AD9D18D4B16
:104910001B6813F4003F03D06368002B00F017827C
:10492000236813F0020F5DD0864A936803F00C03EE
:10493000D26802F003020C2B3AD0042B3AD0E36881
:10494000002B75D07F4A136843F480731360FEF721
:1049500013F905467B4B1B6813F4806F5FD1FEF79C
:104960000BF9401B0228F5D90320F7E1754A1368BB
:1049700043F480331360B6E703F18043A3F53C337F
:104980001A6842F480221A601A6842F480321A606F
:10499000A9E7FEF7F1F805466A4B1B6813F4003FE0
:1049A000BED0FEF7E9F8401B6428F5D90320D5E115
:1049B000022AC2D1634B1B6813F4806F03D0E368F3
:1049C000002B00F0C6815F4A536823F0FE43216943
:1049D00043EA016353605C4B1868FEF789F80028CE
:1049E00040F0B981236813F0080F4CD063699BB382
:1049F000544AD2F8943043F00103C2F89430FEF7E1
:104A0000BBF805464F4BD3F8943013F0020F3AD160
:104A1000FEF7B2F8401B0228F4D903209EE1494A70
:104A2000536823F0FE43216943EA01635360D9E7E9
:104A3000444A136823F480731360FEF79DF805461B
:104A4000404B1B6813F4806FCCD0FEF795F8401BE9
:104A50000228F5D9032081E13A4AD2F8943023F0B4
:104A60000103C2F89430FEF787F80546354BD3F8BA
:104A7000943013F0020F06D0FEF77EF8401B022898
:104A8000F4D903206AE1236813F0040F00F0818059
:104A90002C4B9B6D13F0805F36D12A4B9A6D42F000
:104AA00080529A659B6D03F080530193019B012511
:104AB000264B1B6813F4807F28D0A368012B39D0C4
:104AC000052B45D01F4BD3F8902022F00102C3F8EC
:104AD0009020D3F8902022F00402C3F89020A3681D
:104AE000002B43D0FEF748F80646164BD3F890301B
:104AF00013F0020F4CD1FEF73FF8801B41F28833D0
:104B00009842F2D9032029E10025D1E70F4A136822
:104B100043F480731360FEF72FF806460B4B1B68B7
:104B200013F4807FC9D1FEF727F8801B0228F5D93E
:104B3000032013E1034AD2F8903043F00103C2F896
:104B40009030CCE7001002401C00002000700040B4
:104B50008A4BD3F8902042F00402C3F89020D3F897
:104B6000902042F00102C3F89020B8E7FEF704F865
:104B70000646824BD3F8903013F0020F08D0FDF7B1
:104B8000FBFF801B41F288339842F2D90320E5E015
:104B9000E5B9236813F0200F35D0A369E3B1774A54
:104BA000D2F8983043F00103C2F89830FDF7E4FFE3
:104BB0000546724BD3F8983013F0020F23D1FDF75E
:104BC000DBFF401B0228F4D90320C7E06B4A936D3A
:104BD00023F080539365DCE7684AD2F8983023F0DD
:104BE0000103C2F89830FDF7C7FF0546634BD3F8C1
:104BF000983013F0020F06D0FDF7BEFF401B0228CD
:104C0000F4D90320AAE0E369002B00F0A6805B4AF8
:104C1000926802F00C020C2A69D0022B1DD0574B6F
:104C20001A6822F080721A60DA6822F00302DA60F1
:104C3000DA6822F0887222F48032DA60FDF79CFF95
:104C400004464E4B1B6813F0007F4ED0FDF794FFD7
:104C5000001B0228F5D9032080E0484A136823F09E
:104C600080731360FDF788FF0546444B1B6813F003
:104C7000007F06D0FDF780FF401B0228F5D90320F6
:104C80006CE03E4AD3683E491940236A606A0138A5
:104C900043EA0013A06A43EA0023206B400801386E
:104CA00043EA4053606B4008013843EA4063E06ADE
:104CB00043EAC0630B43D360136843F0807313600F
:104CC000D36843F08073D360FDF756FF04462B4B47
:104CD0001B6813F0007F06D1FDF74EFF001B022872
:104CE000F5D903203AE0002038E0002036E0012B1F
:104CF00036D0224BDB6803F00301226A914231D1A6
:104D000003F0F002616A0139B2EB011F2CD103F408
:104D1000FE42A16AB2EB012F28D103F07842E16A8A
:104D2000B2EBC16F24D103F4C001226B5208013AE7
:104D3000B1EB425F1ED103F0C063626B5208013ACF
:104D4000B3EB426F18D1002008E00120704701202A
:104D500004E0012002E0012000E0002002B070BD6C
:104D60000120FBE70120F9E70120F7E70120F5E743
:104D70000120F3E70120F1E70120EFE700100240F6
:104D80000C809F011E4B9B6803F00C03042B33D057
:104D90001B4B9B6803F00C03082B2FD0184B9B6810
:104DA00003F00C030C2B01D000207047144BDA6881
:104DB00002F00302D868C0F30310431C032A11D089
:104DC0001048B0FBF3F00E4BDB68C3F3062303FB84
:104DD00000F00B4BDB68C3F3416301335B00B0FBB6
:104DE000F3F070470848B0FBF3F0054BDB68C3F302
:104DF000062303FB00F0ECE70248704702487047C7
:104E0000001002400024F40000127A00002800F094
:104E1000E680F8B50C460546744B1B6803F00F039B
:104E20008B420BD2714A136823F00F030B431360BC
:104E3000136803F00F038B4240F0D3802E6816F006
:104E400001065FD06B68032B2FD0022B4DD0684B2F
:104E50001B6813F4806F00F0C680FFF793FF654B6B
:104E600098424DD9624A936823F0F00343F08003DF
:104E7000936080265E4A936823F0030369680B43BE
:104E80009360FDF779FE0746594B9B6803F00C03CE
:104E90006A68B3EB820F35D0FDF76EFEC01B41F29E
:104EA00088339842F0D9032078E0514B1B6813F007
:104EB000007F01D1012071E0FFF7C4FC4D4B984207
:104EC0001AD94B4B9B6813F0F00F05D02E6816F0E3
:104ED0000206CFD0AB688BB9454A936823F0F00344
:104EE00043F0800393608026C4E7414B1B6813F4B2
:104EF000003FB2D1012051E00026BBE70026B9E710
:104F00000026B7E72B6813F0020F48D013F0040F08
:104F100004D0374A936843F4E06393602B6813F03E
:104F2000080F06D0324A936823F47C5343F4E063BD
:104F300093602F4A936823F0F003A9680B439360B2
:104F40002A4B1B6803F00F03A34230D82B6813F0E1
:104F5000040F06D0264A936823F4E063E9680B4304
:104F600093602B6813F0080F07D0214A936823F44D
:104F70006053296943EAC1039360FFF703FF1C4BA9
:104F80009B68C3F303131C4AD35C03F01F03D84090
:104F90001A4B18601A4B1868FDF7AAFDF8BD802E51
:104FA000CED1134A936823F0F0039360C8E70F4A09
:104FB000136823F00F0323431360FDF7DDFD06465E
:104FC0000A4B1B6803F00F03A342BFD0FDF7D4FDCB
:104FD000801B41F288339842F2D90320DEE701209A
:104FE00070470120DAE70120D8E700BF0020024027
:104FF0000010024000B4C4042C7301081400002007
:105000001C000020014B1868704700BF14000020EE
:1050100008B5FFF7F7FF054B9B68C3F30223044A6B
:10502000D35C03F01F03D84008BD00BF001002404E
:105030003C73010808B5FFF7E5FF054B9B68C3F318
:10504000C223044AD35C03F01F03D84008BD00BF4D
:10505000001002403C730108F0B583B004460368B9
:1050600013F4002F69D0AE4B9B6D13F0805F1ED1FF
:10507000AB4B9A6D42F080529A659B6D03F0805362
:105080000193019B0126A74A136843F480731360C0
:10509000FDF772FD0546A34B1B6813F4807F08D112
:1050A000FDF76AFD401B0228F5D9032502E0002622
:1050B000E9E7002545BB9A4BD3F8903013F44073D1
:1050C00015D0226C9A4212D0954AD2F8903023F42F
:1050D0004073D2F8901041F48031C2F89010D2F8A9
:1050E000901021F48031C2F89010C2F8903013F083
:1050F000010F10D145B98A4AD2F8903023F4407399
:10510000216C0B43C2F89030C6B1854A936D23F0F1
:105110008053936512E0FDF72FFD0746804BD3F8CF
:10512000903013F0020FE5D1FDF726FDC01B41F2D0
:1051300088339842F2D90325DCE70025236813F071
:10514000010F08D0764AD2F8883023F00303616853
:105150000B43C2F88830236813F0020F08D0704A5E
:10516000D2F8883023F00C03A1680B43C2F88830D2
:10517000236813F0040F08D0694AD2F8883023F06E
:105180003003E1680B43C2F88830236813F0080F3E
:1051900008D0634AD2F8883023F0C00321690B435A
:1051A000C2F88830236813F0200F08D05C4AD2F888
:1051B000883023F4406361690B43C2F88830236868
:1051C00013F0400F08D0564AD2F8883023F44053E9
:1051D000A1690B43C2F88830236813F0800F08D010
:1051E0004F4AD2F8883023F44043E1690B43C2F8B8
:1051F0008830236813F4807F08D0494AD2F8883079
:1052000023F44033216A0B43C2F88830236813F437
:10521000007F08D0424AD2F8883023F44023616AE4
:105220000B43C2F88830236813F4806F0CD03C4ADB
:10523000D2F8883023F44013A16A0B43C2F88830B7
:10524000A36AB3F5801F57D0236813F4006F0CD006
:10525000334AD2F8883023F44003E16A0B43C2F8A2
:105260008830E36AB3F5800F4BD0236813F4805F76
:105270000CD02B4AD2F8883023F04073216B0B43BB
:10528000C2F88830236BB3F1807F3FD0236813F4DA
:10529000005F0CD0224AD2F8883023F04063616B63
:1052A0000B43C2F88830636BB3F1006F33D02368CF
:1052B00013F4804F0CD01A4AD2F8883023F04063A0
:1052C000A16B0B43C2F88830A36BB3F1006F2BD0F6
:1052D000236813F4004F0CD0114AD2F8883023F021
:1052E0004053E16B0B43C2F88830E36BB3F1805F4E
:1052F0001FD0284603B0F0BDD36843F48013D360B9
:10530000A2E7D36843F48013D360AEE7D36843F4D5
:105310008013D360BAE7D36843F48013D360C6E741
:105320000010024000700040D36843F48013D36043
:10533000CEE7D36843F48033D360DAE700286FD038
:1053400010B50446436A33B94368B3F5827F05D08C
:105350000023C36102E00023036143610023A362D1
:1053600094F85D30002B52D0022384F85D3022681F
:10537000136823F040031360E368B3F5E06F4CD982
:105380000022B3F5706F04D0B3F5E06F01D00023B5
:10539000A362636803F48273A16801F404410B43C0
:1053A000216901F002010B43616901F001010B4326
:1053B000A16901F400710B43E16901F038010B436D
:1053C000216A01F080010B43A16A01F400512068B9
:1053D0000B430360638B03F00403616A01F0100167
:1053E0000B43616B01F008010B43E16801F470614C
:1053F0000B43216813434B602268D36923F4006395
:10540000D36100202066012384F85D3010BD84F84C
:105410005C302046FDF7BAF8A6E74FF48052B0E7BB
:105420000120704730B4036A23F001030362036A6A
:105430004568826922F4803222F073020C682243AC
:1054400023F002038C6823431D4CA0420FD004F5C7
:105450000064A0420BD004F54064A04207D004F5DC
:105460008064A04203D004F58064A04205D123F0FB
:105470000803CC68234323F00403114CA0420FD04F
:1054800004F50064A0420BD004F54064A04207D0AC
:1054900004F58064A04203D004F58064A04207D1E3
:1054A00025F4407C4C6944EA0C0C8D6945EA0C05F6
:1054B000456082614A684263036230BC704700BF46
:1054C000002C014030B4036A23F480730362036A42
:1054D0004468C26922F4803222F073020D682A43C4
:1054E00023F400738D6843EA0523184DA84203D0C6
:1054F00005F50065A84206D123F40063CD6843EAB0
:10550000052323F48063114DA8420FD005F50065F3
:10551000A8420BD005F54065A84207D005F5806587
:10552000A84203D005F58065A84207D124F4405C69
:105530004C694CEA041C8C694CEA04144460C26156
:105540004A68C263036230BC704700BF002C014050
:1055500030B4036A23F480530362036A4468C26967
:1055600022F0807222F4E6420D6842EA052223F41A
:1055700000538D6843EA0533174DA84203D005F563
:105580000065A84206D123F40043CD6843EA053301
:1055900023F48043104DA8420FD005F50065A842C2
:1055A0000BD005F54065A84207D005F58065A842F7
:1055B00003D005F58065A84207D124F4404C4C691E
:1055C0004CEA841C8C694CEA84144460C2614A68C9
:1055D0000264036230BC7047002C014030B4036A9F
:1055E00023F480330362036A4468026D22F480323C
:1055F00022F070020D682A4323F400338D6843EAD9
:1056000005430F4DA8420FD005F50065A8420BD009
:1056100005F54065A84207D005F58065A84203D08E
:1056200005F58065A84204D124F480344D6944EA2C
:105630000524446002654A688264036230BC704796
:10564000002C014030B4036A23F480130362036A20
:105650004468026D22F0807222F4E0420D6842EA52
:10566000052223F400138D6843EA05530F4DA84229
:105670000FD005F50065A8420BD005F54065A8429E
:1056800007D005F58065A84203D005F58065A842DE
:1056900004D124F480244D6944EA852444600265E1
:1056A0004A68C264036230BC704700BF002C0140EE
:1056B00003682C4A90420ED0B0F1804F0BD0A2F577
:1056C0009432904207D002F58062904203D002F5F6
:1056D0009632904203D123F070034A681343214A63
:1056E00090421AD0B0F1804F17D0A2F59432904278
:1056F00013D002F5806290420FD002F596329042AC
:105700000BD002F54062904207D002F580629042D1
:1057100003D002F58062904203D123F44073CA683B
:10572000134323F080034A69134303608B68C36209
:105730000B6883620B4B98420FD003F500639842CD
:105740000BD003F54063984207D003F5806398427D
:1057500003D003F58063984201D10B6903630123F1
:1057600043617047002C014060B310B5044690F8C7
:105770003D3013B3022384F83D30214651F8040B29
:10578000FFF796FF012384F8483084F83E3084F810
:105790003F3084F8403084F8413084F8423084F857
:1057A000433084F8443084F8453084F8463084F837
:1057B000473084F83D30002010BD80F83C30FCF7C5
:1057C00035FFD7E701207047002856D0F8B50D46C1
:1057D000044690F83D30002B4AD0022384F83D3037
:1057E0002268936823F4A03323F0070393602146D3
:1057F00051F8040BFFF75CFF21688A688B690E6A19
:105800002868104323F4407C2CF0030CAA68AB6991
:1058100042EA032343EA0C0323F47C4323F0FC0312
:10582000EA69EF6847EA022C4CEA030C2A6A130380
:105830002A6943EA021343EA0C0326F0AA066A68BF
:105840006D6942EA05123243886021688B612368E2
:105850001A62012384F8483084F83E3084F83F30DF
:1058600084F8443084F8453084F83D300020F8BD99
:1058700080F83C30FCF710FFAFE7012070470000D4
:1058800030B4036A23F010030362036A4468826938
:1058900022F0807222F4E6420D6842EA052223F0EB
:1058A00020038D6843EA0513174DA84203D005F580
:1058B0000065A84206D123F08003CD6843EA0513B2
:1058C00023F04003104DA8420FD005F50065A84213
:1058D0000BD005F54065A84207D005F58065A842C4
:1058E00003D005F58065A84207D124F4406C4C69CB
:1058F0004CEA840C8C694CEA8404446082614A68F6
:105900008263036230BC7047002C014038B590F8C8
:105910003C30012B00F0958004460D46012380F8B1
:105920003C30142A00F28880DFE802F00B8686867D
:105930001F86868634868686488686865D86868627
:1059400071000068FFF76EFD2268936943F0080359
:1059500093612268936923F0040393612268936939
:1059600029690B439361002067E00068FFF788FF17
:105970002268936943F4006393612268936923F476
:105980008063936122689369296943EA01239361E3
:10599000002052E00068FFF795FD2268D36943F0CC
:1059A0000803D3612268D36923F00403D36122681A
:1059B000D36929690B43D36100203EE00068FFF7FB
:1059C000C7FD2268D36943F40063D3612268D369B9
:1059D00023F48063D3612268D369296943EA0123F0
:1059E000D361002029E00068FFF7F8FD2268136DFD
:1059F00043F0080313652268136D23F00403136555
:105A00002268136D29690B431365002015E00068B7
:105A1000FFF718FE2268136D43F4006313652268D4
:105A2000136D23F4806313652268136D296943EABB
:105A300001231365002000E00120002384F83C309E
:105A400038BD0220FCE701F01F01012303FA01FC2D
:105A5000036A23EA0C030362036A02FA01F10B43AF
:105A60000362704710B504460846002947D194F8F0
:105A70003E30DBB2013B18BF0123002B40F0948085
:105A8000002867D1022384F83E30012201462068B5
:105A9000FFF7D9FF2368474A93420FD002F500620F
:105AA00093420BD002F54062934207D002F5806228
:105AB000934203D002F58062934203D15A6C42F4C0
:105AC00000425A6423683B4A93425FD0B3F1804F4F
:105AD0005CD0A2F59432934258D002F58062934292
:105AE00054D002F59632934250D002F54062934270
:105AF0004CD01A6842F001021A60002055E00429D7
