:020000040800F2
:1000000000800020B9130008711300087313000862
:10001000751300087713000879130008000000002A
:100020000000000000000000000000000143000884
:100030007B13000800000000A14300087D130008A6
:10004000091400080914000809140008091400081C
:10005000091400080914000809140008091400080C
:100060000914000809140008091400089513000871
:1000700009140008091400080914000809140008EC
:100080000914000800000000091400080914000801
:1000900009140008091400080914000809140008CC
:1000A00009140008091400080914000809140008BC
:1000B00009140008091400080914000809140008AC
:1000C000091400080914000809140008091400089C
:1000D000091400080914000809140008091400088C
:1000E000091400080914000809140008091400087C
:1000F0000914000809140008091400080000000091
:1001000000000000091400080000000009140008A5
:100110000914000800000000091400080914000870
:10012000091400080914000809140008091400083B
:100130000914000800000000000000000914000875
:100140000914000809140008000000000000000065
:10015000000000000000000000000000000000009F
:10016000000000000000000000000000091400086A
:10017000091400080000000000000000000000005A
:10018000000000000914000800000000000000004A
:10019000000000000000000000000000000000005F
:1001A0000000000000000000091400080914000805
:1001B00009140008091400080914000800000000D0
:1001C000000000000914000800000000000000000A
:0801D0000914000809140008DD
:1001E00010B5054C237833B9044B13B10448AFF371
:1001F00000800123237010BD3C040020000000009B
:100200007C50000808B5034B1BB103490348AFF30A
:10021000008008BD00000000400400207C50000861
:1002200053B94AB9002908BF00281CBF4FF0FF315D
:100230004FF0FF3000F074B9ADF1080C6DE904CE59
:1002400000F006F8DDF804E0DDE9022304B07047B1
:100250002DE9F047089D04468E46002B4DD18A4279
:10026000944669D9B2FA82F252B101FA02F3C2F1AC
:10027000200120FA01F10CFA02FC41EA030E94403D
:100280004FEA1C48210CBEFBF8F61FFA8CF708FB5E
:1002900016E341EA034306FB07F199420AD91CEB36
:1002A000030306F1FF3080F01F81994240F21C8168
:1002B000023E63445B1AA4B2B3FBF8F008FB1033B0
:1002C00044EA034400FB07F7A7420AD91CEB0404E5
:1002D00000F1FF3380F00A81A74240F207816444B5
:1002E000023840EA0640E41B00261DB1D44000233A
:1002F000C5E900433146BDE8F0878B4209D9002D9E
:1003000000F0EF800026C5E9000130463146BDE827
:10031000F087B3FA83F6002E4AD18B4202D3824291
:1003200000F2F980841A61EB030301209E46002D40
:10033000E0D0C5E9004EDDE702B9FFDEB2FA82F295
:10034000002A40F09280A1EB0C014FEA1C471FFAF3
:100350008CFE0126200CB1FBF7F307FB131140EADA
:1003600001410EFB03F0884208D91CEB010103F1A7
:10037000FF3802D2884200F2CB804346091AA4B269
:10038000B1FBF7F007FB101144EA01440EFB00FE3D
:10039000A64508D91CEB040400F1FF3102D2A645A2
:1003A00000F2BB800846A4EB0E0440EA03409CE741
:1003B000C6F12007B34022FA07FC4CEA030C20FAEE
:1003C00007F401FA06F31C43F9404FEA1C4900FA0E
:1003D00006F3B1FBF9F8200C1FFA8CFE09FB18118B
:1003E00040EA014108FB0EF0884202FA06F20BD9FE
:1003F0001CEB010108F1FF3A80F08880884240F24E
:100400008580A8F102086144091AA4B2B1FBF9F091
:1004100009FB101144EA014100FB0EFE8E4508D98C
:100420001CEB010100F1FF346CD28E456AD9023811
:10043000614440EA0840A0FB0294A1EB0E01A142F6
:10044000C846A64656D353D05DB1B3EB080261EB64
:100450000E0101FA07F722FA06F3F1401F43C5E93E
:10046000007100263146BDE8F087C2F12003D84074
:100470000CFA02FC21FA03F3914001434FEA1C47B6
:100480001FFA8CFEB3FBF7F007FB10360B0C43EAA8
:10049000064300FB0EF69E4204FA02F408D91CEB58
:1004A000030300F1FF382FD29E422DD90238634456
:1004B0009B1B89B2B3FBF7F607FB163341EA0341F6
:1004C00006FB0EF38B4208D91CEB010106F1FF3845
:1004D00016D28B4214D9023E6144C91A46EA00463C
:1004E00038E72E46284605E70646E3E61846F8E6CE
:1004F0004B45A9D2B9EB020864EB0C0E0138A3E717
:100500004646EAE7204694E74046D1E7D0467BE7F7
:10051000023B614432E7304609E76444023842E76F
:10052000704700BF70B58AB0002405940694079404
:10053000089409942B4BDA6C42F02002DA64DA6CEE
:1005400002F020020192019ADA6C42F00402DA64AD
:10055000DA6C02F004020292029ADA6C42F00102B2
:10056000DA64DA6C02F001020392039ADA6C42F068
:100570000202DA64DB6C03F002030493049B22465C
:1005800058214FF0904001F021FF174E22460721DD
:10059000304601F01BFF582305930125069507946B
:1005A000089405A94FF0904001F026FE2023059302
:1005B0000694079505A90D4801F01EFE0723059333
:1005C00006950794089405A9304601F015FE4FF4EE
:1005D000784305930694079505A9304601F00CFE73
:1005E0000AB070BD00100240000400480008004836
:1005F00000B583B00E4B9A6C42F004029A649A6C78
:1006000002F004020092009A9A6C42F001029A648D
:100610009B6C03F001030193019B002205210B2039
:1006200001F06CFB0B2001F0A1FB03B05DF804FBB3
:100630000010024008B5012003F0C2FDFBE772B6CE
:10064000FEE7000010B58CB0002409940A940B94C6
:100650002022214601A804F04FFC1E484FF0A04381
:1006600003604FF4403343608460C46004614461BC
:1006700004238361047744770123036280F82440D4
:10068000C462046380F83840C46380F8404000F0DE
:1006900007FFC8B90023099309A90E4801F092FA8F
:1006A000A0B90D4B019306230293002303937F22ED
:1006B00004920422059206930DEB0201054801F015
:1006C0000FF828B90CB010BDFFF7B9FFFFF7B7FF5F
:1006D000FFF7B5FF5C0400200200300400B589B0CC
:1006E00020220021684604F007FC1A481A4B0360D8
:1006F0004FF44033436000238360C3600361436170
:1007000004228261037743770122026280F8243059
:10071000C362036380F83830C36380F8403000F070
:10072000BFFE90B90D4B0093062301930023029363
:100730007F2203920422049205936946054800F043
:10074000CFFF20B909B05DF804FBFFF778FFFFF792
:1007500076FF00BFC8040020000100508000501D3B
:1007600008B50F480F4B0360002343608360C360EC
:100770000374437483741022426101228261022156
:10078000C161016242628262C26202634363836347
:10079000C36301F047FC00B908BDFFF750FF00BF7D
:1007A000940500200064004008B51348134B036013
:1007B000A3F17663A3F57B23A3F614234360002300
:1007C00083600122C260036143618361C36103628C
:1007D00001F001FE50B90021074801F05AFE38B976
:1007E0000021054801F083FE20B908BDFFF727FF6F
:1007F000FFF725FFFFF723FFF80500200058004012
:1008000008B50F480F4B03604FF482734360002319
:1008100083604FF44072C260036143614FF4007221
:1008200082610822C2610362436283620721C1625E
:100830000363426302F092FC00B908BDFFF7FFFEBC
:10084000900600200030014010B598B000241594A7
:10085000169417940E940F94109411941294139468
:1008600014943422214601A804F046FB2E482F4B55
:100870000360A023436084604FF47A73C360046113
:100880004461846102F0B2FE002840D10023159338
:100890001693179315A9244803F054F8002838D16B
:1008A00060230E9300220F921092119212921392D3
:1008B00014920EA91C4802F0A8FF00282BD1042294
:1008C0000EA9194802F0A1FF38BB08220EA916484C
:1008D00002F09BFF18BB0023019302930393049340
:1008E00005934FF4005206920793089309934FF033
:1008F00000720A920B930C930D9301A90A4803F01E
:100900006BF870B9084800F031FC18B010BDFFF763
:1009100096FEFFF794FEFFF792FEFFF790FEFFF7BB
:100920008EFEFFF78CFE00BFF4060020002C014075
:1009300000B58BB0002307930893099300930193AC
:100940000293039304930593069323484FF0804248
:100950000260A022426083604FF47A72C260036139
:10096000836102F043FE50BB1B4802F00FFE40BB08
:1009700000230793099307A9174802F0E3FF10BB70
:100980006023009300220192029204926946124869
:1009900002F03BFFC8B9042269460F4802F035FF58
:1009A000A8B900230093082269460B4802F0F0FE24
:1009B00078B9094800F0DAFB0BB05DF804FBFFF7EB
:1009C0003EFEFFF73CFEFFF73AFEFFF738FEFFF76B
:1009D00036FEFFF734FE00BF4007002008B515487B
:1009E000154B03604FF4E133436000238360C36021
:1009F00003610C2242618361C361036243628362CB
:100A000003F0F7FA70B900210A4803F06AFB58B9FD
:100A10000021084803F08AFB40B9064803F042FB76
:100A200030B908BDFFF70BFEFFF709FEFFF707FE21
:100A3000FFF705FE240800200038014008B51548DE
:100A4000154B03604FF4E133436000238360C360C0
:100A500003610C2242618361C3610362436283626A
:100A600003F0C7FA70B900210A4803F03AFB58B9FD
:100A70000021084803F05AFB40B9064803F012FB76
:100A800030B908BDFFF7DBFDFFF7D9FDFFF7D7FD54
:100A9000FFF7D5FDB40800200048004000B58DB038
:100AA0002422002103A804F027FA002300930193D5
:100AB00002931048104A0260436083604FF6FF7251
:100AC000C26003618361012303930593099303A922
:100AD00002F0BCFD50B9002300930293694605481B
:100AE00002F030FF20B90DB05DF804FBFFF7A7FD61
:100AF000FFF7A5FD8C0700200004004008B513484F
:100B0000134B0360A3F17663A3F57D23A3F61423AF
:100B10004360002383600122C260036143618361FB
:100B2000C361036201F057FC50B90021074801F08E
:100B3000B0FC38B90021054801F0D9FC20B908BD46
:100B4000FFF77DFDFFF77BFDFFF779FD44060020F1
:100B50000078004010B598B00024159416941794AE
:100B60000E940F94109411941294139414943422AC
:100B7000214601A804F0C0F929482A4B03604460CB
:100B800084604FF6FF73C36004614461846102F0C6
:100B90002DFD002839D1002315931693179315A91D
:100BA0001F4802F0CFFE002831D160230E930022AF
:100BB0000F92109211921292139214920EA9184849
:100BC00002F023FE28BB04220EA9154802F01DFEE8
:100BD00008BB0023019302930393049305934FF4FE
:100BE000005206920793089309934FF000720A92FD
:100BF0000B930C930D9301A9094802F0EDFE60B927
:100C0000074800F0B3FA18B010BDFFF718FDFFF762
:100C100016FDFFF714FDFFF712FDFFF710FD00BFF3
:100C2000D80700200034014000B595B038220021DB
:100C300006A804F061F9002001900290039004904E
:100C4000059001F081FC022306934FF48072099213
:100C500040220A920D930E930F9328221092119323
:100C60001293139306A801F029FD80B90F23019375
:100C700003230293002303930493059304210DEBB4
:100C8000010001F0D3FF20B915B05DF804FBFFF7B8
:100C9000D6FCFFF7D4FC000000B587B000F0DEFB07
:100CA000FFF7C2FFFFF73EFCFFF7A2FCFFF7CAFC0D
:100CB000FFF714FDFFF754FDFFF776FDFFF7A0FDEA
:100CC000FFF7C2FDFFF734FEFFF788FEFFF7B6FE21
:100CD000FFF7E4FEFFF712FFFFF73CFF0DF1040CF6
:100CE000074C0FCCACE80F002368CCF80030002193
:100CF00001A803F04BFA034B186003F042FAFEE739
:100D0000945000085804002000B583B00E4B1A6EB2
:100D100042F001021A661A6E02F001020092009A75
:100D20009A6D42F080529A659B6D03F08053019357
:100D3000019B00220F216FF0010000F0DFFF01F0A6
:100D400089FC03B05DF804FB0010024010B59AB0B6
:100D5000044600211591169117911891199144227A
:100D600004A804F0C9F82368B3F1A04F04D0364AB0
:100D7000934235D01AB010BD4FF4004304934FF0A6
:100D80000053139304A802F077F8D8B92F4A1368D8
:100D900001331360012B18D02D4BDA6C42F00102A5
:100DA000DA64DB6C03F001030193019B07231593C5
:100DB000032316930023179315A94FF0904001F0D9
:100DC0001BFAD7E7FFF73BFCE0E7214BDA6C42F474
:100DD0000052DA64DB6C03F400530093009BDBE702
:100DE0004FF4004304934FF00053139304A802F010
:100DF00043F8D0B9154A136801331360012B17D09B
:100E0000134BDA6C42F00402DA64DB6C03F0040387
:100E10000393039B0E231593032316930023179329
:100E200015A90C4801F0E8F9A4E7FFF708FCE1E791
:100E3000074BDA6C42F40052DA64DB6C03F40053C3
:100E40000293029BDCE700BF000100504409002030
:100E5000001002400008004810B598B00446002178
:100E600013911491159116911791442202A804F040
:100E700043F822681A4B9A4201D018B010BD4FF4C3
:100E8000805302934FF000730E9302A801F0F4FF19
:100E900010BB144B9A6D42F000729A659A6D02F085
:100EA00000720092009ADA6C42F00102DA64DB6CA4
:100EB00003F001030193019B4FF4C05313930223EA
:100EC00014930023159316930923179313A94FF036
:100ED000904001F091F9D0E7FFF7B1FBD9E700BFEF
:100EE0000064004000100240F0B59DB004460021AF
:100EF0001791189119911A911B91442206A803F099
:100F0000FBFF2368394A934204D0394A934241D0C7
:100F10001DB0F0BD8023069306A801F0ADFF0028A8
:100F200035D1344CE36C43F00403E364E36C03F029
:100F300004030193019BE36C43F00103E364E36C5E
:100F400003F001030293029B1023179312271897B3
:100F5000002519951A9504261B9617A9264801F015
:100F60004BF94FF480731793189719951A951B96A0
:100F700017A94FF0904001F03FF9A36D43F48003AF
:100F8000A365A36D03F480030393039BC0E7FFF7FE
:100F900056FBC6E74FF48073069306A801F06CFF7A
:100FA00008BB144CE36C43F00403E364E36C03F00C
:100FB00004030493049B4FF4407317931223189374
:100FC000002319931A9308231B9317A90A4801F0C9
:100FD00013F9A36D43F08043A365A36D03F0804331
:100FE0000593059B94E7FFF72AFBDAE700580040DA
:100FF00000780040001002400008004810B588B09A
:1010000000230393049305930693079302681F4BF1
:101010009A4201D008B010BD044603F560431A6E31
:1010200042F480521A661A6E02F480520192019ABA
:10103000DA6C42F00102DA64DB6C03F00103029324
:10104000029BA0230393022304930523079303A980
:101050004FF0904001F0D0F80D480E4B03600B2389
:101060004360102383600023C360802202614361D8
:101070008361C361036200F0D3FE18B9044B63655A
:101080009C62C7E7FFF7DBFAF8E700BF00300140DA
:10109000340500200800024084B00368164A9342D9
:1010A00007D0B3F1804F0FD0144A934218D004B048
:1010B0007047134B1A6E42F400621A661B6E03F4FB
:1010C00000630193019BF2E703F504339A6D42F04C
:1010D00001029A659B6D03F001030293029BE6E710
:1010E000074B1A6E42F400521A661B6E03F400534B
:1010F0000393039BDBE700BF002C01400034014059
:101100000010024000B589B00023039304930593B7
:10111000069307930268134B9A4202D009B05DF818
:1011200004FB03F503339A6D42F002029A659A6D4F
:1011300002F002020192019ADA6C42F00202DA64D1
:10114000DB6C03F002030293029B30230393022320
:10115000049301220592079303A9034801F04CF878
:10116000DCE700BF000400400004004830B58BB04D
:1011700000230593069307930893099303683C4A59
:10118000934207D0B3F1804F2FD03A4A934259D0BF
:101190000BB030BD384BDA6C42F00402DA64DA6C22
:1011A00002F004020092009ADA6C42F00102DA6462
:1011B000DB6C03F001030193019B012305930224DF
:1011C0000694099405A92D4801F016F84FF4C06360
:1011D000059306940023079308930623099305A912
:1011E0004FF0904001F008F8D2E703F50433DA6CD1
:1011F00042F00202DA64DA6C02F002020292029A0F
:10120000DA6C42F00102DA64DB6C03F00103039351
:10121000039B4FF4816305930225069501240994ED
:1012200005A9174800F0E8FF4FF400430593069521
:10123000002307930893099405A94FF0904000F00C
:10124000DBFFA5E70C4BDA6C42F00402DA64DB6CDE
:1012500003F004030493049BC02305930223069325
:101260000423099305A9054800F0C6FF90E700BFD5
:10127000002C0140003401400010024000080048EA
:101280000004004810B59AB004460021159116914B
:10129000179118911991442204A803F02DFE236898
:1012A0002E4A934204D02E4A93422BD01AB010BD3E
:1012B0000123049304A801F0DFFD00BB294B1A6E43
:1012C00042F480421A661A6E02F480420092009A3A
:1012D000DA6C42F00202DA64DB6C03F00203019381
:1012E000019BC02315930223169300231793189391
:1012F0000723199315A91C4800F07EFFD6E7FFF7D6
:101300009EF9DBE70423049304A801F0B5FD08BBB4
:10131000144B9A6D42F480229A659A6D02F48022F1
:101320000292029ADA6C42F00402DA64DB6C03F097
:1013300004030393039B4FF4406315930223169316
:101340000023179318930723199315A9074800F052
:1013500053FFABE7FFF773F9DAE700BF003801404E
:101360000048004000100240000400480008004807
:10137000FEE7FEE7FEE7FEE7FEE7704708B500F090
:101380007DF803F085FD012800D108BD03F03AF88F
:10139000FBE7000008B5024800F0AEFD08BD00BF45
:1013A00034050020034AD2F8883043F47003C2F8B1
:1013B0008830704700ED00E00D4885460D480E4925
:1013C0000E4A002302E0D458C4500433C4188C429F
:1013D000F9D30B4A0B4C002301E013600432A24204
:1013E000FBD3FFF7DFFF03F063FDFFF755FCFEE7DC
:1013F00000800020000000203C0400201451000860
:101400003C040020A4160020FEE70000104B1B68DF
:101410000BB90120704710B504464FF47A70B0FB49
:10142000F3F30C4A1068B0FBF3F000F0ADFC68B9C0
:101430000F2C01D901200AE0002221464FF0FF3095
:1014400000F05CFC044B1C60002000E0012010BD9B
:1014500004000020000000200800002010B5032038
:1014600000F03AFC0F20FFF7D1FF10B10124204615
:1014700010BD0446FFF748FCF9E70000034A136873
:10148000034909680B441360704700BF48090020F6
:1014900004000020014B1868704700BF4809002075
:1014A00030B583B000230193002800F00D8104467D
:1014B000C36D13B323689A6812F0005F05D09A6871
:1014C00022F0204222F03F029A602268936813F0D3
:1014D000805F1FD1936823F0104323F03F0343F054
:1014E00080539360794B1B689B09794AA2FB0323C5
:1014F0009B0901335B00019309E0FFF727FC002300
:10150000236684F85830D5E7019B013B0193019B8A
:10151000002BF9D12268936813F0805F40F09C8023
:10152000E36D43F01003E365236E43F0010323668C
:101530000120936813F0040300D00123E16D11F042
:10154000100F40F0BA80002B40F0B780E36D23F419
:10155000817343F00203E365936813F0010F15D123
:101560004FF0A0439B6813F0010300D00123594AB8
:10157000926812F0010200D00122134306D1636881
:1015800055498A6822F47C1213438B60627FE36BB7
:1015900043EA4233E2681343A268134394F82420D9
:1015A00043EA0243012A59D0E26A22B102F4787276
:1015B000216B0A4313432168CD68484A2A401343EC
:1015C000CB602268136923F04063616B0B431361A6
:1015D00021688B6813F0040300D001238A6812F09D
:1015E000080200D0012243BB3ABB227F94F8383076
:1015F0005B0043EA8232CB6823F4804323F002038A
:101600001343CB60236973B32268136943F48033B7
:1016100013612268D2F8C03023F47F5323F03F03D4
:1016200021690B43C2F8C03094F84030012B29D017
:101630002268136923F0010313616369012B33D01E
:101640002268136B23F00F031363E36D23F003038E
:1016500043F00103E36535E000206AE7A26A013A3E
:1016600043EA4243A0E72268136923F480331361FD
:101670002268D2F8C03023F47F5323F03F03C2F82E
:10168000C030D1E721680B6923F4FF6323F0040322
:10169000626CA56C2A43E56C2A43256D2A431343EB
:1016A00043F001030B61C8E721680B6B23F00F03C4
:1016B000226A013A13430B63C7E7E36D43F010035B
:1016C000E365012003B030BD0120FBE700000020EE
:1016D000632D3E0500010050000300500740F0FF5D
:1016E000F0B583B00022019290F85820012A00F052
:1016F0005E820346012280F858200568A86810F031
:10170000040F09D0DA6D42F02002DA6501200022D0
:1017100083F8582003B0F0BD4C683035220A92009F
:1017200002F00C02A85804F01F0E1F2404FA0EF455
:1017300020EA04000C68C4F3846C0CFA0EFC40EA46
:101740000C00A8501868826812F0040200D0012230
:10175000846814F0080400D00124002A4FD1002C22
:101760004DD18D68B5F1004F7CD00F6814307A0EE2
:10177000920002F004028658C7F3045E4FF0070C93
:101780000CFA0EFC26EA0C0C05FA0EF54CEA0505DF
:1017900085501868426922F0004242614D6918681C
:1017A000C268C2F3C102520005FA02F20E69042EA9
:1017B00070D0603050F82670A94D3D400F6807F09A
:1017C000F8473A43154345F0004540F826501A685B
:1017D0000E698869603252F8265025F080752843DA
:1017E00042F826001A680D69087F01284FD0603240
:1017F00052F8250020F00070044342F825401A6892
:10180000906810F0010F12D10868CD68954CA54280
:1018100000F0A780D2F8B040C0F3120024EA000024
:10182000C2F8B000C8688F4A904200F0A2800A68EF
:101830008D490A4200F0B3818C49896801F0E0705B
:101840008B4CA24200F062818A4CA24200F05E8181
:10185000894CA24200F08081884CA24200F08E8127
:10186000002054E70D6814306A0E920002F0040262
:101870008658C5F30455072707FA05F526EA050536
:1018800085501868426942F00042426186E74FF095
:101890000074ACE7026E046EC4F384640A68C2F399
:1018A00012057DBBC2F38462944233D01C68626E21
:1018B000606EC0F384600A68C2F312057DBBC2F398
:1018C0008462904233D01C68A26EA06EC0F3846024
:1018D0000A68C2F312057DBBC2F38462904233D022
:1018E0001C68E26EE06EC0F384600A68C2F3120501
:1018F0007DBBC2F38462904281D1E26E22F000424D
:10190000E2667CE792FAA2F212B1B2FA82F2CBE777
:101910002022C9E7026E22F000420266C6E792FA70
:10192000A2F212B1B2FA82F2CBE72022C9E7626ECC
:1019300022F000426266C6E792FAA2F212B1B2FA4F
:1019400082F2CBE72022C9E7A26E22F00042A26613
:10195000C6E792FAA2F212B1B2FA82F2CBE72022E3
:10196000C9E7D2F8B040C0F312002043C2F8B0007B
:1019700058E71C680A68C2F31205002D38D1900E92
:10198000013000F01F0009288CBF00200120002832
:1019900076D0002D3BD1900E0130800600F0F8404B
:1019A000002D40D1960E013606F01F070126BE40DD
:1019B0003043002D45D1920E013202F01F0202EB9E
:1019C000420212050243886804F11406550EAD0068
:1019D00005F004057459C2F304524FF0070C0CFAD9
:1019E00002FC24EA0C0C90404CEA000070511EE707
:1019F00092FAA2F048B1B0FA80F0013000F01F0076
:101A000009288CBF00200120C1E72020F5E792FAC9
:101A1000A2F030B1B0FA80F00130800600F0F8405A
:101A2000BEE72020F8E792FAA2F646B1B6FA86F6AB
:101A3000013606F01F06012707FA06F6B8E720264A
:101A4000F6E792FAA2F242B1B2FA82F2013202F061
:101A50001F0202EB42021205B4E72022F6E700BFA4
:101A600000F0FF0300007F400000088000030050EA
:101A7000000021C31000C090000052C7000084CBBA
:101A8000CDB9900E0130800600F0F840FDB9960EF9
:101A9000013606F01F070126BE4030432DBB920ED3
:101AA000013202F01F0202EB42021E3A120542F01E
:101AB0000072024387E792FAA2F030B1B0FA80F0E8
:101AC0000130800600F0F840E0E72020F8E792FAC5
:101AD000A2F646B1B6FA86F6013606F01F060127D1
:101AE00007FA06F6D9E72026F6E792FAA2F25AB1EB
:101AF000B2FA82F2013202F01F0202EB42021E3AF7
:101B0000120542F00072D4E72022F3E711F4000F2F
:101B10007FF49EAE1A68B2F1A04F01D00020F6E526
:101B200040F4000023498A6822F0E0721043886084
:101B3000214A126892092149A1FB0212920901323D
:101B400002EB420292000192019A1AB1019A013A03
:101B50000192F9E70020DAE511F0807F7FF47CAE96
:101B60001968174A91421CD040F0807011498A6868
:101B700022F0E072104388600020C8E511F4800F65
:101B800011D119680E4A91420FD040F480020948E1
:101B9000816821F0E0710A4382600020B7E50020EF
:101BA000B5E50020B3E50020B1E50020AFE5022057
:101BB000B0E500BF0003005000000020632D3E058B
:101BC0000001005090F85820012A7FD010B49DB039
:101BD0000346012280F858200022189219920068CA
:101BE000B0F1A04F39D000220192019A002A37D0DB
:101BF000926812F0040200D00122806810F0040FF5
:101C000054D1002A52D10A68002A32D0304CA2683E
:101C100022F46042486893F838C040EA4C300243EE
:101C2000A2604FF0A042926812F0010200D001229F
:101C30002848806810F0010000D00120024341D103
:101C4000234CA26822F4716222F00F0208688968AE
:101C500001430A43A26000202DE01E4A0192C4E71E
:101C6000DA6D42F02002DA65002283F85820012064
:101C700024E017498A6822F460428A604FF0A0424B
:101C8000926812F0010200D001221249896811F015
:101C9000010100D001210A4316D10D498A6822F4BE
:101CA000716222F00F028A60002004E0DA6D42F0D7
:101CB0002002DA650120002283F858201DB05DF86B
:101CC000044B70470020F6E70020F4E7022070473D
:101CD0000003005000010050074AD36823F4E0637A
:101CE0001B041B0C000200F4E060034343F0BF63DD
:101CF00043F40033D360704700ED00E000B5194BAA
:101D0000DB68C3F30223C3F1070CBCF1040F28BF47
:101D10004FF0040C03F1040EBEF1060F18D9033B7B
:101D20004FF0FF3E0EFA0CFC21EA0C0199400EFA2E
:101D300003F322EA0303194300280BDB0901C9B2AC
:101D400000F1604000F5614080F800135DF804FB8D
:101D50000023E5E700F00F000901C9B2024B195456
:101D6000F4E700BF00ED00E014ED00E0002807DB21
:101D700000F01F02400901239340024A42F820303C
:101D8000704700BF00E100E00138B0F1807F0BD266
:101D90004FF0E0235861054AF02182F8231000201B
:101DA000986107221A6170470120704700ED00E03A
:101DB00003680C4A934213D80B49DBB2083B0B4A29
:101DC000A2FB0323426C22F003020A448264084A05
:101DD000C264C3F30413012202FA03F303657047DC
:101DE0000449EAE70704024000080240CDCCCCCC0D
:101DF00080080240200802400379074A1A449200F2
:101E00004265064A8265013B03F01F03012202FA84
:101E100003F3C365704700BF3F82001040090240D2
:101E200000285BD010B5044601682D4B99423DD87F
:101E30002C4B0B442C4AA2FB03231B099B0043643D
:101E40002A4B0364022384F825300A6822F4FF42F7
:101E500022F07002A368E0680343206903436069CD
:101E60000343A0690343E0690343206A0343134328
:101E70000B602046FFF79CFFA368B3F5804F20D08E
:101E8000A36C22791A60E36C226D5A606368013B8F
:101E9000032B19D900236365A365E3650020E06384
:101EA000012384F8253084F8240010BD104B0B4426
:101EB0000D4AA2FB03231B099B0043640D4B0364E3
:101EC000C0E700236360DBE72046FFF795FF636D03
:101ED00000221A60A36DE26D5A60DFE701207047AF
:101EE00007040240F8FFFDBFCDCCCCCC000002407F
:101EF000F8FBFDBF0004024038B5036C19680468A4
:101F00002568436C03F01F0304229A400A4215D04F
:101F100015F0040F12D0236813F0200F03D12368AB
:101F200023F004032360436C03F01F02016C0423BD
:101F300093404B60036B03B1984738BD02229A402F
:101F40000A421CD015F0020F19D0236813F0200F9D
:101F500006D1236823F00A032360012380F825308B
:101F6000436C03F01F02016C022393404B6000237B
:101F700080F82430C36A002BDFD09847DDE70822C1
:101F800002FA03F30B42D8D015F0080FD5D023681E
:101F900023F00E032360436C03F01F03016C012246
:101FA00002FA03F34B60C26380F82520002380F817
:101FB0002430436B002BC0D09847BEE710B4154BBC
:101FC00003640168D1F8802022F4F812446B42EADD
:101FD0000442C1F88020104A42640168D1F8802090
:101FE00022F07062846B42EA0462C1F880200B4ADE
:101FF0008264D832C264D83202651832426502E087
:10200000002243F8042B064A9342F9D95DF8044BA9
:10201000704700BF00A4004070A40040B0A400407E
:102020004FA70040002800F0E38038B5044690F840
:102030005C30D3B12268936923F010039361FFF7FA
:1020400029FA054623689A6912F0080F12D0FFF7A3
:1020500021FA401B0A28F5D9236E43F001032366B9
:10206000032384F85C30012038BD80F85D30FEF732
:10207000F3FEDFE79A6942F001029A61FFF70AFA7C
:10208000054623689A6912F0010F0DD1FFF702FA95
:10209000401B0A28F5D9236E43F00103236603236E
:1020A00084F85C300120DFE79A6942F002029A610D
:1020B0002268504B9A4242D0237C012B45D02268A3
:1020C000936943F040039361637C012B43D0226802
:1020D000936923F480439361A37C012B41D0226850
:1020E000936943F4805393612268936923F44073A6
:1020F000A1680B4393612268936923F0A403936161
:102100002268136923F010031361E368012B2ED0BA
:10211000002B31D0022B54D02268936943F0800306
:1021200093612268136943F010031361E368032B82
:1021300022D12268936943F0200393611CE0626816
:10214000A3F58063C3F80025B6E72268936923F0FE
:1021500040039361B8E72268936943F48043936135
:10216000BAE72268936923F480539361BCE722683D
:10217000936943F004039361A3695A1EE369013B29
:102180001B0243EA4263226A013A13436269013A3D
:10219000216843EA0243CB61A368B3F5407F16D0C0
:1021A0002268D2F8C030E16B0B43C2F8C030204641
:1021B000FFF704FF0020A0652066012384F85C304F
:1021C00052E72268936943F020039361D4E7A36A3E
:1021D000013BE26A013A43EA0223226B013A43EAF5
:1021E0000213626A013A216843EA0243CB60D7E7EF
:1021F0000120704700640040F0B583B0002362E026
:1022000085685E000324B44025EA0405CC68B44028
:102210002C438460446824EA0C0C4C68C4F300141A
:102220009C4044EA0C0444605EE0DD08083550F848
:10223000256003F007044FEA840C0F2404FA0CF421
:1022400026EA040E0C6904FA0CF444EA0E0440F881
:10225000254060E0052400E0002404FA0EF42C433D
:102260000CF1020C554D45F82C40554CA568D44353
:1022700025EA02064F6817F4801F01D042EA0506DE
:102280004F4DAE60ED6804EA05064F6817F4001F75
:1022900001D042EA05064A4DEE606D6804EA050683
:1022A0004F6817F4003F01D042EA0506444D6E60C6
:1022B0002D682C404E6816F4803F01D042EA050498
:1022C0003F4A146001330A6832FA03F474D04FF0C5
:1022D000010C0CFA03FC1CEA0202F3D04C6804F077
:1022E0000304013C012C8BD94C6804F00304032C3B
:1022F0000CD0C4685D004FF0030C0CFA05FC24EA16
:102300000C0C8C68AC4044EA0C04C4604C6804F0CB
:102310000304022C89D004684FEA430E4FF0030CEB
:102320000CFA0EFC24EA0C0C4C6804F0030404FACA
:102330000EF444EA0C0404604C6814F4403FC1D02D
:10234000204C256E45F001052566246E04F001043D
:102350000194019C4FEA930C0CF10205174C54F8C0
:10236000255003F003044FEA840E0F2404FA0EF400
:1023700025EA0405B0F1904F3FF46EAF124CA04235
:1023800012D004F58064A04210D004F58064A0420D
:102390000ED004F58064A0420CD004F58064A04205
:1023A0003FF458AF062458E7012456E7022454E7C7
:1023B000032452E7042450E703B0F0BD00000140BD
:1023C0000004014000100240000400480AB181618D
:1023D000704781627047002859D010B5044690F8C4
:1023E0004130002B43D0242384F841302268136805
:1023F00023F0010313606368226823F070631361A4
:102400002268936823F400439360E368012B33D080
:10241000A368226843F404439360E368022B31D03D
:102420002268536843F0007343F40043536022680A
:10243000D36823F40043D360236962691343A1691D
:10244000226843EA0123D360E369216A22680B43CF
:1024500013602268136843F0010313600020606476
:10246000202384F84130206384F8420010BD80F8B6
:102470004030FEF739FDB6E7A368226843F4004315
:102480009360CAE723684FF400625A60C8E70120EE
:10249000704790F84130DBB2202B24D190F84030C7
:1024A000012B22D0012380F84030242380F84130D2
:1024B0000268136823F0010313600268136823F4B1
:1024C000805313600268136819431160026813682F
:1024D00043F001031360202380F84130002380F88B
:1024E000403018467047022070470220704790F82D
:1024F0004130DBB2202B22D190F84030012B20D08C
:10250000012380F84030242380F8413002681368AA
:1025100023F0010313600268136823F4706343EA35
:10252000012111600268136843F001031360202346
:1025300080F84130002380F8403018467047022070
:102540007047022070470000002836D13E4B1B68C0
:1025500003F4C063B3F5806F08D03B4AD2F88030F3
:1025600023F48073C2F8803000207047364AD2F8D6
:10257000803023F48073C2F88030136823F4C06382
:1025800043F400731360314B1B68322202FB03F3E8
:102590002F4AA2FB03239B0C013300E0013B2A4A94
:1025A000526912F4806F01D0002BF7D1264B5B6982
:1025B00013F4806F44D100207047B0F5007F08D03D
:1025C000214A136823F4C06343F48063136000203E
:1025D00070471D4B1B6803F4C063B3F5806F08D0D0
:1025E000194AD2F8803043F48073C2F8803000205A
:1025F0007047154AD2F8803043F48073C2F88030B7
:10260000136823F4C06343F4007313600F4B1B681B
:10261000322202FB03F30E4AA2FB03239B0C01337D
:1026200000E0013B084A526912F4806F01D0002B90
:10263000F7D1054B5B6913F4806F03D1002070471D
:102640000320704703207047007000400000002006
:1026500083DE1B43024A936843F4804393607047D0
:1026600000700040124BDA6802F00302D868C0F331
:102670000310431C032A11D00E48B0FBF3F00C4B9F
:10268000DB68C3F3062303FB00F0094BDB68C3F3ED
:10269000416301335B00B0FBF3F070470648B0FBC9
:1026A000F3F0034BDB68C3F3062303FB00F0ECE716
:1026B000001002400024F40000127A00002800F00C
:1026C000548270B582B00446036813F0010F37D00E
:1026D000A44A936803F00C03D26802F003020C2BA7
:1026E00023D0082B23D06368B3F5803F4ED0B3F5D9
:1026F000A02F51D09B4B1A6822F480321A601A68BE
:1027000022F480221A606368002B52D0FEF7C2FECA
:102710000546944B1B6813F4003F11D1FEF7BAFE37
:10272000401B6428F5D9032028E2032AD9D18D4B18
:102730001B6813F4003F03D06368002B00F017827E
:10274000236813F0020F5DD0864A936803F00C03F0
:10275000D26802F003020C2B3AD0042B3AD0E36883
:10276000002B75D07F4A136843F480731360FEF723
:1027700091FE05467B4B1B6813F4806F5FD1FEF71B
:1027800089FE401B0228F5D90320F7E1754A13683A
:1027900043F480331360B6E703F18043A3F53C3381
:1027A0001A6842F480221A601A6842F480321A6071
:1027B000A9E7FEF76FFE05466A4B1B6813F4003F5E
:1027C000BED0FEF767FE401B6428F5D90320D5E193
:1027D000022AC2D1634B1B6813F4806F03D0E368F5
:1027E000002B00F0C6815F4A536823F0FE43216945
:1027F00043EA016353605C4B1868FEF707FE00284C
:1028000040F0B981236813F0080F4CD063699BB383
:10281000544AD2F8943043F00103C2F89430FEF7E2
:1028200039FE05464F4BD3F8943013F0020F3AD1DE
:10283000FEF730FE401B0228F4D903209EE1494AEE
:10284000536823F0FE43216943EA01635360D9E7EB
:10285000444A136823F480731360FEF71BFE054699
:10286000404B1B6813F4806FCCD0FEF713FE401B67
:102870000228F5D9032081E13A4AD2F8943023F0B6
:102880000103C2F89430FEF705FE0546354BD3F838
:10289000943013F0020F06D0FEF7FCFD401B022817
:1028A000F4D903206AE1236813F0040F00F081805B
:1028B0002C4B9B6D13F0805F36D12A4B9A6D42F002
:1028C00080529A659B6D03F080530193019B012513
:1028D000264B1B6813F4807F28D0A368012B39D0C6
:1028E000052B45D01F4BD3F8902022F00102C3F8EE
:1028F0009020D3F8902022F00402C3F89020A3681F
:10290000002B43D0FEF7C6FD0646164BD3F8903099
:1029100013F0020F4CD1FEF7BDFD801B41F288334E
:102920009842F2D9032029E10025D1E70F4A136824
:1029300043F480731360FEF7ADFD06460B4B1B6836
:1029400013F4807FC9D1FEF7A5FD801B0228F5D9BD
:10295000032013E1034AD2F8903043F00103C2F898
:102960009030CCE7001002400800002000700040CA
:102970008A4BD3F8902042F00402C3F89020D3F899
:10298000902042F00102C3F89020B8E7FEF782FDE4
:102990000646824BD3F8903013F0020F08D0FEF7B2
:1029A00079FD801B41F288339842F2D90320E5E09B
:1029B000E5B9236813F0200F35D0A369E3B1774A56
:1029C000D2F8983043F00103C2F89830FEF762FD68
:1029D0000546724BD3F8983013F0020F23D1FEF75F
:1029E00059FD401B0228F4D90320C7E06B4A936DC0
:1029F00023F080539365DCE7684AD2F8983023F0DF
:102A00000103C2F89830FEF745FD0546634BD3F845
:102A1000983013F0020F06D0FEF73CFD401B022851
:102A2000F4D90320AAE0E369002B00F0A6805B4AFA
:102A3000926802F00C020C2A69D0022B1DD0574B71
:102A40001A6822F080721A60DA6822F00302DA60F3
:102A5000DA6822F0887222F48032DA60FEF71AFD1A
:102A600004464E4B1B6813F0007F4ED0FEF712FD5C
:102A7000001B0228F5D9032080E0484A136823F0A0
:102A800080731360FEF706FD0546444B1B6813F088
:102A9000007F06D0FEF7FEFC401B0228F5D903207C
:102AA0006CE03E4AD3683E491940236A606A0138A7
:102AB00043EA0013A06A43EA0023206B4008013870
:102AC00043EA4053606B4008013843EA4063E06AE0
:102AD00043EAC0630B43D360136843F08073136011
:102AE000D36843F08073D360FEF7D4FC04462B4BCD
:102AF0001B6813F0007F06D1FEF7CCFC001B0228F8
:102B0000F5D903203AE0002038E0002036E0012B20
:102B100036D0224BDB6803F00301226A914231D1A7
:102B200003F0F002616A0139B2EB011F2CD103F40A
:102B3000FE42A16AB2EB012F28D103F07842E16A8C
:102B4000B2EBC16F24D103F4C001226B5208013AE9
:102B5000B1EB425F1ED103F0C063626B5208013AD1
:102B6000B3EB426F18D1002008E00120704701202C
:102B700004E0012002E0012000E0002002B070BD6E
:102B80000120FBE70120F9E70120F7E70120F5E745
:102B90000120F3E70120F1E70120EFE700100240F8
:102BA0000C809F011E4B9B6803F00C03042B33D059
:102BB0001B4B9B6803F00C03082B2FD0184B9B6812
:102BC00003F00C030C2B01D000207047144BDA6883
:102BD00002F00302D868C0F30310431C032A11D08B
:102BE0001048B0FBF3F00E4BDB68C3F3062303FB86
:102BF00000F00B4BDB68C3F3416301335B00B0FBB8
:102C0000F3F070470848B0FBF3F0054BDB68C3F303
:102C1000062303FB00F0ECE70248704702487047C8
:102C2000001002400024F40000127A00002800F096
:102C3000E680F8B50C460546744B1B6803F00F039D
:102C40008B420BD2714A136823F00F030B431360BE
:102C5000136803F00F038B4240F0D3802E6816F008
:102C600001065FD06B68032B2FD0022B4DD0684B31
:102C70001B6813F4806F00F0C680FFF793FF654B6D
:102C800098424DD9624A936823F0F00343F08003E1
:102C9000936080265E4A936823F0030369680B43C0
:102CA0009360FEF7F7FB0746594B9B6803F00C0354
:102CB0006A68B3EB820F35D0FEF7ECFBC01B41F224
:102CC00088339842F0D9032078E0514B1B6813F009
:102CD000007F01D1012071E0FFF7C4FC4D4B984209
:102CE0001AD94B4B9B6813F0F00F05D02E6816F0E5
:102CF0000206CFD0AB688BB9454A936823F0F00346
:102D000043F0800393608026C4E7414B1B6813F4B3
:102D1000003FB2D1012051E00026BBE70026B9E711
:102D20000026B7E72B6813F0020F48D013F0040F0A
:102D300004D0374A936843F4E06393602B6813F040
:102D4000080F06D0324A936823F47C5343F4E063BF
:102D500093602F4A936823F0F003A9680B439360B4
:102D60002A4B1B6803F00F03A34230D82B6813F0E3
:102D7000040F06D0264A936823F4E063E9680B4306
:102D800093602B6813F0080F07D0214A936823F44F
:102D90006053296943EAC1039360FFF703FF1C4BAB
:102DA0009B68C3F303131C4AD35C03F01F03D84092
:102DB0001A4B18601A4B1868FEF728FBF8BD802ED6
:102DC000CED1134A936823F0F0039360C8E70F4A0B
:102DD000136823F00F0323431360FEF75BFB0646E3
:102DE0000A4B1B6803F00F03A342BFD0FEF752FB50
:102DF000801B41F288339842F2D90320DEE701209C
:102E000070470120DAE70120D8E700BF0020024028
:102E10000010024000B4C404B450000800000020B8
:102E200008000020014B1868704700BF0000002018
:102E300008B5FFF7F7FF054B9B68C3F30223044A6D
:102E4000D35C03F01F03D84008BD00BF0010024050
:102E5000C450000808B5FFF7E5FF054B9B68C3F3B6
:102E6000C223044AD35C03F01F03D84008BD00BF4F
:102E700000100240C4500008F0B583B00446036857
:102E800013F4002F69D0AE4B9B6D13F0805F1ED101
:102E9000AB4B9A6D42F080529A659B6D03F0805364
:102EA0000193019B0126A74A136843F480731360C2
:102EB000FEF7F0FA0546A34B1B6813F4807F08D198
:102EC000FEF7E8FA401B0228F5D9032502E00026A8
:102ED000E9E7002545BB9A4BD3F8903013F44073D3
:102EE00015D0226C9A4212D0954AD2F8903023F431
:102EF0004073D2F8901041F48031C2F89010D2F8AB
:102F0000901021F48031C2F89010C2F8903013F084
:102F1000010F10D145B98A4AD2F8903023F440739A
:102F2000216C0B43C2F89030C6B1854A936D23F0F3
:102F30008053936512E0FEF7ADFA0746804BD3F855
:102F4000903013F0020FE5D1FEF7A4FAC01B41F256
:102F500088339842F2D90325DCE70025236813F073
:102F6000010F08D0764AD2F8883023F00303616855
:102F70000B43C2F88830236813F0020F08D0704A60
:102F8000D2F8883023F00C03A1680B43C2F88830D4
:102F9000236813F0040F08D0694AD2F8883023F070
:102FA0003003E1680B43C2F88830236813F0080F40
:102FB00008D0634AD2F8883023F0C00321690B435C
:102FC000C2F88830236813F0200F08D05C4AD2F88A
:102FD000883023F4406361690B43C2F8883023686A
:102FE00013F0400F08D0564AD2F8883023F44053EB
:102FF000A1690B43C2F88830236813F0800F08D012
:103000004F4AD2F8883023F44043E1690B43C2F8B9
:103010008830236813F4807F08D0494AD2F888307A
:1030200023F44033216A0B43C2F88830236813F439
:10303000007F08D0424AD2F8883023F44023616AE6
:103040000B43C2F88830236813F4806F0CD03C4ADD
:10305000D2F8883023F44013A16A0B43C2F88830B9
:10306000A36AB3F5801F57D0236813F4006F0CD008
:10307000334AD2F8883023F44003E16A0B43C2F8A4
:103080008830E36AB3F5800F4BD0236813F4805F78
:103090000CD02B4AD2F8883023F04073216B0B43BD
:1030A000C2F88830236BB3F1807F3FD0236813F4DC
:1030B000005F0CD0224AD2F8883023F04063616B65
:1030C0000B43C2F88830636BB3F1006F33D02368D1
:1030D00013F4804F0CD01A4AD2F8883023F04063A2
:1030E000A16B0B43C2F88830A36BB3F1006F2BD0F8
:1030F000236813F4004F0CD0114AD2F8883023F023
:103100004053E16B0B43C2F88830E36BB3F1805F4F
:103110001FD0284603B0F0BDD36843F48013D360BA
:10312000A2E7D36843F48013D360AEE7D36843F4D7
:103130008013D360BAE7D36843F48013D360C6E743
:103140000010024000700040D36843F48013D36045
:10315000CEE7D36843F48033D360DAE700286FD03A
:1031600010B50446436A33B94368B3F5827F05D08E
:103170000023C36102E00023036143610023A362D3
:1031800094F85D30002B52D0022384F85D30226821
:10319000136823F040031360E368B3F5E06F4CD984
:1031A0000022B3F5706F04D0B3F5E06F01D00023B7
:1031B000A362636803F48273A16801F404410B43C2
:1031C000216901F002010B43616901F001010B4328
:1031D000A16901F400710B43E16901F038010B436F
:1031E000216A01F080010B43A16A01F400512068BB
:1031F0000B430360638B03F00403616A01F0100169
:103200000B43616B01F008010B43E16801F470614D
:103210000B43216813434B602268D36923F4006396
:10322000D36100202066012384F85D3010BD84F84E
:103230005C302046FDF7E2FEA6E74FF48052B0E78F
:103240000120704730B4036A23F001030362036A6C
:103250004568826922F4803222F073020C682243AE
:1032600023F002038C6823431D4CA0420FD004F5C9
:103270000064A0420BD004F54064A04207D004F5DE
:103280008064A04203D004F58064A04205D123F0FD
:103290000803CC68234323F00403114CA0420FD051
:1032A00004F50064A0420BD004F54064A04207D0AE
:1032B00004F58064A04203D004F58064A04207D1E5
:1032C00025F4407C4C6944EA0C0C8D6945EA0C05F8
:1032D000456082614A684263036230BC704700BF48
:1032E000002C014030B4036A23F480730362036A44
:1032F0004468C26922F4803222F073020D682A43C6
:1033000023F400738D6843EA0523184DA84203D0C7
:1033100005F50065A84206D123F40063CD6843EAB1
:10332000052323F48063114DA8420FD005F50065F5
:10333000A8420BD005F54065A84207D005F5806589
:10334000A84203D005F58065A84207D124F4405C6B
:103350004C694CEA041C8C694CEA04144460C26158
:103360004A68C263036230BC704700BF002C014052
:1033700030B4036A23F480530362036A4468C26969
:1033800022F0807222F4E6420D6842EA052223F41C
:1033900000538D6843EA0533174DA84203D005F565
:1033A0000065A84206D123F40043CD6843EA053303
:1033B00023F48043104DA8420FD005F50065A842C4
:1033C0000BD005F54065A84207D005F58065A842F9
:1033D00003D005F58065A84207D124F4404C4C6920
:1033E0004CEA841C8C694CEA84144460C2614A68CB
:1033F0000264036230BC7047002C014030B4036AA1
:1034000023F480330362036A4468026D22F480323D
:1034100022F070020D682A4323F400338D6843EADA
:1034200005430F4DA8420FD005F50065A8420BD00B
:1034300005F54065A84207D005F58065A84203D090
:1034400005F58065A84204D124F480344D6944EA2E
:103450000524446002654A688264036230BC704798
:10346000002C014030B4036A23F480130362036A22
:103470004468026D22F0807222F4E0420D6842EA54
:10348000052223F400138D6843EA05530F4DA8422B
:103490000FD005F50065A8420BD005F54065A842A0
:1034A00007D005F58065A84203D005F58065A842E0
:1034B00004D124F480244D6944EA852444600265E3
:1034C0004A68C264036230BC704700BF002C0140F0
:1034D0007047000003682C4A90420ED0B0F1804F34
:1034E0000BD0A2F59432904207D002F58062904250
:1034F00003D002F59632904203D123F070034A685C
:103500001343214A90421AD0B0F1804F17D0A2F550
:103510009432904213D002F5806290420FD002F5AF
:10352000963290420BD002F54062904207D002F5ED
:103530008062904203D002F58062904203D123F46E
:103540004073CA68134323F080034A69134303603E
:103550008B68C3620B6883620B4B98420FD003F5F4
:10356000006398420BD003F54063984207D003F5FF
:103570008063984203D003F58063984201D10B69C0
:103580000363012343617047002C014060B310B511
:10359000044690F83D3013B3022384F83D302146B1
:1035A00051F8040BFFF796FF012384F8483084F8A4
:1035B0003E3084F83F3084F8403084F8413084F85D
:1035C000423084F8433084F8443084F8453084F83D
:1035D000463084F8473084F83D30002010BD80F834
:1035E0003C30FFF775FFD7E70120704760B310B597
:1035F000044690F83D3013B3022384F83D30214651
:1036000051F8040BFFF766FF012384F8483084F873
:103610003E3084F83F3084F8403084F8413084F8FC
:10362000423084F8433084F8443084F8453084F8DC
:10363000463084F8473084F83D30002010BD80F8D3
:103640003C30FDF729FDD7E701207047002856D010
:10365000F8B50D46044690F83D30002B4AD00223C1
:1036600084F83D302268936823F4A03323F00703E5
:103670009360214651F8040BFFF72CFF21688A68FC
:103680008B690E6A2868104323F4407C2CF0030CED
:10369000AA68AB6942EA032343EA0C0323F47C43A0
:1036A00023F0FC03EA69EF6847EA022C4CEA030CBA
:1036B0002A6A13032A6943EA021343EA0C0326F039
:1036C000AA066A686D6942EA051232438860216879
:1036D0008B6123681A62012384F8483084F83E30F5
:1036E00084F83F3084F8443084F8453084F83D3025
:1036F0000020F8BD80F83C30FDF704FDAFE7012065
:103700007047000030B4036A23F010030362036AB9
:103710004468826922F0807222F4E6420D6842EA2F
:10372000052223F020038D6843EA0513174DA842B4
:1037300003D005F50065A84206D123F08003CD68CB
:1037400043EA051323F04003104DA8420FD005F5BE
:103750000065A8420BD005F54065A84207D005F5E5
:103760008065A84203D005F58065A84207D124F4FE
:10377000406C4C694CEA840C8C694CEA84044460CB
:1037800082614A688263036230BC7047002C01404A
:1037900090F83C30012B36D010B50446012380F858
:1037A0003C30142A2AD8DFE802F00B2929291029F5
:1037B0002929152929291A2929291F2929292400D4
:1037C0000068FFF73FFD002019E00068FFF79AFF4F
:1037D000002014E00068FFF785FD00200FE000687E
:1037E000FFF7C6FD00200AE00068FFF707FE002093
:1037F00005E00068FFF736FE002000E0012000230E
:1038000084F83C3010BD0220704738B590F83C3049
:10381000012B00F0958004460D46012380F83C30D2
:10382000142A00F28880DFE802F00B8686861F8665
:10383000868634868686488686865D86868671007C
:103840000068FFF7FFFC2268936943F00803936167
:103850002268936923F004039361226893692969BC
:103860000B439361002067E00068FFF74BFF22687D
:10387000936943F4006393612268936923F480633E
:10388000936122689369296943EA012393610020C7
:1038900052E00068FFF726FD2268D36943F0080371
:1038A000D3612268D36923F00403D3612268D3690A
:1038B00029690B43D36100203EE00068FFF758FD03
:1038C0002268D36943F40063D3612268D36923F487
:1038D0008063D3612268D369296943EA0123D361F4
:1038E000002029E00068FFF789FD2268136D43F08E
:1038F000080313652268136D23F00403136522681F
:10390000136D29690B431365002015E00068FFF76C
:10391000A9FD2268136D43F4006313652268136DDB
:1039200023F4806313652268136D296943EA012338
:103930001365002000E00120002384F83C3038BDEE
:103940000220FCE790F83C30012B40D030B401233A
:1039500080F83C30022380F83D3002685368946858
:103960001C4DAA4203D005F50065AA4203D123F4F9
:1039700070034D682B4323F0007323F070030D6830
:103980002B4353600368134A934212D0B3F1804F24
:103990000FD0A2F5943293420BD002F5806293428D
:1039A00007D002F59632934203D002F5406293426B
:1039B00004D124F080048A6814439C60012380F8B9
:1039C0003D30002380F83C30184630BC7047022060
:1039D000704700BF002C014090F83C30012B55D0BF
:1039E00010B4012380F83C30CB6823F440738A681C
:1039F000134323F480634A68134323F400630A6883
:103A0000134323F480530A69134323F400534A6990
:103A1000134323F480430A6B134323F470238A690E
:103A200043EA024302681A4CA24203D004F5006440
:103A3000A24203D123F08053CC692343144CA24209
:103A40000BD004F50064A24207D05364002380F831
:103A50003C3018465DF8044B704723F470038C6AC1
:103A600043EA045323F080730C6A234323F000736A
:103A70004C6A2343064CA24203D004F50064A242E0
:103A8000E3D123F00053C96A0B43DEE702207047FD
:103A9000002C014070B50446016883680269134335
:103AA00042691343C269134308688B4A02401343B7
:103AB0000B602268536823F44053E1680B43536062
:103AC000A1692268854B9A4201D0236A1943936801
:103AD00023F06E4323F430630B4393602268D36A70
:103AE00023F00F03616A0B43D36223687C4A93423D
:103AF00023D07C4A934234D07B4A93424AD07B4ABB
:103B0000934259D0754A934268D0102273498B4230
:103B100000F09580E069B0F5004F00F0D280082AEF
:103B200000F24F81DFE812F01201340110014D0163
:103B300037014D014D014D013A0102F55842D2F8CD
:103B4000882002F00302032A09D8DFE802F0020409
:103B50005C060122DAE70422D8E70822D6E7102221
:103B6000D4E702F5E632D2F8882002F00C020C2AE3
:103B70000ED8DFE802F0070D0D0D090D0D0D4A0DF1
:103B80000D0D0B000022C1E70422BFE70822BDE7AC
:103B90001022BBE702F5E432D2F8882002F03002AE
:103BA000202A34D004D8A2B3102A34D10422ADE79D
:103BB000302A32D10822A9E702F5E232D2F8882071
:103BC00002F0C002802A2AD004D852B3402A2AD157
:103BD00004229BE7C02A28D1082297E702F5C832C1
:103BE000D2F8882002F44062B2F5006F1FD005D8E9
:103BF000FAB1B2F5806F1ED1042287E7B2F5406FAB
:103C00001BD1082282E7022280E702227EE70222FD
:103C10007CE700227AE7102278E7102276E702227A
:103C200074E7002272E7102270E710226EE702228A
:103C30006CE700226AE7102268E7102266E7082A8C
:103C400000F2AF80DFE802F008AD3BAD38ADADADBE
:103C500005004FF4004004E0FFF7EAF8002800F008
:103C6000A280626A224B33F81220B0FBF2F365683F
:103C700005EB4501994200F29880B3EB053F00F255
:103C80009680002633463146FCF7CAFA090241EA1B
:103C9000106100026B08C0182A46334641F100014A
:103CA000FCF7BEFAA0F54072124B9A4200F28180F6
:103CB0002368D860304662E0FEF774FFCEE70E4816
:103CC000CFE7082A77D8DFE802F0193905763C7685
:103CD00076761D00084815E0F369FFCF00800040AC
:103CE000003801400044004000480040004C0040C3
:103CF000CC500008FFFC0F000024F400FFF798F8F8
:103D000000285AD0626A324B33F81230B0FBF3F01D
:103D10006268530803EB4000B0FBF2F0A0F1100220
:103D20004FF6EF739A424AD883B223F00F03C0F3E1
:103D3000420018432368D860002020E0FFF78AF88B
:103D4000DEE7FEF72FFFDBE7224803E0FFF770F81E
:103D5000002838D0626A1E4B33F81230B0FBF3F003
:103D6000636800EB5300B0FBF3F0A0F110024FF6D4
:103D7000EF739A4229D8236880B2D86000200123CB
:103D8000A4F86A30A4F8683000232367636770BD25
:103D9000FFF760F8DCE7FEF705FFD9E74FF40040D6
:103DA000D8E70120EBE70020E9E70120E7E7012061
:103DB000E5E70120E3E70120E1E70020DFE701205C
:103DC000DDE70120DBE70020D9E70120D7E700BFCE
:103DD000CC5000080024F400836A13F0010F06D0D1
:103DE0000268536823F40033C16A0B435360836A4B
:103DF00013F0020F06D00268536823F48033016B7E
:103E00000B435360836A13F0040F06D002685368B3
:103E100023F48023416B0B435360836A13F0080F34
:103E200006D00268536823F40043816B0B43536050
:103E3000836A13F0100F06D00268936823F480534E
:103E4000C16B0B439360836A13F0200F06D00268A6
:103E5000936823F40053016C0B439360836A13F05F
:103E6000400F0AD00268536823F48013416C0B435F
:103E70005360436CB3F5801F0BD0836A13F0800F3F
:103E800006D00268536823F40023C16C0B435360CF
:103E900070470268536823F4C003816C0B4353607E
:103EA000EBE72DE9F84305460F4616469946DDF83F
:103EB00020802C68E46937EA04030CBF4FF0010C42
:103EC0004FF0000CB44557D1B8F1FF3FF1D0FDF7EA
:103ED000E1FAA0EB090040452FD8B8F1000F2CD033
:103EE0002B681A6812F0040FE3D0DA6912F4006F3D
:103EF000DFD04FF400621A622A6852E8003F23F4D0
:103F0000D07342E800310029F6D12A6802F1080393
:103F100053E8003F23F00103083242E80031002952
:103F2000F3D12023C5F88430C5F88830C5F88C302B
:103F3000002385F8803003201FE02A6852E8003F04
:103F400023F4D07342E800310029F6D12A6802F147
:103F5000080353E8003F23F00103083242E8003130
:103F60000029F3D12023C5F88430C5F88830002318
:103F700085F88030032000E00020BDE8F88330B5EC
:103F800083B004460023C0F88C30FDF783FA054661
:103F90002268126812F0080F0FD123681B6813F013
:103FA000040F18D12023C4F88430C4F888300020CE
:103FB000E06684F8800003B030BD6FF07E4300936C
:103FC000034600224FF400112046FFF76AFF002845
:103FD000E3D00320EFE76FF07E4300932B460022EF
:103FE0004FF480012046FFF75CFF0028DAD0032061
:103FF000E1E778B310B50446D0F884300BB324233E
:10400000C4F884302268136823F00103136020464B
:10401000FFF740FD012813D0A36ABBB9226853689B
:1040200023F4904353602268936823F02A0393603B
:104030002268136843F0010313602046FFF79FFFD7
:1040400010BD80F88030FDF71DF9D8E72046FFF756
:10405000C3FEE3E701207047436E2BB90123A0F8AC
:104060006A30A0F86830704730B403689A68C2F3C9
:1040700042629968490F094D6B5CDB00084C615C3A
:1040800093FBF1F3A0F86A30AB5CDB00A25C93FB1E
:10409000F2F3A0F8683030BC704700BFEC50000865
:1040A000E450000890F88030012B18D0012380F8EC
:1040B00080302423C0F8843003681A68196821F01E
:1040C0000101196022F000520023436601680A6072
:1040D0002022C0F8842080F88030184670470220E3
:1040E000704738B590F88030012B1DD0044601236D
:1040F00080F880302423C0F8843003681D681A6873
:1041000022F001021A600268936823F060431943A9
:104110009160FFF7A1FF23681D602023C4F884305D
:10412000002084F8800038BD0220FCE738B590F804
:104130008030012B1DD00446012380F880302423D9
:10414000C0F8843003681D681A6822F001021A6002
:104150000268936823F0606319439160FFF77CFF66
:1041600023681D602023C4F88430002084F8800078
:1041700038BD0220FCE7842801D0033070470020BE
:10418000704708B500F0C4FC002008BDF0B585B04C
:104190000C46456806680769B0F90800FFF7EBFFB1
:1041A00003AB019300902346BAB23146284600F093
:1041B0007DFC012802D1039805B0F0BD0020FBE78B
:1041C00008B500B9012000F0F1FD002008BD00F1A4
:1041D000080343604FF0FF328260C3600361002335
:1041E0000360704700230361704743684B609A681F
:1041F0008A60516099600861036801330360704709
:1042000030B40D68B5F1FF3F11D000F108031C4632
:104210005B681A68AA42FAD963684B6099608C603F
:104220006160086103680133036030BC7047046952
:10423000F2E70369416882688A60416851605A68A0
:10424000824206D0002202611A68013A1A60186898
:10425000704782685A60F5E782B0002301930D4BE6
:104260001B68B3F1FF3F08D04FF0500383F3118870
:10427000BFF36F8FBFF34F8FFEE74FF0500383F311
:104280001188BFF36F8FBFF34F8F019B002BFCD0C2
:1042900002B070470C00002008480068006880F3F6
:1042A00008884FF0000080F3148862B661B6BFF34F
:1042B0004F8FBFF36F8F00DF00BF000008ED00E0FD
:1042C000DFF80C00016841F47001016070470000E4
:1042D00088ED00E04FF0807340F8043C21F00101CC
:1042E00040F8081C054B40F80C3C40F8202C6FF0BF
:1042F000020340F8243C4438704700BF594200088C
:10430000074B19680868B0E8F04F80F30988BFF3DD
:104310006F8F4FF0000080F311887047AFF300807B
:10432000741500204FF0500383F31188BFF36F8F93
:10433000BFF34F8F0B4A136801331360012B00D07A
:1043400070474FF0E023D3F8043D13F0FF0FF7D090
:104350004FF0500383F31188BFF36F8FBFF34F8F7C
:10436000FEE700BF0C000020094B1B6843B94FF06B
:10437000500383F31188BFF36F8FBFF34F8FFEE7B6
:10438000013B034A13600BB983F31188704700BFE8
:104390000C000020000000000000000000000000F1
:1043A000EFF30980BFF36F8F154B1A681EF0100FE3
:1043B00008BF20ED108A20E9F04F10602DE90900B8
:1043C0004FF0500080F31188BFF34F8FBFF36F8F12
:1043D00000F012FD4FF0000080F3118809BC19684D
:1043E0000868B0E8F04F1EF0100F08BFB0EC108A5C
:1043F00080F30988BFF36F8F704700BFAFF3008071
:104400007415002008B54FF0500383F31188BFF3F3
:104410006F8FBFF34F8F00F0C1FB28B14FF0E02347
:104420004FF08052C3F8042D002383F3118808BD98
:104430004FF0E022002313619361054B1B6805498F
:10444000A1FB03139B09013B5361072313617047D1
:1044500000000020D34D62104FF0E023D3F8002D70
:104460003D4B9A421CD04FF0E023D3F8002D3B4B3C
:104470009A421ED030B583B0394B1A78D2B201922D
:10448000FF221A701B78DBB28DF803309DF80330E1
:1044900003F05003334A1370334B07221A601BE0BA
:1044A0004FF0500383F31188BFF36F8FBFF34F8F2B
:1044B000FEE74FF0500383F31188BFF36F8FBFF314
:1044C0004F8FFEE7284A1368013B13609DF80330C5
:1044D0005B00DBB28DF803309DF8033013F0800FE2
:1044E000F0D1214B1B68032B08D04FF0500383F30E
:1044F0001188BFF36F8FBFF34F8FFEE71B021A4A7D
:10450000136003F4E0631360019BDBB2144A137081
:104510004FF0E024D4F8203D43F47003C4F8203D6C
:10452000D4F8203D43F07043C4F8203DFFF780FFEE
:1045300000250E4B1D60FFF7C3FED4F8343F43F057
:104540004043C4F8343FFFF7A7FE00F055FCFFF7E7
:1045500083FE284603B030BD71C20F4170C20F41C7
:1045600000E400E04C090020500900200C0000206D
:10457000124A12F0070F1ED0D11D21F00701C1F51C
:10458000406313440A460E48026000214160134410
:10459000083B23F007030B48036059601960991A20
:1045A00051601360084B1960084B1960084B4FF0BD
:1045B00000421A6070474FF44063E4E75809002056
:1045C0006C15002054090020601500205C150020A7
:1045D00058150020164B1A461B688342FBD35168BE
:1045E00002EB010C844509D0416800EB010C6345E6
:1045F00009D00360904219D01060704740680144B0
:1046000051601046F0E710B40A4C2468A3420BD066
:104610005B681944416013681B680360904200D0D6
:1046200010605DF8044B70470460F7E7704700BF07
:104630006C1500205409002070B5054600F0A6FA5C
:10464000364B1B68A3B1364B1B681D424ED135B1AA
:10465000083515F0070F02D025F007050835002DA5
:1046600046D0304B1B68AB4251D32F4A146804E04C
:10467000FFF77EFFE7E722461C466368AB4202D2A3
:104680002368002BF7D1254B1B68A34241D0166845
:1046900008362368136063685B1B102B10D9601900
:1046A00010F0070F08D04FF0500383F31188BFF3C9
:1046B0006F8FBFF34F8FFEE743606560FFF78AFFA0
:1046C000626818490B689B1A0B60184909688B428D
:1046D00001D216490B60124B1B6813436360002321
:1046E0002360134A13680133136002E0002600E0E0
:1046F000002600F0DFFA16F0070F0CD04FF0500341
:1047000083F31188BFF36F8FBFF34F8FFEE700264F
:10471000EFE70026EDE7304670BD00BF54090020EA
:10472000581500205C1500206C1500206015002035
:1047300064150020002834D038B50446A0F10805DF
:1047400050F8043C174A1268134208D14FF0500346
:1047500083F31188BFF36F8FBFF34F8FFEE750F8DD
:10476000081C41B14FF0500383F31188BFF36F8FE2
:10477000BFF34F8FFEE723EA020340F8043C00F04A
:1047800005FA54F8041C084A13680B4413602846C1
:10479000FFF720FF054A13680133136000F08AFA1F
:1047A00038BD7047581500205C15002068150020A2
:1047B000084B1B681B6823B9074B4FF0FF321A6088
:1047C0007047044B1B68DB68DB685A68024B1A6051
:1047D000704700BF781500204C16002010B5044625
:1047E000006BFFF7A7FF2046FFF7A4FF10BD2DE9E0
:1047F000F04707469846089DDDF824900A9C266BF2
:1048000002F18042013A06EB820626F007060029F3
:104810003AD08E464FF0000CBCF10F0F0BD81EF8AB
:104820000C2004EB0C0383F834201EF80C3013B179
:104830000CF1010CF0E7002384F84330062D00D979
:104840000625E56265644FF0000AC4F848A0201D03
:10485000FFF7C8FC04F11800FFF7C4FC2461C5F1A0
:104860000705A5616462C4F84CA084F850A04246D4
:1048700039463046FFF72EFD2060B9F1000F01D018
:10488000C9F80040BDE8F087002384F83430D5E74C
:1048900038B5002407E004EB840293000E48184466
:1048A000FFF795FC0134062CF5D90C4D2846FFF78F
:1048B0008EFC0B4C2046FFF78AFC0A48FFF787FC6A
:1048C0000948FFF784FC0948FFF781FC084B1D608D
:1048D000084B1C6038BD00BF80150020201600204A
:1048E0003416002058160020841600207016002070
:1048F000781500207C15002010B50446FFF712FD46
:10490000214A136801331360204B1B685BB1204BB5
:104910001B686BB91D4B1B68DA6AE36A9A4207D8B9
:104920001A4B1C6004E0194B1C601368012B28D043
:10493000184A136801331360E06A01238340164A62
:1049400011680B43136000EB8000211D134B03EB38
:104950008000FFF74AFCFFF707FD0D4B1B687BB19A
:104960000A4B1B68DA6AE36A9A4209D24FF0E023E5
:104970004FF08052C3F8042DBFF34F8FBFF36F8FFA
:1049800010BDFFF785FFD3E70C160020741500203B
:104990006C160020181600201C1600208015002020
:1049A0000F4B1B68D3B110B5FFF7BCFC0D4BDB6898
:1049B000DC68201DFFF73DFC0B4A1368013B1360C8
:1049C000074A1368013B1360FFF7CEFC2046FFF750
:1049D00005FF034B1B68002BE6D110BD704700BFDD
:1049E00010160020841600200C16002008B5FFF7D2
:1049F000D7FF074B1B68012BF9D94FF0E0234FF08D
:104A00008052C3F8042DBFF34F8FBFF36F8FEEE7D3
:104A10008015002070B504460D461D4B1E681D4BC9
:104A200018680430FFF705FC50B91A4B1B68DA6AA6
:104A3000012303FA02F218490B6823EA02030B6010
:104A4000B4F1FF3F0DD03444124B1B685C60A642AA
:104A500010D9124B18680F4B19680431FFF7D0FBBF
:104A600070BD002DEFD00B4B196804310C48FFF7D7
:104A7000BCFBF5E70B4B1868064B19680431FFF7D0
:104A8000BFFB094B1B68A342EAD9074B1C60E7E751
:104A900098160020741500201C1600207C1500209C
:104AA00070160020781500204C1600202DE9F043E8
:104AB00085B00746884614461E469000FFF7BCFDA9
:104AC000F0B181465420FFF7B7FD0546A0B1C0F80C
:104AD0003090D5B10023039302950D9B01930C9B5D
:104AE00000933346224641463846FFF780FE28466B
:104AF000FFF702FF012005E04846FFF71BFEE8E74D
:104B00004FF0FF3005B0BDE8F0834FF0FF30F9E71C
:104B100000B583B0174B0193002300938022164900
:104B20001648FFF7C3FF012805D0B0F1FF3F17D0AB
:104B300003B05DF804FB4FF0500383F31188BFF31B
:104B40006F8FBFF34F8F0E4B4FF0FF321A600D4B3C
:104B500001221A600C4B00221A60FFF77DFCE7E788
:104B60004FF0500383F31188BFF36F8FBFF34F8F64
:104B7000FEE700BF48160020F4500008ED49000889
:104B80004C1600206C16002098160020024A13686C
:104B900001331360704700BF14160020F8B53A4B7C
:104BA0001B68002B69D1394B1D6801351D60C5B9E3
:104BB000374B1B681B6843B14FF0500383F31188D8
:104BC000BFF36F8FBFF34F8FFEE7314A1168314B50
:104BD000186810601960304A136801331360FFF7DA
:104BE000E7FD2E4B1B68AB423DD900272C4B1B68C1
:104BF000DB6A03EB83039A002A4B9B58012B00D9F5
:104C00000127294B1B68002B3CD001273AE00127E4
:104C10001F4B1B681B6843B31D4B1B68DB68DC68BC
:104C200063689D4226D3261D3046FFF702FBA36A28
:104C30001BB104F11800FFF7FCFAE36A01229A4065
:104C40001A49086802430A6003EB83039A0031465D
:104C500014481044FFF7C9FAE26A114B1B68DB6A7B
:104C60009A42D4D2D4E70027D2E70C4B4FF0FF3260
:104C70001A60BBE7094A1360B8E70D4A13680133AD
:104C8000136000273846F8BD14160020981600203F
:104C9000781500207C150020501600204C160020AE
:104CA00074150020801500209C1600201C16002082
:104CB0005416002038B5354B1B6843B94FF05003EC
:104CC00083F31188BFF36F8FBFF34F8FFEE7FFF7BA
:104CD00029FB2E4B1A68013A1A601B68002B4FD132
:104CE0002B4B1B680BB900244BE00024294B1B689D
:104CF0001BB3284BDB68DC6804F11800FFF799FA56
:104D0000251D2846FFF795FAE06A01238340224AD1
:104D100011680B43136000EB800029461F4B03EB27
:104D20008000FFF762FAE26A1D4B1B68DB6A9A4259
:104D3000DCD31C4B01221A60D8E70CB1FFF738FD19
:104D4000194B1C6884B9174B1C68D4B14FF0E02391
:104D50004FF08052C3F8042DBFF34F8FBFF36F8F16
:104D600001240EE0013C07D0FFF718FF0028F9D01E
:104D70000C4B01221A60F5E70B4B00221A60E2E7A8
:104D80000024FFF7F1FA204638BD00BF14160020BA
:104D90000C160020581600201C160020801500203C
:104DA000741500209C1600205416002010B5A8B1E0
:104DB0000446104B1B6843B14FF0500383F3118836
:104DC000BFF36F8FBFF34F8FFEE7FFF7DFFE0021CA
:104DD0002046FFF71FFEFFF76DFF48B94FF0E023B5
:104DE0004FF08052C3F8042DBFF34F8FBFF36F8F86
:104DF00010BD00BF14160020204B1B681BB1204BB8
:104E000001221A6070471E4B00221A601D4B1B685E
:104E1000B3FA83F3DBB2C3F11F0303EB83018A0010
:104E200019498A5842B94FF0500383F31188BFF3F0
:104E30006F8FBFF34F8FFEE7134903EB83008200B0
:104E40000A4450684068506003EB830C4FEA8C02C0
:104E500008321144884209D003EB83039A000A4BBD
:104E600013445B68DA68094B1A6070474068624611
:104E70009100054A0A445060EEE700BF1416002076
:104E80009C1600201C1600208015002074150020A0
:104E9000054B1B6833B1054B1B680BB100207047F5
:104EA00002207047012070476C1600201416002065
:104EB00070B50D4E0D4D761BB61006D0002455F87A
:104EC000043B01349847A642F9D1094E094D761B9F
:104ED00000F0D4F8B61006D0002455F8043B013495
:104EE0009847A642F9D170BD085100080851000842
:104EF0001051000808510008830730B548D0541EEF
:104F0000002A3FD0CAB2034601E0013C3AD303F87D
:104F1000012B9D07F9D1032C2DD9CDB245EA0525EA
:104F20000F2C45EA054536D9A4F1100222F00F0CEA
:104F300003F1200EE6444FEA121C03F1100242E98D
:104F4000045542E9025510327245F8D10CF10102C4
:104F500014F00C0F03EB021204F00F0C13D0ACF1A1
:104F6000040323F003030433134442F8045B934225
:104F7000FBD10CF003042CB1CAB21C4403F8012B82
:104F80009C42FBD130BD64461346002CF4D1F9E7B6
:104F900003461446BFE71A46A446E0E7024B13B1A6
:104FA000024800F005B8704700000000BD4F00083F
:104FB000002301461A46184600F01AB838B5084BC7
:104FC000084D5B1B9C1007D0043B1D44013C55F869
:104FD00004399847002CF9D1BDE8384000F054B8A6
:104FE0001451000810510008704700BF704700BFFF
:104FF0002DE9F047DFF880A00646DAF80000984671
:105000000F469146FFF7F0FF1A4B1B68D3F8484153
:1050100024B365681F2D26DC5EB96B1C0235DAF8F7
:105020000000636044F82570FFF7E0FF0020BDE852
:10503000F08704EB85010123C1F88890D4F888211A
:10504000AB401A43022EC4F88821C1F80881E4D18C
:10505000D4F88C211343C4F88C31DEE703F5A67431
:10506000C3F84841D5E7DAF80000FFF7BFFF4FF07B
:10507000FF30DCE7FC50000838040020F8B500BF22
:10508000F8BC08BC9E467047F8B500BFF8BC08BC29
:045090009E46704781
:10509400A8500008350600080000000000000000C9
:1050A4008000000064656661756C745461736B0004
:1050B40000000000000000000102030406070809C4
:1050C40000000000010203040100020004000600C5
:1050D40008000A000C0010002000400080000001BD
:1050E4000804020408010101010101030701000091
:0C50F40049444C45000000001000002062
:0851000050B1FF7F0100000027
:085108009D4F0008050200089C
:04511000E1010008B1
:105114000024F4000100000010000000AAAAAAAABA
:1051240000000000FC02002064030020CC030020E7
:10513400000000000000000000000000000000006B
:10514400000000000000000000000000000000005B
:10515400000000000000000000000000000000004B
:10516400000000000000000000000000000000003B
:10517400000000000000000000000000000000002B
:10518400000000000000000000000000000000001B
:10519400000000000000000000000000000000000B
:1051A40000000000000000000000000000000000FB
:1051B40000000000000000000000000000000000EB
:1051C40000000000000000000100000000000000DA
:1051D4000E33CDAB34126DE6ECDE05000B0000009F
:1051E40000000000000000000000000000000000BB
:1051F40000000000000000000000000000000000AB
:10520400000000000000000000000000000000009A
:10521400000000000000000000000000000000008A
:0C5544000000000000000000A016002085
:04000005080013B923
:00000001FF
